{
	"lesson3/FundMe.sol": {
		"FundMe": {
			"abi": [
				{
					"inputs": [
						{
							"internalType": "uint256",
							"name": "_lockTime",
							"type": "uint256"
						}
					],
					"stateMutability": "nonpayable",
					"type": "constructor"
				},
				{
					"inputs": [],
					"name": "fund",
					"outputs": [],
					"stateMutability": "payable",
					"type": "function"
				},
				{
					"inputs": [
						{
							"internalType": "address",
							"name": "",
							"type": "address"
						}
					],
					"name": "fundToAmount",
					"outputs": [
						{
							"internalType": "uint256",
							"name": "",
							"type": "uint256"
						}
					],
					"stateMutability": "view",
					"type": "function"
				},
				{
					"inputs": [],
					"name": "getChainlinkDataFeedLatestAnswer",
					"outputs": [
						{
							"internalType": "int256",
							"name": "",
							"type": "int256"
						}
					],
					"stateMutability": "view",
					"type": "function"
				},
				{
					"inputs": [],
					"name": "getFund",
					"outputs": [],
					"stateMutability": "nonpayable",
					"type": "function"
				},
				{
					"inputs": [],
					"name": "refund",
					"outputs": [],
					"stateMutability": "nonpayable",
					"type": "function"
				},
				{
					"inputs": [
						{
							"internalType": "address",
							"name": "newOwnerAddress",
							"type": "address"
						}
					],
					"name": "transfrmOwnerShip",
					"outputs": [],
					"stateMutability": "nonpayable",
					"type": "function"
				}
			],
			"devdoc": {
				"kind": "dev",
				"methods": {},
				"version": 1
			},
			"evm": {
				"assembly": "    /* \"lesson3/FundMe.sol\":514:3505  contract FundMe {... */\n  mstore(0x40, 0x80)\n    /* \"lesson3/FundMe.sol\":644:892  constructor(uint256 _lockTime) {... */\n  callvalue\n  dup1\n  iszero\n  tag_1\n  jumpi\n  0x00\n  dup1\n  revert\ntag_1:\n  pop\n  mload(0x40)\n  sub(codesize, bytecodeSize)\n  dup1\n  bytecodeSize\n  dup4\n  codecopy\n  dup2\n  dup2\n  add\n  0x40\n  mstore\n  dup2\n  add\n  swap1\n  tag_2\n  swap2\n  swap1\n  tag_3\n  jump\t// in\ntag_2:\n    /* \"lesson3/FundMe.sol\":731:773  0x694AA1769357215DE4FAC081bf1f309aDC325306 */\n  0x694aa1769357215de4fac081bf1f309adc325306\n    /* \"lesson3/FundMe.sol\":685:693  dataFeed */\n  0x00\n  dup1\n    /* \"lesson3/FundMe.sol\":685:783  dataFeed = AggregatorV3Interface(... */\n  0x0100\n  exp\n  dup2\n  sload\n  dup2\n  0xffffffffffffffffffffffffffffffffffffffff\n  mul\n  not\n  and\n  swap1\n  dup4\n  0xffffffffffffffffffffffffffffffffffffffff\n  and\n  mul\n  or\n  swap1\n  sstore\n  pop\n    /* \"lesson3/FundMe.sol\":801:811  msg.sender */\n  caller\n    /* \"lesson3/FundMe.sol\":793:798  owner */\n  0x01\n  0x00\n    /* \"lesson3/FundMe.sol\":793:811  owner = msg.sender */\n  0x0100\n  exp\n  dup2\n  sload\n  dup2\n  0xffffffffffffffffffffffffffffffffffffffff\n  mul\n  not\n  and\n  swap1\n  dup4\n  0xffffffffffffffffffffffffffffffffffffffff\n  and\n  mul\n  or\n  swap1\n  sstore\n  pop\n    /* \"lesson3/FundMe.sol\":832:841  _lockTime */\n  dup1\n    /* \"lesson3/FundMe.sol\":821:829  lockTime */\n  0x03\n    /* \"lesson3/FundMe.sol\":821:841  lockTime = _lockTime */\n  dup2\n  swap1\n  sstore\n  pop\n    /* \"lesson3/FundMe.sol\":870:885  block.timestamp */\n  timestamp\n    /* \"lesson3/FundMe.sol\":851:867  developTimeStamp */\n  0x02\n    /* \"lesson3/FundMe.sol\":851:885  developTimeStamp = block.timestamp */\n  dup2\n  swap1\n  sstore\n  pop\n    /* \"lesson3/FundMe.sol\":644:892  constructor(uint256 _lockTime) {... */\n  pop\n    /* \"lesson3/FundMe.sol\":514:3505  contract FundMe {... */\n  jump(tag_6)\n    /* \"#utility.yul\":88:205   */\ntag_8:\n    /* \"#utility.yul\":197:198   */\n  0x00\n    /* \"#utility.yul\":194:195   */\n  dup1\n    /* \"#utility.yul\":187:199   */\n  revert\n    /* \"#utility.yul\":334:411   */\ntag_10:\n    /* \"#utility.yul\":371:378   */\n  0x00\n    /* \"#utility.yul\":400:405   */\n  dup2\n    /* \"#utility.yul\":389:405   */\n  swap1\n  pop\n    /* \"#utility.yul\":334:411   */\n  swap2\n  swap1\n  pop\n  jump\t// out\n    /* \"#utility.yul\":417:539   */\ntag_11:\n    /* \"#utility.yul\":490:514   */\n  tag_19\n    /* \"#utility.yul\":508:513   */\n  dup2\n    /* \"#utility.yul\":490:514   */\n  tag_10\n  jump\t// in\ntag_19:\n    /* \"#utility.yul\":483:488   */\n  dup2\n    /* \"#utility.yul\":480:515   */\n  eq\n    /* \"#utility.yul\":470:533   */\n  tag_20\n  jumpi\n    /* \"#utility.yul\":529:530   */\n  0x00\n    /* \"#utility.yul\":526:527   */\n  dup1\n    /* \"#utility.yul\":519:531   */\n  revert\n    /* \"#utility.yul\":470:533   */\ntag_20:\n    /* \"#utility.yul\":417:539   */\n  pop\n  jump\t// out\n    /* \"#utility.yul\":545:688   */\ntag_12:\n    /* \"#utility.yul\":602:607   */\n  0x00\n    /* \"#utility.yul\":633:639   */\n  dup2\n    /* \"#utility.yul\":627:640   */\n  mload\n    /* \"#utility.yul\":618:640   */\n  swap1\n  pop\n    /* \"#utility.yul\":649:682   */\n  tag_22\n    /* \"#utility.yul\":676:681   */\n  dup2\n    /* \"#utility.yul\":649:682   */\n  tag_11\n  jump\t// in\ntag_22:\n    /* \"#utility.yul\":545:688   */\n  swap3\n  swap2\n  pop\n  pop\n  jump\t// out\n    /* \"#utility.yul\":694:1045   */\ntag_3:\n    /* \"#utility.yul\":764:770   */\n  0x00\n    /* \"#utility.yul\":813:815   */\n  0x20\n    /* \"#utility.yul\":801:810   */\n  dup3\n    /* \"#utility.yul\":792:799   */\n  dup5\n    /* \"#utility.yul\":788:811   */\n  sub\n    /* \"#utility.yul\":784:816   */\n  slt\n    /* \"#utility.yul\":781:900   */\n  iszero\n  tag_24\n  jumpi\n    /* \"#utility.yul\":819:898   */\n  tag_25\n  tag_8\n  jump\t// in\ntag_25:\n    /* \"#utility.yul\":781:900   */\ntag_24:\n    /* \"#utility.yul\":939:940   */\n  0x00\n    /* \"#utility.yul\":964:1028   */\n  tag_26\n    /* \"#utility.yul\":1020:1027   */\n  dup5\n    /* \"#utility.yul\":1011:1017   */\n  dup3\n    /* \"#utility.yul\":1000:1009   */\n  dup6\n    /* \"#utility.yul\":996:1018   */\n  add\n    /* \"#utility.yul\":964:1028   */\n  tag_12\n  jump\t// in\ntag_26:\n    /* \"#utility.yul\":954:1028   */\n  swap2\n  pop\n    /* \"#utility.yul\":910:1038   */\n  pop\n    /* \"#utility.yul\":694:1045   */\n  swap3\n  swap2\n  pop\n  pop\n  jump\t// out\n    /* \"lesson3/FundMe.sol\":514:3505  contract FundMe {... */\ntag_6:\n  dataSize(sub_0)\n  dup1\n  dataOffset(sub_0)\n  0x00\n  codecopy\n  0x00\n  return\nstop\n\nsub_0: assembly {\n        /* \"lesson3/FundMe.sol\":514:3505  contract FundMe {... */\n      mstore(0x40, 0x80)\n      jumpi(tag_1, lt(calldatasize, 0x04))\n      shr(0xe0, calldataload(0x00))\n      dup1\n      0x1c79f12d\n      eq\n      tag_2\n      jumpi\n      dup1\n      0x590e1ae3\n      eq\n      tag_3\n      jumpi\n      dup1\n      0x5e8472b6\n      eq\n      tag_4\n      jumpi\n      dup1\n      0x8edd6eb6\n      eq\n      tag_5\n      jumpi\n      dup1\n      0xb60d4288\n      eq\n      tag_6\n      jumpi\n      dup1\n      0xbea4dfb5\n      eq\n      tag_7\n      jumpi\n    tag_1:\n      0x00\n      dup1\n      revert\n        /* \"lesson3/FundMe.sol\":1209:1256  mapping(address => uint256) public fundToAmount */\n    tag_2:\n      callvalue\n      dup1\n      iszero\n      tag_8\n      jumpi\n      0x00\n      dup1\n      revert\n    tag_8:\n      pop\n      tag_9\n      0x04\n      dup1\n      calldatasize\n      sub\n      dup2\n      add\n      swap1\n      tag_10\n      swap2\n      swap1\n      tag_11\n      jump\t// in\n    tag_10:\n      tag_12\n      jump\t// in\n    tag_9:\n      mload(0x40)\n      tag_13\n      swap2\n      swap1\n      tag_14\n      jump\t// in\n    tag_13:\n      mload(0x40)\n      dup1\n      swap2\n      sub\n      swap1\n      return\n        /* \"lesson3/FundMe.sol\":2695:3113  function refund() public windowClose {... */\n    tag_3:\n      callvalue\n      dup1\n      iszero\n      tag_15\n      jumpi\n      0x00\n      dup1\n      revert\n    tag_15:\n      pop\n      tag_16\n      tag_17\n      jump\t// in\n    tag_16:\n      stop\n        /* \"lesson3/FundMe.sol\":3119:3218  function transfrmOwnerShip(address newOwnerAddress) public {... */\n    tag_4:\n      callvalue\n      dup1\n      iszero\n      tag_18\n      jumpi\n      0x00\n      dup1\n      revert\n    tag_18:\n      pop\n      tag_19\n      0x04\n      dup1\n      calldatasize\n      sub\n      dup2\n      add\n      swap1\n      tag_20\n      swap2\n      swap1\n      tag_11\n      jump\t// in\n    tag_20:\n      tag_21\n      jump\t// in\n    tag_19:\n      stop\n        /* \"lesson3/FundMe.sol\":2353:2653  function getFund() public checkOwner windowClose {... */\n    tag_5:\n      callvalue\n      dup1\n      iszero\n      tag_22\n      jumpi\n      0x00\n      dup1\n      revert\n    tag_22:\n      pop\n      tag_23\n      tag_24\n      jump\t// in\n    tag_23:\n      stop\n        /* \"lesson3/FundMe.sol\":1263:1426  function fund() public payable {... */\n    tag_6:\n      tag_25\n      tag_26\n      jump\t// in\n    tag_25:\n      stop\n        /* \"lesson3/FundMe.sol\":1950:2291  function getChainlinkDataFeedLatestAnswer() public view returns (int256) {... */\n    tag_7:\n      callvalue\n      dup1\n      iszero\n      tag_27\n      jumpi\n      0x00\n      dup1\n      revert\n    tag_27:\n      pop\n      tag_28\n      tag_29\n      jump\t// in\n    tag_28:\n      mload(0x40)\n      tag_30\n      swap2\n      swap1\n      tag_31\n      jump\t// in\n    tag_30:\n      mload(0x40)\n      dup1\n      swap2\n      sub\n      swap1\n      return\n        /* \"lesson3/FundMe.sol\":1209:1256  mapping(address => uint256) public fundToAmount */\n    tag_12:\n      mstore(0x20, 0x04)\n      dup1\n      0x00\n      mstore\n      keccak256(0x00, 0x40)\n      0x00\n      swap2\n      pop\n      swap1\n      pop\n      sload\n      dup2\n      jump\t// out\n        /* \"lesson3/FundMe.sol\":2695:3113  function refund() public windowClose {... */\n    tag_17:\n        /* \"lesson3/FundMe.sol\":3432:3440  lockTime */\n      sload(0x03)\n        /* \"lesson3/FundMe.sol\":3413:3429  developTimeStamp */\n      sload(0x02)\n        /* \"lesson3/FundMe.sol\":3413:3440  developTimeStamp + lockTime */\n      tag_33\n      swap2\n      swap1\n      tag_34\n      jump\t// in\n    tag_33:\n        /* \"lesson3/FundMe.sol\":3394:3409  block.timestamp */\n      timestamp\n        /* \"lesson3/FundMe.sol\":3394:3440  block.timestamp >= developTimeStamp + lockTime */\n      lt\n      iszero\n        /* \"lesson3/FundMe.sol\":3373:3485  require(... */\n      tag_35\n      jumpi\n      mload(0x40)\n      0x08c379a000000000000000000000000000000000000000000000000000000000\n      dup2\n      mstore\n      0x04\n      add\n      tag_36\n      swap1\n      tag_37\n      jump\t// in\n    tag_36:\n      mload(0x40)\n      dup1\n      swap2\n      sub\n      swap1\n      revert\n    tag_35:\n        /* \"lesson3/FundMe.sol\":1061:1071  2 * 10**15 */\n      0x071afd498d0000\n        /* \"lesson3/FundMe.sol\":2750:2771  address(this).balance */\n      selfbalance\n        /* \"lesson3/FundMe.sol\":2750:2780  address(this).balance < TARGET */\n      lt\n        /* \"lesson3/FundMe.sol\":2742:2806  require(address(this).balance < TARGET, \"REACH TARGET AMOUNT! \") */\n      tag_39\n      jumpi\n      mload(0x40)\n      0x08c379a000000000000000000000000000000000000000000000000000000000\n      dup2\n      mstore\n      0x04\n      add\n      tag_40\n      swap1\n      tag_41\n      jump\t// in\n    tag_40:\n      mload(0x40)\n      dup1\n      swap2\n      sub\n      swap1\n      revert\n    tag_39:\n        /* \"lesson3/FundMe.sol\":2843:2861  uint256 userAmount */\n      0x00\n        /* \"lesson3/FundMe.sol\":2864:2876  fundToAmount */\n      0x04\n        /* \"lesson3/FundMe.sol\":2864:2888  fundToAmount[msg.sender] */\n      0x00\n        /* \"lesson3/FundMe.sol\":2877:2887  msg.sender */\n      caller\n        /* \"lesson3/FundMe.sol\":2864:2888  fundToAmount[msg.sender] */\n      0xffffffffffffffffffffffffffffffffffffffff\n      and\n      0xffffffffffffffffffffffffffffffffffffffff\n      and\n      dup2\n      mstore\n      0x20\n      add\n      swap1\n      dup2\n      mstore\n      0x20\n      add\n      0x00\n      keccak256\n      sload\n        /* \"lesson3/FundMe.sol\":2843:2888  uint256 userAmount = fundToAmount[msg.sender] */\n      swap1\n      pop\n        /* \"lesson3/FundMe.sol\":2919:2920  0 */\n      0x00\n        /* \"lesson3/FundMe.sol\":2906:2916  userAmount */\n      dup2\n        /* \"lesson3/FundMe.sol\":2906:2920  userAmount > 0 */\n      gt\n        /* \"lesson3/FundMe.sol\":2898:2952  require(userAmount > 0, \" NOT MONEY REFUND FOR YOU !\") */\n      tag_42\n      jumpi\n      mload(0x40)\n      0x08c379a000000000000000000000000000000000000000000000000000000000\n      dup2\n      mstore\n      0x04\n      add\n      tag_43\n      swap1\n      tag_44\n      jump\t// in\n    tag_43:\n      mload(0x40)\n      dup1\n      swap2\n      sub\n      swap1\n      revert\n    tag_42:\n        /* \"lesson3/FundMe.sol\":3014:3026  bool success */\n      0x00\n        /* \"lesson3/FundMe.sol\":3037:3047  msg.sender */\n      caller\n        /* \"lesson3/FundMe.sol\":3029:3053  payable(msg.sender).send */\n      0xffffffffffffffffffffffffffffffffffffffff\n      and\n        /* \"lesson3/FundMe.sol\":3029:3065  payable(msg.sender).send(userAmount) */\n      0x08fc\n        /* \"lesson3/FundMe.sol\":3054:3064  userAmount */\n      dup4\n        /* \"lesson3/FundMe.sol\":3029:3065  payable(msg.sender).send(userAmount) */\n      swap1\n      dup2\n      iszero\n      mul\n      swap1\n      mload(0x40)\n      0x00\n      mload(0x40)\n      dup1\n      dup4\n      sub\n      dup2\n      dup6\n      dup9\n      dup9\n      call\n      swap4\n      pop\n      pop\n      pop\n      pop\n        /* \"lesson3/FundMe.sol\":3014:3065  bool success = payable(msg.sender).send(userAmount) */\n      swap1\n      pop\n        /* \"lesson3/FundMe.sol\":3083:3090  success */\n      dup1\n        /* \"lesson3/FundMe.sol\":3075:3106  require(success, \"tx failed !\") */\n      tag_46\n      jumpi\n      mload(0x40)\n      0x08c379a000000000000000000000000000000000000000000000000000000000\n      dup2\n      mstore\n      0x04\n      add\n      tag_47\n      swap1\n      tag_48\n      jump\t// in\n    tag_47:\n      mload(0x40)\n      dup1\n      swap2\n      sub\n      swap1\n      revert\n    tag_46:\n        /* \"lesson3/FundMe.sol\":2732:3113  {... */\n      pop\n      pop\n        /* \"lesson3/FundMe.sol\":2695:3113  function refund() public windowClose {... */\n      jump\t// out\n        /* \"lesson3/FundMe.sol\":3119:3218  function transfrmOwnerShip(address newOwnerAddress) public {... */\n    tag_21:\n        /* \"lesson3/FundMe.sol\":3196:3211  newOwnerAddress */\n      dup1\n        /* \"lesson3/FundMe.sol\":3188:3193  owner */\n      0x01\n      0x00\n        /* \"lesson3/FundMe.sol\":3188:3211  owner = newOwnerAddress */\n      0x0100\n      exp\n      dup2\n      sload\n      dup2\n      0xffffffffffffffffffffffffffffffffffffffff\n      mul\n      not\n      and\n      swap1\n      dup4\n      0xffffffffffffffffffffffffffffffffffffffff\n      and\n      mul\n      or\n      swap1\n      sstore\n      pop\n        /* \"lesson3/FundMe.sol\":3119:3218  function transfrmOwnerShip(address newOwnerAddress) public {... */\n      pop\n      jump\t// out\n        /* \"lesson3/FundMe.sol\":2353:2653  function getFund() public checkOwner windowClose {... */\n    tag_24:\n        /* \"lesson3/FundMe.sol\":3278:3283  owner */\n      0x01\n      0x00\n      swap1\n      sload\n      swap1\n      0x0100\n      exp\n      swap1\n      div\n      0xffffffffffffffffffffffffffffffffffffffff\n      and\n        /* \"lesson3/FundMe.sol\":3264:3283  msg.sender == owner */\n      0xffffffffffffffffffffffffffffffffffffffff\n      and\n        /* \"lesson3/FundMe.sol\":3264:3274  msg.sender */\n      caller\n        /* \"lesson3/FundMe.sol\":3264:3283  msg.sender == owner */\n      0xffffffffffffffffffffffffffffffffffffffff\n      and\n      eq\n        /* \"lesson3/FundMe.sol\":3256:3316  require(msg.sender == owner, \"This Operator can be owner !\") */\n      tag_51\n      jumpi\n      mload(0x40)\n      0x08c379a000000000000000000000000000000000000000000000000000000000\n      dup2\n      mstore\n      0x04\n      add\n      tag_52\n      swap1\n      tag_53\n      jump\t// in\n    tag_52:\n      mload(0x40)\n      dup1\n      swap2\n      sub\n      swap1\n      revert\n    tag_51:\n        /* \"lesson3/FundMe.sol\":3432:3440  lockTime */\n      sload(0x03)\n        /* \"lesson3/FundMe.sol\":3413:3429  developTimeStamp */\n      sload(0x02)\n        /* \"lesson3/FundMe.sol\":3413:3440  developTimeStamp + lockTime */\n      tag_55\n      swap2\n      swap1\n      tag_34\n      jump\t// in\n    tag_55:\n        /* \"lesson3/FundMe.sol\":3394:3409  block.timestamp */\n      timestamp\n        /* \"lesson3/FundMe.sol\":3394:3440  block.timestamp >= developTimeStamp + lockTime */\n      lt\n      iszero\n        /* \"lesson3/FundMe.sol\":3373:3485  require(... */\n      tag_56\n      jumpi\n      mload(0x40)\n      0x08c379a000000000000000000000000000000000000000000000000000000000\n      dup2\n      mstore\n      0x04\n      add\n      tag_57\n      swap1\n      tag_37\n      jump\t// in\n    tag_57:\n      mload(0x40)\n      dup1\n      swap2\n      sub\n      swap1\n      revert\n    tag_56:\n        /* \"lesson3/FundMe.sol\":1061:1071  2 * 10**15 */\n      0x071afd498d0000\n        /* \"lesson3/FundMe.sol\":2420:2441  address(this).balance */\n      selfbalance\n        /* \"lesson3/FundMe.sol\":2420:2451  address(this).balance >= TARGET */\n      lt\n      iszero\n        /* \"lesson3/FundMe.sol\":2412:2481  require(address(this).balance >= TARGET, \"NOT REACH TARGET AMOUNT! \") */\n      tag_59\n      jumpi\n      mload(0x40)\n      0x08c379a000000000000000000000000000000000000000000000000000000000\n      dup2\n      mstore\n      0x04\n      add\n      tag_60\n      swap1\n      tag_61\n      jump\t// in\n    tag_60:\n      mload(0x40)\n      dup1\n      swap2\n      sub\n      swap1\n      revert\n    tag_59:\n        /* \"lesson3/FundMe.sol\":2543:2555  bool success */\n      0x00\n        /* \"lesson3/FundMe.sol\":2566:2576  msg.sender */\n      caller\n        /* \"lesson3/FundMe.sol\":2558:2582  payable(msg.sender).send */\n      0xffffffffffffffffffffffffffffffffffffffff\n      and\n        /* \"lesson3/FundMe.sol\":2558:2605  payable(msg.sender).send(address(this).balance) */\n      0x08fc\n        /* \"lesson3/FundMe.sol\":2583:2604  address(this).balance */\n      selfbalance\n        /* \"lesson3/FundMe.sol\":2558:2605  payable(msg.sender).send(address(this).balance) */\n      swap1\n      dup2\n      iszero\n      mul\n      swap1\n      mload(0x40)\n      0x00\n      mload(0x40)\n      dup1\n      dup4\n      sub\n      dup2\n      dup6\n      dup9\n      dup9\n      call\n      swap4\n      pop\n      pop\n      pop\n      pop\n        /* \"lesson3/FundMe.sol\":2543:2605  bool success = payable(msg.sender).send(address(this).balance) */\n      swap1\n      pop\n        /* \"lesson3/FundMe.sol\":2623:2630  success */\n      dup1\n        /* \"lesson3/FundMe.sol\":2615:2646  require(success, \"tx failed !\") */\n      tag_63\n      jumpi\n      mload(0x40)\n      0x08c379a000000000000000000000000000000000000000000000000000000000\n      dup2\n      mstore\n      0x04\n      add\n      tag_64\n      swap1\n      tag_48\n      jump\t// in\n    tag_64:\n      mload(0x40)\n      dup1\n      swap2\n      sub\n      swap1\n      revert\n    tag_63:\n        /* \"lesson3/FundMe.sol\":2402:2653  {... */\n      pop\n        /* \"lesson3/FundMe.sol\":2353:2653  function getFund() public checkOwner windowClose {... */\n      jump\t// out\n        /* \"lesson3/FundMe.sol\":1263:1426  function fund() public payable {... */\n    tag_26:\n        /* \"lesson3/FundMe.sol\":932:942  1 * 10**18 */\n      0x0de0b6b3a7640000\n        /* \"lesson3/FundMe.sol\":1312:1335  convertPrice(msg.value) */\n      tag_66\n        /* \"lesson3/FundMe.sol\":1325:1334  msg.value */\n      callvalue\n        /* \"lesson3/FundMe.sol\":1312:1324  convertPrice */\n      tag_67\n        /* \"lesson3/FundMe.sol\":1312:1335  convertPrice(msg.value) */\n      jump\t// in\n    tag_66:\n        /* \"lesson3/FundMe.sol\":1312:1353  convertPrice(msg.value) >= MIN_PAY_AMOUNT */\n      lt\n      iszero\n        /* \"lesson3/FundMe.sol\":1304:1373  require(convertPrice(msg.value) >= MIN_PAY_AMOUNT, \"Send more Eth !\") */\n      tag_68\n      jumpi\n      mload(0x40)\n      0x08c379a000000000000000000000000000000000000000000000000000000000\n      dup2\n      mstore\n      0x04\n      add\n      tag_69\n      swap1\n      tag_70\n      jump\t// in\n    tag_69:\n      mload(0x40)\n      dup1\n      swap2\n      sub\n      swap1\n      revert\n    tag_68:\n        /* \"lesson3/FundMe.sol\":1410:1419  msg.value */\n      callvalue\n        /* \"lesson3/FundMe.sol\":1383:1395  fundToAmount */\n      0x04\n        /* \"lesson3/FundMe.sol\":1383:1407  fundToAmount[msg.sender] */\n      0x00\n        /* \"lesson3/FundMe.sol\":1396:1406  msg.sender */\n      caller\n        /* \"lesson3/FundMe.sol\":1383:1407  fundToAmount[msg.sender] */\n      0xffffffffffffffffffffffffffffffffffffffff\n      and\n      0xffffffffffffffffffffffffffffffffffffffff\n      and\n      dup2\n      mstore\n      0x20\n      add\n      swap1\n      dup2\n      mstore\n      0x20\n      add\n      0x00\n      keccak256\n        /* \"lesson3/FundMe.sol\":1383:1419  fundToAmount[msg.sender] = msg.value */\n      dup2\n      swap1\n      sstore\n      pop\n        /* \"lesson3/FundMe.sol\":1263:1426  function fund() public payable {... */\n      jump\t// out\n        /* \"lesson3/FundMe.sol\":1950:2291  function getChainlinkDataFeedLatestAnswer() public view returns (int256) {... */\n    tag_29:\n        /* \"lesson3/FundMe.sol\":2015:2021  int256 */\n      0x00\n        /* \"lesson3/FundMe.sol\":2108:2118  int answer */\n      dup1\n        /* \"lesson3/FundMe.sol\":2235:2243  dataFeed */\n      0x00\n      dup1\n      sload\n      swap1\n      0x0100\n      exp\n      swap1\n      div\n      0xffffffffffffffffffffffffffffffffffffffff\n      and\n        /* \"lesson3/FundMe.sol\":2235:2259  dataFeed.latestRoundData */\n      0xffffffffffffffffffffffffffffffffffffffff\n      and\n      0xfeaf968c\n        /* \"lesson3/FundMe.sol\":2235:2261  dataFeed.latestRoundData() */\n      mload(0x40)\n      dup2\n      0xffffffff\n      and\n      0xe0\n      shl\n      dup2\n      mstore\n      0x04\n      add\n      0xa0\n      mload(0x40)\n      dup1\n      dup4\n      sub\n      dup2\n      dup7\n      gas\n      staticcall\n      iszero\n      dup1\n      iszero\n      tag_73\n      jumpi\n      returndatasize\n      0x00\n      dup1\n      returndatacopy\n      revert(0x00, returndatasize)\n    tag_73:\n      pop\n      pop\n      pop\n      pop\n      mload(0x40)\n      returndatasize\n      not(0x1f)\n      0x1f\n      dup3\n      add\n      and\n      dup3\n      add\n      dup1\n      0x40\n      mstore\n      pop\n      dup2\n      add\n      swap1\n      tag_74\n      swap2\n      swap1\n      tag_75\n      jump\t// in\n    tag_74:\n        /* \"lesson3/FundMe.sol\":2060:2261  (... */\n      pop\n      pop\n      pop\n      swap2\n      pop\n      pop\n        /* \"lesson3/FundMe.sol\":2278:2284  answer */\n      dup1\n        /* \"lesson3/FundMe.sol\":2271:2284  return answer */\n      swap2\n      pop\n      pop\n        /* \"lesson3/FundMe.sol\":1950:2291  function getChainlinkDataFeedLatestAnswer() public view returns (int256) {... */\n      swap1\n      jump\t// out\n        /* \"lesson3/FundMe.sol\":1476:1819  function convertPrice(uint256 ethAomunt) internal view returns (uint256) {... */\n    tag_67:\n        /* \"lesson3/FundMe.sol\":1540:1547  uint256 */\n      0x00\n        /* \"lesson3/FundMe.sol\":1609:1625  uint256 ethPrice */\n      dup1\n        /* \"lesson3/FundMe.sol\":1636:1670  getChainlinkDataFeedLatestAnswer() */\n      tag_77\n        /* \"lesson3/FundMe.sol\":1636:1668  getChainlinkDataFeedLatestAnswer */\n      tag_29\n        /* \"lesson3/FundMe.sol\":1636:1670  getChainlinkDataFeedLatestAnswer() */\n      jump\t// in\n    tag_77:\n        /* \"lesson3/FundMe.sol\":1609:1671  uint256 ethPrice = uint256(getChainlinkDataFeedLatestAnswer()) */\n      swap1\n      pop\n        /* \"lesson3/FundMe.sol\":1770:1775  10**8 */\n      0x05f5e100\n        /* \"lesson3/FundMe.sol\":1759:1767  ethPrice */\n      dup2\n        /* \"lesson3/FundMe.sol\":1759:1775  ethPrice / 10**8 */\n      tag_78\n      swap2\n      swap1\n      tag_79\n      jump\t// in\n    tag_78:\n        /* \"lesson3/FundMe.sol\":1748:1775  ethPrice = ethPrice / 10**8 */\n      swap1\n      pop\n        /* \"lesson3/FundMe.sol\":1804:1812  ethPrice */\n      dup1\n        /* \"lesson3/FundMe.sol\":1792:1801  ethAomunt */\n      dup4\n        /* \"lesson3/FundMe.sol\":1792:1812  ethAomunt * ethPrice */\n      tag_80\n      swap2\n      swap1\n      tag_81\n      jump\t// in\n    tag_80:\n        /* \"lesson3/FundMe.sol\":1785:1812  return ethAomunt * ethPrice */\n      swap2\n      pop\n      pop\n        /* \"lesson3/FundMe.sol\":1476:1819  function convertPrice(uint256 ethAomunt) internal view returns (uint256) {... */\n      swap2\n      swap1\n      pop\n      jump\t// out\n        /* \"#utility.yul\":88:205   */\n    tag_83:\n        /* \"#utility.yul\":197:198   */\n      0x00\n        /* \"#utility.yul\":194:195   */\n      dup1\n        /* \"#utility.yul\":187:199   */\n      revert\n        /* \"#utility.yul\":334:460   */\n    tag_85:\n        /* \"#utility.yul\":371:378   */\n      0x00\n        /* \"#utility.yul\":411:453   */\n      0xffffffffffffffffffffffffffffffffffffffff\n        /* \"#utility.yul\":404:409   */\n      dup3\n        /* \"#utility.yul\":400:454   */\n      and\n        /* \"#utility.yul\":389:454   */\n      swap1\n      pop\n        /* \"#utility.yul\":334:460   */\n      swap2\n      swap1\n      pop\n      jump\t// out\n        /* \"#utility.yul\":466:562   */\n    tag_86:\n        /* \"#utility.yul\":503:510   */\n      0x00\n        /* \"#utility.yul\":532:556   */\n      tag_123\n        /* \"#utility.yul\":550:555   */\n      dup3\n        /* \"#utility.yul\":532:556   */\n      tag_85\n      jump\t// in\n    tag_123:\n        /* \"#utility.yul\":521:556   */\n      swap1\n      pop\n        /* \"#utility.yul\":466:562   */\n      swap2\n      swap1\n      pop\n      jump\t// out\n        /* \"#utility.yul\":568:690   */\n    tag_87:\n        /* \"#utility.yul\":641:665   */\n      tag_125\n        /* \"#utility.yul\":659:664   */\n      dup2\n        /* \"#utility.yul\":641:665   */\n      tag_86\n      jump\t// in\n    tag_125:\n        /* \"#utility.yul\":634:639   */\n      dup2\n        /* \"#utility.yul\":631:666   */\n      eq\n        /* \"#utility.yul\":621:684   */\n      tag_126\n      jumpi\n        /* \"#utility.yul\":680:681   */\n      0x00\n        /* \"#utility.yul\":677:678   */\n      dup1\n        /* \"#utility.yul\":670:682   */\n      revert\n        /* \"#utility.yul\":621:684   */\n    tag_126:\n        /* \"#utility.yul\":568:690   */\n      pop\n      jump\t// out\n        /* \"#utility.yul\":696:835   */\n    tag_88:\n        /* \"#utility.yul\":742:747   */\n      0x00\n        /* \"#utility.yul\":780:786   */\n      dup2\n        /* \"#utility.yul\":767:787   */\n      calldataload\n        /* \"#utility.yul\":758:787   */\n      swap1\n      pop\n        /* \"#utility.yul\":796:829   */\n      tag_128\n        /* \"#utility.yul\":823:828   */\n      dup2\n        /* \"#utility.yul\":796:829   */\n      tag_87\n      jump\t// in\n    tag_128:\n        /* \"#utility.yul\":696:835   */\n      swap3\n      swap2\n      pop\n      pop\n      jump\t// out\n        /* \"#utility.yul\":841:1170   */\n    tag_11:\n        /* \"#utility.yul\":900:906   */\n      0x00\n        /* \"#utility.yul\":949:951   */\n      0x20\n        /* \"#utility.yul\":937:946   */\n      dup3\n        /* \"#utility.yul\":928:935   */\n      dup5\n        /* \"#utility.yul\":924:947   */\n      sub\n        /* \"#utility.yul\":920:952   */\n      slt\n        /* \"#utility.yul\":917:1036   */\n      iszero\n      tag_130\n      jumpi\n        /* \"#utility.yul\":955:1034   */\n      tag_131\n      tag_83\n      jump\t// in\n    tag_131:\n        /* \"#utility.yul\":917:1036   */\n    tag_130:\n        /* \"#utility.yul\":1075:1076   */\n      0x00\n        /* \"#utility.yul\":1100:1153   */\n      tag_132\n        /* \"#utility.yul\":1145:1152   */\n      dup5\n        /* \"#utility.yul\":1136:1142   */\n      dup3\n        /* \"#utility.yul\":1125:1134   */\n      dup6\n        /* \"#utility.yul\":1121:1143   */\n      add\n        /* \"#utility.yul\":1100:1153   */\n      tag_88\n      jump\t// in\n    tag_132:\n        /* \"#utility.yul\":1090:1153   */\n      swap2\n      pop\n        /* \"#utility.yul\":1046:1163   */\n      pop\n        /* \"#utility.yul\":841:1170   */\n      swap3\n      swap2\n      pop\n      pop\n      jump\t// out\n        /* \"#utility.yul\":1176:1253   */\n    tag_89:\n        /* \"#utility.yul\":1213:1220   */\n      0x00\n        /* \"#utility.yul\":1242:1247   */\n      dup2\n        /* \"#utility.yul\":1231:1247   */\n      swap1\n      pop\n        /* \"#utility.yul\":1176:1253   */\n      swap2\n      swap1\n      pop\n      jump\t// out\n        /* \"#utility.yul\":1259:1377   */\n    tag_90:\n        /* \"#utility.yul\":1346:1370   */\n      tag_135\n        /* \"#utility.yul\":1364:1369   */\n      dup2\n        /* \"#utility.yul\":1346:1370   */\n      tag_89\n      jump\t// in\n    tag_135:\n        /* \"#utility.yul\":1341:1344   */\n      dup3\n        /* \"#utility.yul\":1334:1371   */\n      mstore\n        /* \"#utility.yul\":1259:1377   */\n      pop\n      pop\n      jump\t// out\n        /* \"#utility.yul\":1383:1605   */\n    tag_14:\n        /* \"#utility.yul\":1476:1480   */\n      0x00\n        /* \"#utility.yul\":1514:1516   */\n      0x20\n        /* \"#utility.yul\":1503:1512   */\n      dup3\n        /* \"#utility.yul\":1499:1517   */\n      add\n        /* \"#utility.yul\":1491:1517   */\n      swap1\n      pop\n        /* \"#utility.yul\":1527:1598   */\n      tag_137\n        /* \"#utility.yul\":1595:1596   */\n      0x00\n        /* \"#utility.yul\":1584:1593   */\n      dup4\n        /* \"#utility.yul\":1580:1597   */\n      add\n        /* \"#utility.yul\":1571:1577   */\n      dup5\n        /* \"#utility.yul\":1527:1598   */\n      tag_90\n      jump\t// in\n    tag_137:\n        /* \"#utility.yul\":1383:1605   */\n      swap3\n      swap2\n      pop\n      pop\n      jump\t// out\n        /* \"#utility.yul\":1611:1687   */\n    tag_91:\n        /* \"#utility.yul\":1647:1654   */\n      0x00\n        /* \"#utility.yul\":1676:1681   */\n      dup2\n        /* \"#utility.yul\":1665:1681   */\n      swap1\n      pop\n        /* \"#utility.yul\":1611:1687   */\n      swap2\n      swap1\n      pop\n      jump\t// out\n        /* \"#utility.yul\":1693:1808   */\n    tag_92:\n        /* \"#utility.yul\":1778:1801   */\n      tag_140\n        /* \"#utility.yul\":1795:1800   */\n      dup2\n        /* \"#utility.yul\":1778:1801   */\n      tag_91\n      jump\t// in\n    tag_140:\n        /* \"#utility.yul\":1773:1776   */\n      dup3\n        /* \"#utility.yul\":1766:1802   */\n      mstore\n        /* \"#utility.yul\":1693:1808   */\n      pop\n      pop\n      jump\t// out\n        /* \"#utility.yul\":1814:2032   */\n    tag_31:\n        /* \"#utility.yul\":1905:1909   */\n      0x00\n        /* \"#utility.yul\":1943:1945   */\n      0x20\n        /* \"#utility.yul\":1932:1941   */\n      dup3\n        /* \"#utility.yul\":1928:1946   */\n      add\n        /* \"#utility.yul\":1920:1946   */\n      swap1\n      pop\n        /* \"#utility.yul\":1956:2025   */\n      tag_142\n        /* \"#utility.yul\":2022:2023   */\n      0x00\n        /* \"#utility.yul\":2011:2020   */\n      dup4\n        /* \"#utility.yul\":2007:2024   */\n      add\n        /* \"#utility.yul\":1998:2004   */\n      dup5\n        /* \"#utility.yul\":1956:2025   */\n      tag_92\n      jump\t// in\n    tag_142:\n        /* \"#utility.yul\":1814:2032   */\n      swap3\n      swap2\n      pop\n      pop\n      jump\t// out\n        /* \"#utility.yul\":2038:2218   */\n    tag_93:\n        /* \"#utility.yul\":2086:2163   */\n      0x4e487b7100000000000000000000000000000000000000000000000000000000\n        /* \"#utility.yul\":2083:2084   */\n      0x00\n        /* \"#utility.yul\":2076:2164   */\n      mstore\n        /* \"#utility.yul\":2183:2187   */\n      0x11\n        /* \"#utility.yul\":2180:2181   */\n      0x04\n        /* \"#utility.yul\":2173:2188   */\n      mstore\n        /* \"#utility.yul\":2207:2211   */\n      0x24\n        /* \"#utility.yul\":2204:2205   */\n      0x00\n        /* \"#utility.yul\":2197:2212   */\n      revert\n        /* \"#utility.yul\":2224:2415   */\n    tag_34:\n        /* \"#utility.yul\":2264:2267   */\n      0x00\n        /* \"#utility.yul\":2283:2303   */\n      tag_145\n        /* \"#utility.yul\":2301:2302   */\n      dup3\n        /* \"#utility.yul\":2283:2303   */\n      tag_89\n      jump\t// in\n    tag_145:\n        /* \"#utility.yul\":2278:2303   */\n      swap2\n      pop\n        /* \"#utility.yul\":2317:2337   */\n      tag_146\n        /* \"#utility.yul\":2335:2336   */\n      dup4\n        /* \"#utility.yul\":2317:2337   */\n      tag_89\n      jump\t// in\n    tag_146:\n        /* \"#utility.yul\":2312:2337   */\n      swap3\n      pop\n        /* \"#utility.yul\":2360:2361   */\n      dup3\n        /* \"#utility.yul\":2357:2358   */\n      dup3\n        /* \"#utility.yul\":2353:2362   */\n      add\n        /* \"#utility.yul\":2346:2362   */\n      swap1\n      pop\n        /* \"#utility.yul\":2381:2384   */\n      dup1\n        /* \"#utility.yul\":2378:2379   */\n      dup3\n        /* \"#utility.yul\":2375:2385   */\n      gt\n        /* \"#utility.yul\":2372:2408   */\n      iszero\n      tag_147\n      jumpi\n        /* \"#utility.yul\":2388:2406   */\n      tag_148\n      tag_93\n      jump\t// in\n    tag_148:\n        /* \"#utility.yul\":2372:2408   */\n    tag_147:\n        /* \"#utility.yul\":2224:2415   */\n      swap3\n      swap2\n      pop\n      pop\n      jump\t// out\n        /* \"#utility.yul\":2421:2590   */\n    tag_94:\n        /* \"#utility.yul\":2505:2516   */\n      0x00\n        /* \"#utility.yul\":2539:2545   */\n      dup3\n        /* \"#utility.yul\":2534:2537   */\n      dup3\n        /* \"#utility.yul\":2527:2546   */\n      mstore\n        /* \"#utility.yul\":2579:2583   */\n      0x20\n        /* \"#utility.yul\":2574:2577   */\n      dup3\n        /* \"#utility.yul\":2570:2584   */\n      add\n        /* \"#utility.yul\":2555:2584   */\n      swap1\n      pop\n        /* \"#utility.yul\":2421:2590   */\n      swap3\n      swap2\n      pop\n      pop\n      jump\t// out\n        /* \"#utility.yul\":2596:2765   */\n    tag_95:\n        /* \"#utility.yul\":2736:2757   */\n      0x54696d65206973206e6f7420436c6f7365202100000000000000000000000000\n        /* \"#utility.yul\":2732:2733   */\n      0x00\n        /* \"#utility.yul\":2724:2730   */\n      dup3\n        /* \"#utility.yul\":2720:2734   */\n      add\n        /* \"#utility.yul\":2713:2758   */\n      mstore\n        /* \"#utility.yul\":2596:2765   */\n      pop\n      jump\t// out\n        /* \"#utility.yul\":2771:3137   */\n    tag_96:\n        /* \"#utility.yul\":2913:2916   */\n      0x00\n        /* \"#utility.yul\":2934:3001   */\n      tag_152\n        /* \"#utility.yul\":2998:3000   */\n      0x13\n        /* \"#utility.yul\":2993:2996   */\n      dup4\n        /* \"#utility.yul\":2934:3001   */\n      tag_94\n      jump\t// in\n    tag_152:\n        /* \"#utility.yul\":2927:3001   */\n      swap2\n      pop\n        /* \"#utility.yul\":3010:3103   */\n      tag_153\n        /* \"#utility.yul\":3099:3102   */\n      dup3\n        /* \"#utility.yul\":3010:3103   */\n      tag_95\n      jump\t// in\n    tag_153:\n        /* \"#utility.yul\":3128:3130   */\n      0x20\n        /* \"#utility.yul\":3123:3126   */\n      dup3\n        /* \"#utility.yul\":3119:3131   */\n      add\n        /* \"#utility.yul\":3112:3131   */\n      swap1\n      pop\n        /* \"#utility.yul\":2771:3137   */\n      swap2\n      swap1\n      pop\n      jump\t// out\n        /* \"#utility.yul\":3143:3562   */\n    tag_37:\n        /* \"#utility.yul\":3309:3313   */\n      0x00\n        /* \"#utility.yul\":3347:3349   */\n      0x20\n        /* \"#utility.yul\":3336:3345   */\n      dup3\n        /* \"#utility.yul\":3332:3350   */\n      add\n        /* \"#utility.yul\":3324:3350   */\n      swap1\n      pop\n        /* \"#utility.yul\":3396:3405   */\n      dup2\n        /* \"#utility.yul\":3390:3394   */\n      dup2\n        /* \"#utility.yul\":3386:3406   */\n      sub\n        /* \"#utility.yul\":3382:3383   */\n      0x00\n        /* \"#utility.yul\":3371:3380   */\n      dup4\n        /* \"#utility.yul\":3367:3384   */\n      add\n        /* \"#utility.yul\":3360:3407   */\n      mstore\n        /* \"#utility.yul\":3424:3555   */\n      tag_155\n        /* \"#utility.yul\":3550:3554   */\n      dup2\n        /* \"#utility.yul\":3424:3555   */\n      tag_96\n      jump\t// in\n    tag_155:\n        /* \"#utility.yul\":3416:3555   */\n      swap1\n      pop\n        /* \"#utility.yul\":3143:3562   */\n      swap2\n      swap1\n      pop\n      jump\t// out\n        /* \"#utility.yul\":3568:3739   */\n    tag_97:\n        /* \"#utility.yul\":3708:3731   */\n      0x52454143482054415247455420414d4f554e5421200000000000000000000000\n        /* \"#utility.yul\":3704:3705   */\n      0x00\n        /* \"#utility.yul\":3696:3702   */\n      dup3\n        /* \"#utility.yul\":3692:3706   */\n      add\n        /* \"#utility.yul\":3685:3732   */\n      mstore\n        /* \"#utility.yul\":3568:3739   */\n      pop\n      jump\t// out\n        /* \"#utility.yul\":3745:4111   */\n    tag_98:\n        /* \"#utility.yul\":3887:3890   */\n      0x00\n        /* \"#utility.yul\":3908:3975   */\n      tag_158\n        /* \"#utility.yul\":3972:3974   */\n      0x15\n        /* \"#utility.yul\":3967:3970   */\n      dup4\n        /* \"#utility.yul\":3908:3975   */\n      tag_94\n      jump\t// in\n    tag_158:\n        /* \"#utility.yul\":3901:3975   */\n      swap2\n      pop\n        /* \"#utility.yul\":3984:4077   */\n      tag_159\n        /* \"#utility.yul\":4073:4076   */\n      dup3\n        /* \"#utility.yul\":3984:4077   */\n      tag_97\n      jump\t// in\n    tag_159:\n        /* \"#utility.yul\":4102:4104   */\n      0x20\n        /* \"#utility.yul\":4097:4100   */\n      dup3\n        /* \"#utility.yul\":4093:4105   */\n      add\n        /* \"#utility.yul\":4086:4105   */\n      swap1\n      pop\n        /* \"#utility.yul\":3745:4111   */\n      swap2\n      swap1\n      pop\n      jump\t// out\n        /* \"#utility.yul\":4117:4536   */\n    tag_41:\n        /* \"#utility.yul\":4283:4287   */\n      0x00\n        /* \"#utility.yul\":4321:4323   */\n      0x20\n        /* \"#utility.yul\":4310:4319   */\n      dup3\n        /* \"#utility.yul\":4306:4324   */\n      add\n        /* \"#utility.yul\":4298:4324   */\n      swap1\n      pop\n        /* \"#utility.yul\":4370:4379   */\n      dup2\n        /* \"#utility.yul\":4364:4368   */\n      dup2\n        /* \"#utility.yul\":4360:4380   */\n      sub\n        /* \"#utility.yul\":4356:4357   */\n      0x00\n        /* \"#utility.yul\":4345:4354   */\n      dup4\n        /* \"#utility.yul\":4341:4358   */\n      add\n        /* \"#utility.yul\":4334:4381   */\n      mstore\n        /* \"#utility.yul\":4398:4529   */\n      tag_161\n        /* \"#utility.yul\":4524:4528   */\n      dup2\n        /* \"#utility.yul\":4398:4529   */\n      tag_98\n      jump\t// in\n    tag_161:\n        /* \"#utility.yul\":4390:4529   */\n      swap1\n      pop\n        /* \"#utility.yul\":4117:4536   */\n      swap2\n      swap1\n      pop\n      jump\t// out\n        /* \"#utility.yul\":4542:4719   */\n    tag_99:\n        /* \"#utility.yul\":4682:4711   */\n      0x204e4f54204d4f4e455920524546554e4420464f5220594f5520210000000000\n        /* \"#utility.yul\":4678:4679   */\n      0x00\n        /* \"#utility.yul\":4670:4676   */\n      dup3\n        /* \"#utility.yul\":4666:4680   */\n      add\n        /* \"#utility.yul\":4659:4712   */\n      mstore\n        /* \"#utility.yul\":4542:4719   */\n      pop\n      jump\t// out\n        /* \"#utility.yul\":4725:5091   */\n    tag_100:\n        /* \"#utility.yul\":4867:4870   */\n      0x00\n        /* \"#utility.yul\":4888:4955   */\n      tag_164\n        /* \"#utility.yul\":4952:4954   */\n      0x1b\n        /* \"#utility.yul\":4947:4950   */\n      dup4\n        /* \"#utility.yul\":4888:4955   */\n      tag_94\n      jump\t// in\n    tag_164:\n        /* \"#utility.yul\":4881:4955   */\n      swap2\n      pop\n        /* \"#utility.yul\":4964:5057   */\n      tag_165\n        /* \"#utility.yul\":5053:5056   */\n      dup3\n        /* \"#utility.yul\":4964:5057   */\n      tag_99\n      jump\t// in\n    tag_165:\n        /* \"#utility.yul\":5082:5084   */\n      0x20\n        /* \"#utility.yul\":5077:5080   */\n      dup3\n        /* \"#utility.yul\":5073:5085   */\n      add\n        /* \"#utility.yul\":5066:5085   */\n      swap1\n      pop\n        /* \"#utility.yul\":4725:5091   */\n      swap2\n      swap1\n      pop\n      jump\t// out\n        /* \"#utility.yul\":5097:5516   */\n    tag_44:\n        /* \"#utility.yul\":5263:5267   */\n      0x00\n        /* \"#utility.yul\":5301:5303   */\n      0x20\n        /* \"#utility.yul\":5290:5299   */\n      dup3\n        /* \"#utility.yul\":5286:5304   */\n      add\n        /* \"#utility.yul\":5278:5304   */\n      swap1\n      pop\n        /* \"#utility.yul\":5350:5359   */\n      dup2\n        /* \"#utility.yul\":5344:5348   */\n      dup2\n        /* \"#utility.yul\":5340:5360   */\n      sub\n        /* \"#utility.yul\":5336:5337   */\n      0x00\n        /* \"#utility.yul\":5325:5334   */\n      dup4\n        /* \"#utility.yul\":5321:5338   */\n      add\n        /* \"#utility.yul\":5314:5361   */\n      mstore\n        /* \"#utility.yul\":5378:5509   */\n      tag_167\n        /* \"#utility.yul\":5504:5508   */\n      dup2\n        /* \"#utility.yul\":5378:5509   */\n      tag_100\n      jump\t// in\n    tag_167:\n        /* \"#utility.yul\":5370:5509   */\n      swap1\n      pop\n        /* \"#utility.yul\":5097:5516   */\n      swap2\n      swap1\n      pop\n      jump\t// out\n        /* \"#utility.yul\":5522:5683   */\n    tag_101:\n        /* \"#utility.yul\":5662:5675   */\n      0x7478206661696c65642021000000000000000000000000000000000000000000\n        /* \"#utility.yul\":5658:5659   */\n      0x00\n        /* \"#utility.yul\":5650:5656   */\n      dup3\n        /* \"#utility.yul\":5646:5660   */\n      add\n        /* \"#utility.yul\":5639:5676   */\n      mstore\n        /* \"#utility.yul\":5522:5683   */\n      pop\n      jump\t// out\n        /* \"#utility.yul\":5689:6055   */\n    tag_102:\n        /* \"#utility.yul\":5831:5834   */\n      0x00\n        /* \"#utility.yul\":5852:5919   */\n      tag_170\n        /* \"#utility.yul\":5916:5918   */\n      0x0b\n        /* \"#utility.yul\":5911:5914   */\n      dup4\n        /* \"#utility.yul\":5852:5919   */\n      tag_94\n      jump\t// in\n    tag_170:\n        /* \"#utility.yul\":5845:5919   */\n      swap2\n      pop\n        /* \"#utility.yul\":5928:6021   */\n      tag_171\n        /* \"#utility.yul\":6017:6020   */\n      dup3\n        /* \"#utility.yul\":5928:6021   */\n      tag_101\n      jump\t// in\n    tag_171:\n        /* \"#utility.yul\":6046:6048   */\n      0x20\n        /* \"#utility.yul\":6041:6044   */\n      dup3\n        /* \"#utility.yul\":6037:6049   */\n      add\n        /* \"#utility.yul\":6030:6049   */\n      swap1\n      pop\n        /* \"#utility.yul\":5689:6055   */\n      swap2\n      swap1\n      pop\n      jump\t// out\n        /* \"#utility.yul\":6061:6480   */\n    tag_48:\n        /* \"#utility.yul\":6227:6231   */\n      0x00\n        /* \"#utility.yul\":6265:6267   */\n      0x20\n        /* \"#utility.yul\":6254:6263   */\n      dup3\n        /* \"#utility.yul\":6250:6268   */\n      add\n        /* \"#utility.yul\":6242:6268   */\n      swap1\n      pop\n        /* \"#utility.yul\":6314:6323   */\n      dup2\n        /* \"#utility.yul\":6308:6312   */\n      dup2\n        /* \"#utility.yul\":6304:6324   */\n      sub\n        /* \"#utility.yul\":6300:6301   */\n      0x00\n        /* \"#utility.yul\":6289:6298   */\n      dup4\n        /* \"#utility.yul\":6285:6302   */\n      add\n        /* \"#utility.yul\":6278:6325   */\n      mstore\n        /* \"#utility.yul\":6342:6473   */\n      tag_173\n        /* \"#utility.yul\":6468:6472   */\n      dup2\n        /* \"#utility.yul\":6342:6473   */\n      tag_102\n      jump\t// in\n    tag_173:\n        /* \"#utility.yul\":6334:6473   */\n      swap1\n      pop\n        /* \"#utility.yul\":6061:6480   */\n      swap2\n      swap1\n      pop\n      jump\t// out\n        /* \"#utility.yul\":6486:6664   */\n    tag_103:\n        /* \"#utility.yul\":6626:6656   */\n      0x54686973204f70657261746f722063616e206265206f776e6572202100000000\n        /* \"#utility.yul\":6622:6623   */\n      0x00\n        /* \"#utility.yul\":6614:6620   */\n      dup3\n        /* \"#utility.yul\":6610:6624   */\n      add\n        /* \"#utility.yul\":6603:6657   */\n      mstore\n        /* \"#utility.yul\":6486:6664   */\n      pop\n      jump\t// out\n        /* \"#utility.yul\":6670:7036   */\n    tag_104:\n        /* \"#utility.yul\":6812:6815   */\n      0x00\n        /* \"#utility.yul\":6833:6900   */\n      tag_176\n        /* \"#utility.yul\":6897:6899   */\n      0x1c\n        /* \"#utility.yul\":6892:6895   */\n      dup4\n        /* \"#utility.yul\":6833:6900   */\n      tag_94\n      jump\t// in\n    tag_176:\n        /* \"#utility.yul\":6826:6900   */\n      swap2\n      pop\n        /* \"#utility.yul\":6909:7002   */\n      tag_177\n        /* \"#utility.yul\":6998:7001   */\n      dup3\n        /* \"#utility.yul\":6909:7002   */\n      tag_103\n      jump\t// in\n    tag_177:\n        /* \"#utility.yul\":7027:7029   */\n      0x20\n        /* \"#utility.yul\":7022:7025   */\n      dup3\n        /* \"#utility.yul\":7018:7030   */\n      add\n        /* \"#utility.yul\":7011:7030   */\n      swap1\n      pop\n        /* \"#utility.yul\":6670:7036   */\n      swap2\n      swap1\n      pop\n      jump\t// out\n        /* \"#utility.yul\":7042:7461   */\n    tag_53:\n        /* \"#utility.yul\":7208:7212   */\n      0x00\n        /* \"#utility.yul\":7246:7248   */\n      0x20\n        /* \"#utility.yul\":7235:7244   */\n      dup3\n        /* \"#utility.yul\":7231:7249   */\n      add\n        /* \"#utility.yul\":7223:7249   */\n      swap1\n      pop\n        /* \"#utility.yul\":7295:7304   */\n      dup2\n        /* \"#utility.yul\":7289:7293   */\n      dup2\n        /* \"#utility.yul\":7285:7305   */\n      sub\n        /* \"#utility.yul\":7281:7282   */\n      0x00\n        /* \"#utility.yul\":7270:7279   */\n      dup4\n        /* \"#utility.yul\":7266:7283   */\n      add\n        /* \"#utility.yul\":7259:7306   */\n      mstore\n        /* \"#utility.yul\":7323:7454   */\n      tag_179\n        /* \"#utility.yul\":7449:7453   */\n      dup2\n        /* \"#utility.yul\":7323:7454   */\n      tag_104\n      jump\t// in\n    tag_179:\n        /* \"#utility.yul\":7315:7454   */\n      swap1\n      pop\n        /* \"#utility.yul\":7042:7461   */\n      swap2\n      swap1\n      pop\n      jump\t// out\n        /* \"#utility.yul\":7467:7642   */\n    tag_105:\n        /* \"#utility.yul\":7607:7634   */\n      0x4e4f542052454143482054415247455420414d4f554e54212000000000000000\n        /* \"#utility.yul\":7603:7604   */\n      0x00\n        /* \"#utility.yul\":7595:7601   */\n      dup3\n        /* \"#utility.yul\":7591:7605   */\n      add\n        /* \"#utility.yul\":7584:7635   */\n      mstore\n        /* \"#utility.yul\":7467:7642   */\n      pop\n      jump\t// out\n        /* \"#utility.yul\":7648:8014   */\n    tag_106:\n        /* \"#utility.yul\":7790:7793   */\n      0x00\n        /* \"#utility.yul\":7811:7878   */\n      tag_182\n        /* \"#utility.yul\":7875:7877   */\n      0x19\n        /* \"#utility.yul\":7870:7873   */\n      dup4\n        /* \"#utility.yul\":7811:7878   */\n      tag_94\n      jump\t// in\n    tag_182:\n        /* \"#utility.yul\":7804:7878   */\n      swap2\n      pop\n        /* \"#utility.yul\":7887:7980   */\n      tag_183\n        /* \"#utility.yul\":7976:7979   */\n      dup3\n        /* \"#utility.yul\":7887:7980   */\n      tag_105\n      jump\t// in\n    tag_183:\n        /* \"#utility.yul\":8005:8007   */\n      0x20\n        /* \"#utility.yul\":8000:8003   */\n      dup3\n        /* \"#utility.yul\":7996:8008   */\n      add\n        /* \"#utility.yul\":7989:8008   */\n      swap1\n      pop\n        /* \"#utility.yul\":7648:8014   */\n      swap2\n      swap1\n      pop\n      jump\t// out\n        /* \"#utility.yul\":8020:8439   */\n    tag_61:\n        /* \"#utility.yul\":8186:8190   */\n      0x00\n        /* \"#utility.yul\":8224:8226   */\n      0x20\n        /* \"#utility.yul\":8213:8222   */\n      dup3\n        /* \"#utility.yul\":8209:8227   */\n      add\n        /* \"#utility.yul\":8201:8227   */\n      swap1\n      pop\n        /* \"#utility.yul\":8273:8282   */\n      dup2\n        /* \"#utility.yul\":8267:8271   */\n      dup2\n        /* \"#utility.yul\":8263:8283   */\n      sub\n        /* \"#utility.yul\":8259:8260   */\n      0x00\n        /* \"#utility.yul\":8248:8257   */\n      dup4\n        /* \"#utility.yul\":8244:8261   */\n      add\n        /* \"#utility.yul\":8237:8284   */\n      mstore\n        /* \"#utility.yul\":8301:8432   */\n      tag_185\n        /* \"#utility.yul\":8427:8431   */\n      dup2\n        /* \"#utility.yul\":8301:8432   */\n      tag_106\n      jump\t// in\n    tag_185:\n        /* \"#utility.yul\":8293:8432   */\n      swap1\n      pop\n        /* \"#utility.yul\":8020:8439   */\n      swap2\n      swap1\n      pop\n      jump\t// out\n        /* \"#utility.yul\":8445:8610   */\n    tag_107:\n        /* \"#utility.yul\":8585:8602   */\n      0x53656e64206d6f72652045746820210000000000000000000000000000000000\n        /* \"#utility.yul\":8581:8582   */\n      0x00\n        /* \"#utility.yul\":8573:8579   */\n      dup3\n        /* \"#utility.yul\":8569:8583   */\n      add\n        /* \"#utility.yul\":8562:8603   */\n      mstore\n        /* \"#utility.yul\":8445:8610   */\n      pop\n      jump\t// out\n        /* \"#utility.yul\":8616:8982   */\n    tag_108:\n        /* \"#utility.yul\":8758:8761   */\n      0x00\n        /* \"#utility.yul\":8779:8846   */\n      tag_188\n        /* \"#utility.yul\":8843:8845   */\n      0x0f\n        /* \"#utility.yul\":8838:8841   */\n      dup4\n        /* \"#utility.yul\":8779:8846   */\n      tag_94\n      jump\t// in\n    tag_188:\n        /* \"#utility.yul\":8772:8846   */\n      swap2\n      pop\n        /* \"#utility.yul\":8855:8948   */\n      tag_189\n        /* \"#utility.yul\":8944:8947   */\n      dup3\n        /* \"#utility.yul\":8855:8948   */\n      tag_107\n      jump\t// in\n    tag_189:\n        /* \"#utility.yul\":8973:8975   */\n      0x20\n        /* \"#utility.yul\":8968:8971   */\n      dup3\n        /* \"#utility.yul\":8964:8976   */\n      add\n        /* \"#utility.yul\":8957:8976   */\n      swap1\n      pop\n        /* \"#utility.yul\":8616:8982   */\n      swap2\n      swap1\n      pop\n      jump\t// out\n        /* \"#utility.yul\":8988:9407   */\n    tag_70:\n        /* \"#utility.yul\":9154:9158   */\n      0x00\n        /* \"#utility.yul\":9192:9194   */\n      0x20\n        /* \"#utility.yul\":9181:9190   */\n      dup3\n        /* \"#utility.yul\":9177:9195   */\n      add\n        /* \"#utility.yul\":9169:9195   */\n      swap1\n      pop\n        /* \"#utility.yul\":9241:9250   */\n      dup2\n        /* \"#utility.yul\":9235:9239   */\n      dup2\n        /* \"#utility.yul\":9231:9251   */\n      sub\n        /* \"#utility.yul\":9227:9228   */\n      0x00\n        /* \"#utility.yul\":9216:9225   */\n      dup4\n        /* \"#utility.yul\":9212:9229   */\n      add\n        /* \"#utility.yul\":9205:9252   */\n      mstore\n        /* \"#utility.yul\":9269:9400   */\n      tag_191\n        /* \"#utility.yul\":9395:9399   */\n      dup2\n        /* \"#utility.yul\":9269:9400   */\n      tag_108\n      jump\t// in\n    tag_191:\n        /* \"#utility.yul\":9261:9400   */\n      swap1\n      pop\n        /* \"#utility.yul\":8988:9407   */\n      swap2\n      swap1\n      pop\n      jump\t// out\n        /* \"#utility.yul\":9413:9518   */\n    tag_109:\n        /* \"#utility.yul\":9449:9456   */\n      0x00\n        /* \"#utility.yul\":9489:9511   */\n      0xffffffffffffffffffff\n        /* \"#utility.yul\":9482:9487   */\n      dup3\n        /* \"#utility.yul\":9478:9512   */\n      and\n        /* \"#utility.yul\":9467:9512   */\n      swap1\n      pop\n        /* \"#utility.yul\":9413:9518   */\n      swap2\n      swap1\n      pop\n      jump\t// out\n        /* \"#utility.yul\":9524:9644   */\n    tag_110:\n        /* \"#utility.yul\":9596:9619   */\n      tag_194\n        /* \"#utility.yul\":9613:9618   */\n      dup2\n        /* \"#utility.yul\":9596:9619   */\n      tag_109\n      jump\t// in\n    tag_194:\n        /* \"#utility.yul\":9589:9594   */\n      dup2\n        /* \"#utility.yul\":9586:9620   */\n      eq\n        /* \"#utility.yul\":9576:9638   */\n      tag_195\n      jumpi\n        /* \"#utility.yul\":9634:9635   */\n      0x00\n        /* \"#utility.yul\":9631:9632   */\n      dup1\n        /* \"#utility.yul\":9624:9636   */\n      revert\n        /* \"#utility.yul\":9576:9638   */\n    tag_195:\n        /* \"#utility.yul\":9524:9644   */\n      pop\n      jump\t// out\n        /* \"#utility.yul\":9650:9791   */\n    tag_111:\n        /* \"#utility.yul\":9706:9711   */\n      0x00\n        /* \"#utility.yul\":9737:9743   */\n      dup2\n        /* \"#utility.yul\":9731:9744   */\n      mload\n        /* \"#utility.yul\":9722:9744   */\n      swap1\n      pop\n        /* \"#utility.yul\":9753:9785   */\n      tag_197\n        /* \"#utility.yul\":9779:9784   */\n      dup2\n        /* \"#utility.yul\":9753:9785   */\n      tag_110\n      jump\t// in\n    tag_197:\n        /* \"#utility.yul\":9650:9791   */\n      swap3\n      swap2\n      pop\n      pop\n      jump\t// out\n        /* \"#utility.yul\":9797:9917   */\n    tag_112:\n        /* \"#utility.yul\":9869:9892   */\n      tag_199\n        /* \"#utility.yul\":9886:9891   */\n      dup2\n        /* \"#utility.yul\":9869:9892   */\n      tag_91\n      jump\t// in\n    tag_199:\n        /* \"#utility.yul\":9862:9867   */\n      dup2\n        /* \"#utility.yul\":9859:9893   */\n      eq\n        /* \"#utility.yul\":9849:9911   */\n      tag_200\n      jumpi\n        /* \"#utility.yul\":9907:9908   */\n      0x00\n        /* \"#utility.yul\":9904:9905   */\n      dup1\n        /* \"#utility.yul\":9897:9909   */\n      revert\n        /* \"#utility.yul\":9849:9911   */\n    tag_200:\n        /* \"#utility.yul\":9797:9917   */\n      pop\n      jump\t// out\n        /* \"#utility.yul\":9923:10064   */\n    tag_113:\n        /* \"#utility.yul\":9979:9984   */\n      0x00\n        /* \"#utility.yul\":10010:10016   */\n      dup2\n        /* \"#utility.yul\":10004:10017   */\n      mload\n        /* \"#utility.yul\":9995:10017   */\n      swap1\n      pop\n        /* \"#utility.yul\":10026:10058   */\n      tag_202\n        /* \"#utility.yul\":10052:10057   */\n      dup2\n        /* \"#utility.yul\":10026:10058   */\n      tag_112\n      jump\t// in\n    tag_202:\n        /* \"#utility.yul\":9923:10064   */\n      swap3\n      swap2\n      pop\n      pop\n      jump\t// out\n        /* \"#utility.yul\":10070:10192   */\n    tag_114:\n        /* \"#utility.yul\":10143:10167   */\n      tag_204\n        /* \"#utility.yul\":10161:10166   */\n      dup2\n        /* \"#utility.yul\":10143:10167   */\n      tag_89\n      jump\t// in\n    tag_204:\n        /* \"#utility.yul\":10136:10141   */\n      dup2\n        /* \"#utility.yul\":10133:10168   */\n      eq\n        /* \"#utility.yul\":10123:10186   */\n      tag_205\n      jumpi\n        /* \"#utility.yul\":10182:10183   */\n      0x00\n        /* \"#utility.yul\":10179:10180   */\n      dup1\n        /* \"#utility.yul\":10172:10184   */\n      revert\n        /* \"#utility.yul\":10123:10186   */\n    tag_205:\n        /* \"#utility.yul\":10070:10192   */\n      pop\n      jump\t// out\n        /* \"#utility.yul\":10198:10341   */\n    tag_115:\n        /* \"#utility.yul\":10255:10260   */\n      0x00\n        /* \"#utility.yul\":10286:10292   */\n      dup2\n        /* \"#utility.yul\":10280:10293   */\n      mload\n        /* \"#utility.yul\":10271:10293   */\n      swap1\n      pop\n        /* \"#utility.yul\":10302:10335   */\n      tag_207\n        /* \"#utility.yul\":10329:10334   */\n      dup2\n        /* \"#utility.yul\":10302:10335   */\n      tag_114\n      jump\t// in\n    tag_207:\n        /* \"#utility.yul\":10198:10341   */\n      swap3\n      swap2\n      pop\n      pop\n      jump\t// out\n        /* \"#utility.yul\":10347:11318   */\n    tag_75:\n        /* \"#utility.yul\":10450:10456   */\n      0x00\n        /* \"#utility.yul\":10458:10464   */\n      dup1\n        /* \"#utility.yul\":10466:10472   */\n      0x00\n        /* \"#utility.yul\":10474:10480   */\n      dup1\n        /* \"#utility.yul\":10482:10488   */\n      0x00\n        /* \"#utility.yul\":10531:10534   */\n      0xa0\n        /* \"#utility.yul\":10519:10528   */\n      dup7\n        /* \"#utility.yul\":10510:10517   */\n      dup9\n        /* \"#utility.yul\":10506:10529   */\n      sub\n        /* \"#utility.yul\":10502:10535   */\n      slt\n        /* \"#utility.yul\":10499:10619   */\n      iszero\n      tag_209\n      jumpi\n        /* \"#utility.yul\":10538:10617   */\n      tag_210\n      tag_83\n      jump\t// in\n    tag_210:\n        /* \"#utility.yul\":10499:10619   */\n    tag_209:\n        /* \"#utility.yul\":10658:10659   */\n      0x00\n        /* \"#utility.yul\":10683:10746   */\n      tag_211\n        /* \"#utility.yul\":10738:10745   */\n      dup9\n        /* \"#utility.yul\":10729:10735   */\n      dup3\n        /* \"#utility.yul\":10718:10727   */\n      dup10\n        /* \"#utility.yul\":10714:10736   */\n      add\n        /* \"#utility.yul\":10683:10746   */\n      tag_111\n      jump\t// in\n    tag_211:\n        /* \"#utility.yul\":10673:10746   */\n      swap6\n      pop\n        /* \"#utility.yul\":10629:10756   */\n      pop\n        /* \"#utility.yul\":10795:10797   */\n      0x20\n        /* \"#utility.yul\":10821:10884   */\n      tag_212\n        /* \"#utility.yul\":10876:10883   */\n      dup9\n        /* \"#utility.yul\":10867:10873   */\n      dup3\n        /* \"#utility.yul\":10856:10865   */\n      dup10\n        /* \"#utility.yul\":10852:10874   */\n      add\n        /* \"#utility.yul\":10821:10884   */\n      tag_113\n      jump\t// in\n    tag_212:\n        /* \"#utility.yul\":10811:10884   */\n      swap5\n      pop\n        /* \"#utility.yul\":10766:10894   */\n      pop\n        /* \"#utility.yul\":10933:10935   */\n      0x40\n        /* \"#utility.yul\":10959:11023   */\n      tag_213\n        /* \"#utility.yul\":11015:11022   */\n      dup9\n        /* \"#utility.yul\":11006:11012   */\n      dup3\n        /* \"#utility.yul\":10995:11004   */\n      dup10\n        /* \"#utility.yul\":10991:11013   */\n      add\n        /* \"#utility.yul\":10959:11023   */\n      tag_115\n      jump\t// in\n    tag_213:\n        /* \"#utility.yul\":10949:11023   */\n      swap4\n      pop\n        /* \"#utility.yul\":10904:11033   */\n      pop\n        /* \"#utility.yul\":11072:11074   */\n      0x60\n        /* \"#utility.yul\":11098:11162   */\n      tag_214\n        /* \"#utility.yul\":11154:11161   */\n      dup9\n        /* \"#utility.yul\":11145:11151   */\n      dup3\n        /* \"#utility.yul\":11134:11143   */\n      dup10\n        /* \"#utility.yul\":11130:11152   */\n      add\n        /* \"#utility.yul\":11098:11162   */\n      tag_115\n      jump\t// in\n    tag_214:\n        /* \"#utility.yul\":11088:11162   */\n      swap3\n      pop\n        /* \"#utility.yul\":11043:11172   */\n      pop\n        /* \"#utility.yul\":11211:11214   */\n      0x80\n        /* \"#utility.yul\":11238:11301   */\n      tag_215\n        /* \"#utility.yul\":11293:11300   */\n      dup9\n        /* \"#utility.yul\":11284:11290   */\n      dup3\n        /* \"#utility.yul\":11273:11282   */\n      dup10\n        /* \"#utility.yul\":11269:11291   */\n      add\n        /* \"#utility.yul\":11238:11301   */\n      tag_111\n      jump\t// in\n    tag_215:\n        /* \"#utility.yul\":11228:11301   */\n      swap2\n      pop\n        /* \"#utility.yul\":11182:11311   */\n      pop\n        /* \"#utility.yul\":10347:11318   */\n      swap3\n      swap6\n      pop\n      swap3\n      swap6\n      swap1\n      swap4\n      pop\n      jump\t// out\n        /* \"#utility.yul\":11324:11504   */\n    tag_116:\n        /* \"#utility.yul\":11372:11449   */\n      0x4e487b7100000000000000000000000000000000000000000000000000000000\n        /* \"#utility.yul\":11369:11370   */\n      0x00\n        /* \"#utility.yul\":11362:11450   */\n      mstore\n        /* \"#utility.yul\":11469:11473   */\n      0x12\n        /* \"#utility.yul\":11466:11467   */\n      0x04\n        /* \"#utility.yul\":11459:11474   */\n      mstore\n        /* \"#utility.yul\":11493:11497   */\n      0x24\n        /* \"#utility.yul\":11490:11491   */\n      0x00\n        /* \"#utility.yul\":11483:11498   */\n      revert\n        /* \"#utility.yul\":11510:11695   */\n    tag_79:\n        /* \"#utility.yul\":11550:11551   */\n      0x00\n        /* \"#utility.yul\":11567:11587   */\n      tag_218\n        /* \"#utility.yul\":11585:11586   */\n      dup3\n        /* \"#utility.yul\":11567:11587   */\n      tag_89\n      jump\t// in\n    tag_218:\n        /* \"#utility.yul\":11562:11587   */\n      swap2\n      pop\n        /* \"#utility.yul\":11601:11621   */\n      tag_219\n        /* \"#utility.yul\":11619:11620   */\n      dup4\n        /* \"#utility.yul\":11601:11621   */\n      tag_89\n      jump\t// in\n    tag_219:\n        /* \"#utility.yul\":11596:11621   */\n      swap3\n      pop\n        /* \"#utility.yul\":11640:11641   */\n      dup3\n        /* \"#utility.yul\":11630:11665   */\n      tag_220\n      jumpi\n        /* \"#utility.yul\":11645:11663   */\n      tag_221\n      tag_116\n      jump\t// in\n    tag_221:\n        /* \"#utility.yul\":11630:11665   */\n    tag_220:\n        /* \"#utility.yul\":11687:11688   */\n      dup3\n        /* \"#utility.yul\":11684:11685   */\n      dup3\n        /* \"#utility.yul\":11680:11689   */\n      div\n        /* \"#utility.yul\":11675:11689   */\n      swap1\n      pop\n        /* \"#utility.yul\":11510:11695   */\n      swap3\n      swap2\n      pop\n      pop\n      jump\t// out\n        /* \"#utility.yul\":11701:12111   */\n    tag_81:\n        /* \"#utility.yul\":11741:11748   */\n      0x00\n        /* \"#utility.yul\":11764:11784   */\n      tag_223\n        /* \"#utility.yul\":11782:11783   */\n      dup3\n        /* \"#utility.yul\":11764:11784   */\n      tag_89\n      jump\t// in\n    tag_223:\n        /* \"#utility.yul\":11759:11784   */\n      swap2\n      pop\n        /* \"#utility.yul\":11798:11818   */\n      tag_224\n        /* \"#utility.yul\":11816:11817   */\n      dup4\n        /* \"#utility.yul\":11798:11818   */\n      tag_89\n      jump\t// in\n    tag_224:\n        /* \"#utility.yul\":11793:11818   */\n      swap3\n      pop\n        /* \"#utility.yul\":11853:11854   */\n      dup3\n        /* \"#utility.yul\":11850:11851   */\n      dup3\n        /* \"#utility.yul\":11846:11855   */\n      mul\n        /* \"#utility.yul\":11875:11905   */\n      tag_225\n        /* \"#utility.yul\":11893:11904   */\n      dup2\n        /* \"#utility.yul\":11875:11905   */\n      tag_89\n      jump\t// in\n    tag_225:\n        /* \"#utility.yul\":11864:11905   */\n      swap2\n      pop\n        /* \"#utility.yul\":12054:12055   */\n      dup3\n        /* \"#utility.yul\":12045:12052   */\n      dup3\n        /* \"#utility.yul\":12041:12056   */\n      div\n        /* \"#utility.yul\":12038:12039   */\n      dup5\n        /* \"#utility.yul\":12035:12057   */\n      eq\n        /* \"#utility.yul\":12015:12016   */\n      dup4\n        /* \"#utility.yul\":12008:12017   */\n      iszero\n        /* \"#utility.yul\":11988:12071   */\n      or\n        /* \"#utility.yul\":11965:12104   */\n      tag_226\n      jumpi\n        /* \"#utility.yul\":12084:12102   */\n      tag_227\n      tag_93\n      jump\t// in\n    tag_227:\n        /* \"#utility.yul\":11965:12104   */\n    tag_226:\n        /* \"#utility.yul\":11749:12111   */\n      pop\n        /* \"#utility.yul\":11701:12111   */\n      swap3\n      swap2\n      pop\n      pop\n      jump\t// out\n\n    auxdata: 0xa26469706673582212202a71cd689afe30c92c54fefffc35a6a56765b416ebfe4aaf0fbca7749b079f2564736f6c634300081a0033\n}\n",
				"bytecode": {
					"linkReferences": {},
					"object": "608060405234801561000f575f80fd5b50604051610d6e380380610d6e8339818101604052810190610031919061010f565b73694aa1769357215de4fac081bf1f309adc3253065f806101000a81548173ffffffffffffffffffffffffffffffffffffffff021916908373ffffffffffffffffffffffffffffffffffffffff1602179055503360015f6101000a81548173ffffffffffffffffffffffffffffffffffffffff021916908373ffffffffffffffffffffffffffffffffffffffff16021790555080600381905550426002819055505061013a565b5f80fd5b5f819050919050565b6100ee816100dc565b81146100f8575f80fd5b50565b5f81519050610109816100e5565b92915050565b5f60208284031215610124576101236100d8565b5b5f610131848285016100fb565b91505092915050565b610c27806101475f395ff3fe608060405260043610610054575f3560e01c80631c79f12d14610058578063590e1ae3146100945780635e8472b6146100aa5780638edd6eb6146100d2578063b60d4288146100e8578063bea4dfb5146100f2575b5f80fd5b348015610063575f80fd5b5061007e60048036038101906100799190610674565b61011c565b60405161008b91906106b7565b60405180910390f35b34801561009f575f80fd5b506100a8610131565b005b3480156100b5575f80fd5b506100d060048036038101906100cb9190610674565b6102ca565b005b3480156100dd575f80fd5b506100e661030d565b005b6100f06104b2565b005b3480156100fd575f80fd5b50610106610549565b60405161011391906106e8565b60405180910390f35b6004602052805f5260405f205f915090505481565b600354600254610141919061072e565b421015610183576040517f08c379a000000000000000000000000000000000000000000000000000000000815260040161017a906107bb565b60405180910390fd5b66071afd498d000047106101cc576040517f08c379a00000000000000000000000000000000000000000000000000000000081526004016101c390610823565b60405180910390fd5b5f60045f3373ffffffffffffffffffffffffffffffffffffffff1673ffffffffffffffffffffffffffffffffffffffff1681526020019081526020015f205490505f811161024f576040517f08c379a00000000000000000000000000000000000000000000000000000000081526004016102469061088b565b60405180910390fd5b5f3373ffffffffffffffffffffffffffffffffffffffff166108fc8390811502906040515f60405180830381858888f193505050509050806102c6576040517f08c379a00000000000000000000000000000000000000000000000000000000081526004016102bd906108f3565b60405180910390fd5b5050565b8060015f6101000a81548173ffffffffffffffffffffffffffffffffffffffff021916908373ffffffffffffffffffffffffffffffffffffffff16021790555050565b60015f9054906101000a900473ffffffffffffffffffffffffffffffffffffffff1673ffffffffffffffffffffffffffffffffffffffff163373ffffffffffffffffffffffffffffffffffffffff161461039c576040517f08c379a00000000000000000000000000000000000000000000000000000000081526004016103939061095b565b60405180910390fd5b6003546002546103ac919061072e565b4210156103ee576040517f08c379a00000000000000000000000000000000000000000000000000000000081526004016103e5906107bb565b60405180910390fd5b66071afd498d0000471015610438576040517f08c379a000000000000000000000000000000000000000000000000000000000815260040161042f906109c3565b60405180910390fd5b5f3373ffffffffffffffffffffffffffffffffffffffff166108fc4790811502906040515f60405180830381858888f193505050509050806104af576040517f08c379a00000000000000000000000000000000000000000000000000000000081526004016104a6906108f3565b60405180910390fd5b50565b670de0b6b3a76400006104c4346105e4565b1015610505576040517f08c379a00000000000000000000000000000000000000000000000000000000081526004016104fc90610a2b565b60405180910390fd5b3460045f3373ffffffffffffffffffffffffffffffffffffffff1673ffffffffffffffffffffffffffffffffffffffff1681526020019081526020015f2081905550565b5f805f8054906101000a900473ffffffffffffffffffffffffffffffffffffffff1673ffffffffffffffffffffffffffffffffffffffff1663feaf968c6040518163ffffffff1660e01b815260040160a060405180830381865afa1580156105b3573d5f803e3d5ffd5b505050506040513d601f19601f820116820180604052508101906105d79190610adc565b5050509150508091505090565b5f806105ee610549565b90506305f5e100816106009190610b80565b9050808361060e9190610bb0565b915050919050565b5f80fd5b5f73ffffffffffffffffffffffffffffffffffffffff82169050919050565b5f6106438261061a565b9050919050565b61065381610639565b811461065d575f80fd5b50565b5f8135905061066e8161064a565b92915050565b5f6020828403121561068957610688610616565b5b5f61069684828501610660565b91505092915050565b5f819050919050565b6106b18161069f565b82525050565b5f6020820190506106ca5f8301846106a8565b92915050565b5f819050919050565b6106e2816106d0565b82525050565b5f6020820190506106fb5f8301846106d9565b92915050565b7f4e487b71000000000000000000000000000000000000000000000000000000005f52601160045260245ffd5b5f6107388261069f565b91506107438361069f565b925082820190508082111561075b5761075a610701565b5b92915050565b5f82825260208201905092915050565b7f54696d65206973206e6f7420436c6f73652021000000000000000000000000005f82015250565b5f6107a5601383610761565b91506107b082610771565b602082019050919050565b5f6020820190508181035f8301526107d281610799565b9050919050565b7f52454143482054415247455420414d4f554e54212000000000000000000000005f82015250565b5f61080d601583610761565b9150610818826107d9565b602082019050919050565b5f6020820190508181035f83015261083a81610801565b9050919050565b7f204e4f54204d4f4e455920524546554e4420464f5220594f55202100000000005f82015250565b5f610875601b83610761565b915061088082610841565b602082019050919050565b5f6020820190508181035f8301526108a281610869565b9050919050565b7f7478206661696c656420210000000000000000000000000000000000000000005f82015250565b5f6108dd600b83610761565b91506108e8826108a9565b602082019050919050565b5f6020820190508181035f83015261090a816108d1565b9050919050565b7f54686973204f70657261746f722063616e206265206f776e65722021000000005f82015250565b5f610945601c83610761565b915061095082610911565b602082019050919050565b5f6020820190508181035f83015261097281610939565b9050919050565b7f4e4f542052454143482054415247455420414d4f554e542120000000000000005f82015250565b5f6109ad601983610761565b91506109b882610979565b602082019050919050565b5f6020820190508181035f8301526109da816109a1565b9050919050565b7f53656e64206d6f726520457468202100000000000000000000000000000000005f82015250565b5f610a15600f83610761565b9150610a20826109e1565b602082019050919050565b5f6020820190508181035f830152610a4281610a09565b9050919050565b5f69ffffffffffffffffffff82169050919050565b610a6781610a49565b8114610a71575f80fd5b50565b5f81519050610a8281610a5e565b92915050565b610a91816106d0565b8114610a9b575f80fd5b50565b5f81519050610aac81610a88565b92915050565b610abb8161069f565b8114610ac5575f80fd5b50565b5f81519050610ad681610ab2565b92915050565b5f805f805f60a08688031215610af557610af4610616565b5b5f610b0288828901610a74565b9550506020610b1388828901610a9e565b9450506040610b2488828901610ac8565b9350506060610b3588828901610ac8565b9250506080610b4688828901610a74565b9150509295509295909350565b7f4e487b71000000000000000000000000000000000000000000000000000000005f52601260045260245ffd5b5f610b8a8261069f565b9150610b958361069f565b925082610ba557610ba4610b53565b5b828204905092915050565b5f610bba8261069f565b9150610bc58361069f565b9250828202610bd38161069f565b91508282048414831517610bea57610be9610701565b5b509291505056fea26469706673582212202a71cd689afe30c92c54fefffc35a6a56765b416ebfe4aaf0fbca7749b079f2564736f6c634300081a0033",
					"opcodes": "PUSH1 0x80 PUSH1 0x40 MSTORE CALLVALUE DUP1 ISZERO PUSH2 0xF JUMPI PUSH0 DUP1 REVERT JUMPDEST POP PUSH1 0x40 MLOAD PUSH2 0xD6E CODESIZE SUB DUP1 PUSH2 0xD6E DUP4 CODECOPY DUP2 DUP2 ADD PUSH1 0x40 MSTORE DUP2 ADD SWAP1 PUSH2 0x31 SWAP2 SWAP1 PUSH2 0x10F JUMP JUMPDEST PUSH20 0x694AA1769357215DE4FAC081BF1F309ADC325306 PUSH0 DUP1 PUSH2 0x100 EXP DUP2 SLOAD DUP2 PUSH20 0xFFFFFFFFFFFFFFFFFFFFFFFFFFFFFFFFFFFFFFFF MUL NOT AND SWAP1 DUP4 PUSH20 0xFFFFFFFFFFFFFFFFFFFFFFFFFFFFFFFFFFFFFFFF AND MUL OR SWAP1 SSTORE POP CALLER PUSH1 0x1 PUSH0 PUSH2 0x100 EXP DUP2 SLOAD DUP2 PUSH20 0xFFFFFFFFFFFFFFFFFFFFFFFFFFFFFFFFFFFFFFFF MUL NOT AND SWAP1 DUP4 PUSH20 0xFFFFFFFFFFFFFFFFFFFFFFFFFFFFFFFFFFFFFFFF AND MUL OR SWAP1 SSTORE POP DUP1 PUSH1 0x3 DUP2 SWAP1 SSTORE POP TIMESTAMP PUSH1 0x2 DUP2 SWAP1 SSTORE POP POP PUSH2 0x13A JUMP JUMPDEST PUSH0 DUP1 REVERT JUMPDEST PUSH0 DUP2 SWAP1 POP SWAP2 SWAP1 POP JUMP JUMPDEST PUSH2 0xEE DUP2 PUSH2 0xDC JUMP JUMPDEST DUP2 EQ PUSH2 0xF8 JUMPI PUSH0 DUP1 REVERT JUMPDEST POP JUMP JUMPDEST PUSH0 DUP2 MLOAD SWAP1 POP PUSH2 0x109 DUP2 PUSH2 0xE5 JUMP JUMPDEST SWAP3 SWAP2 POP POP JUMP JUMPDEST PUSH0 PUSH1 0x20 DUP3 DUP5 SUB SLT ISZERO PUSH2 0x124 JUMPI PUSH2 0x123 PUSH2 0xD8 JUMP JUMPDEST JUMPDEST PUSH0 PUSH2 0x131 DUP5 DUP3 DUP6 ADD PUSH2 0xFB JUMP JUMPDEST SWAP2 POP POP SWAP3 SWAP2 POP POP JUMP JUMPDEST PUSH2 0xC27 DUP1 PUSH2 0x147 PUSH0 CODECOPY PUSH0 RETURN INVALID PUSH1 0x80 PUSH1 0x40 MSTORE PUSH1 0x4 CALLDATASIZE LT PUSH2 0x54 JUMPI PUSH0 CALLDATALOAD PUSH1 0xE0 SHR DUP1 PUSH4 0x1C79F12D EQ PUSH2 0x58 JUMPI DUP1 PUSH4 0x590E1AE3 EQ PUSH2 0x94 JUMPI DUP1 PUSH4 0x5E8472B6 EQ PUSH2 0xAA JUMPI DUP1 PUSH4 0x8EDD6EB6 EQ PUSH2 0xD2 JUMPI DUP1 PUSH4 0xB60D4288 EQ PUSH2 0xE8 JUMPI DUP1 PUSH4 0xBEA4DFB5 EQ PUSH2 0xF2 JUMPI JUMPDEST PUSH0 DUP1 REVERT JUMPDEST CALLVALUE DUP1 ISZERO PUSH2 0x63 JUMPI PUSH0 DUP1 REVERT JUMPDEST POP PUSH2 0x7E PUSH1 0x4 DUP1 CALLDATASIZE SUB DUP2 ADD SWAP1 PUSH2 0x79 SWAP2 SWAP1 PUSH2 0x674 JUMP JUMPDEST PUSH2 0x11C JUMP JUMPDEST PUSH1 0x40 MLOAD PUSH2 0x8B SWAP2 SWAP1 PUSH2 0x6B7 JUMP JUMPDEST PUSH1 0x40 MLOAD DUP1 SWAP2 SUB SWAP1 RETURN JUMPDEST CALLVALUE DUP1 ISZERO PUSH2 0x9F JUMPI PUSH0 DUP1 REVERT JUMPDEST POP PUSH2 0xA8 PUSH2 0x131 JUMP JUMPDEST STOP JUMPDEST CALLVALUE DUP1 ISZERO PUSH2 0xB5 JUMPI PUSH0 DUP1 REVERT JUMPDEST POP PUSH2 0xD0 PUSH1 0x4 DUP1 CALLDATASIZE SUB DUP2 ADD SWAP1 PUSH2 0xCB SWAP2 SWAP1 PUSH2 0x674 JUMP JUMPDEST PUSH2 0x2CA JUMP JUMPDEST STOP JUMPDEST CALLVALUE DUP1 ISZERO PUSH2 0xDD JUMPI PUSH0 DUP1 REVERT JUMPDEST POP PUSH2 0xE6 PUSH2 0x30D JUMP JUMPDEST STOP JUMPDEST PUSH2 0xF0 PUSH2 0x4B2 JUMP JUMPDEST STOP JUMPDEST CALLVALUE DUP1 ISZERO PUSH2 0xFD JUMPI PUSH0 DUP1 REVERT JUMPDEST POP PUSH2 0x106 PUSH2 0x549 JUMP JUMPDEST PUSH1 0x40 MLOAD PUSH2 0x113 SWAP2 SWAP1 PUSH2 0x6E8 JUMP JUMPDEST PUSH1 0x40 MLOAD DUP1 SWAP2 SUB SWAP1 RETURN JUMPDEST PUSH1 0x4 PUSH1 0x20 MSTORE DUP1 PUSH0 MSTORE PUSH1 0x40 PUSH0 KECCAK256 PUSH0 SWAP2 POP SWAP1 POP SLOAD DUP2 JUMP JUMPDEST PUSH1 0x3 SLOAD PUSH1 0x2 SLOAD PUSH2 0x141 SWAP2 SWAP1 PUSH2 0x72E JUMP JUMPDEST TIMESTAMP LT ISZERO PUSH2 0x183 JUMPI PUSH1 0x40 MLOAD PUSH32 0x8C379A000000000000000000000000000000000000000000000000000000000 DUP2 MSTORE PUSH1 0x4 ADD PUSH2 0x17A SWAP1 PUSH2 0x7BB JUMP JUMPDEST PUSH1 0x40 MLOAD DUP1 SWAP2 SUB SWAP1 REVERT JUMPDEST PUSH7 0x71AFD498D0000 SELFBALANCE LT PUSH2 0x1CC JUMPI PUSH1 0x40 MLOAD PUSH32 0x8C379A000000000000000000000000000000000000000000000000000000000 DUP2 MSTORE PUSH1 0x4 ADD PUSH2 0x1C3 SWAP1 PUSH2 0x823 JUMP JUMPDEST PUSH1 0x40 MLOAD DUP1 SWAP2 SUB SWAP1 REVERT JUMPDEST PUSH0 PUSH1 0x4 PUSH0 CALLER PUSH20 0xFFFFFFFFFFFFFFFFFFFFFFFFFFFFFFFFFFFFFFFF AND PUSH20 0xFFFFFFFFFFFFFFFFFFFFFFFFFFFFFFFFFFFFFFFF AND DUP2 MSTORE PUSH1 0x20 ADD SWAP1 DUP2 MSTORE PUSH1 0x20 ADD PUSH0 KECCAK256 SLOAD SWAP1 POP PUSH0 DUP2 GT PUSH2 0x24F JUMPI PUSH1 0x40 MLOAD PUSH32 0x8C379A000000000000000000000000000000000000000000000000000000000 DUP2 MSTORE PUSH1 0x4 ADD PUSH2 0x246 SWAP1 PUSH2 0x88B JUMP JUMPDEST PUSH1 0x40 MLOAD DUP1 SWAP2 SUB SWAP1 REVERT JUMPDEST PUSH0 CALLER PUSH20 0xFFFFFFFFFFFFFFFFFFFFFFFFFFFFFFFFFFFFFFFF AND PUSH2 0x8FC DUP4 SWAP1 DUP2 ISZERO MUL SWAP1 PUSH1 0x40 MLOAD PUSH0 PUSH1 0x40 MLOAD DUP1 DUP4 SUB DUP2 DUP6 DUP9 DUP9 CALL SWAP4 POP POP POP POP SWAP1 POP DUP1 PUSH2 0x2C6 JUMPI PUSH1 0x40 MLOAD PUSH32 0x8C379A000000000000000000000000000000000000000000000000000000000 DUP2 MSTORE PUSH1 0x4 ADD PUSH2 0x2BD SWAP1 PUSH2 0x8F3 JUMP JUMPDEST PUSH1 0x40 MLOAD DUP1 SWAP2 SUB SWAP1 REVERT JUMPDEST POP POP JUMP JUMPDEST DUP1 PUSH1 0x1 PUSH0 PUSH2 0x100 EXP DUP2 SLOAD DUP2 PUSH20 0xFFFFFFFFFFFFFFFFFFFFFFFFFFFFFFFFFFFFFFFF MUL NOT AND SWAP1 DUP4 PUSH20 0xFFFFFFFFFFFFFFFFFFFFFFFFFFFFFFFFFFFFFFFF AND MUL OR SWAP1 SSTORE POP POP JUMP JUMPDEST PUSH1 0x1 PUSH0 SWAP1 SLOAD SWAP1 PUSH2 0x100 EXP SWAP1 DIV PUSH20 0xFFFFFFFFFFFFFFFFFFFFFFFFFFFFFFFFFFFFFFFF AND PUSH20 0xFFFFFFFFFFFFFFFFFFFFFFFFFFFFFFFFFFFFFFFF AND CALLER PUSH20 0xFFFFFFFFFFFFFFFFFFFFFFFFFFFFFFFFFFFFFFFF AND EQ PUSH2 0x39C JUMPI PUSH1 0x40 MLOAD PUSH32 0x8C379A000000000000000000000000000000000000000000000000000000000 DUP2 MSTORE PUSH1 0x4 ADD PUSH2 0x393 SWAP1 PUSH2 0x95B JUMP JUMPDEST PUSH1 0x40 MLOAD DUP1 SWAP2 SUB SWAP1 REVERT JUMPDEST PUSH1 0x3 SLOAD PUSH1 0x2 SLOAD PUSH2 0x3AC SWAP2 SWAP1 PUSH2 0x72E JUMP JUMPDEST TIMESTAMP LT ISZERO PUSH2 0x3EE JUMPI PUSH1 0x40 MLOAD PUSH32 0x8C379A000000000000000000000000000000000000000000000000000000000 DUP2 MSTORE PUSH1 0x4 ADD PUSH2 0x3E5 SWAP1 PUSH2 0x7BB JUMP JUMPDEST PUSH1 0x40 MLOAD DUP1 SWAP2 SUB SWAP1 REVERT JUMPDEST PUSH7 0x71AFD498D0000 SELFBALANCE LT ISZERO PUSH2 0x438 JUMPI PUSH1 0x40 MLOAD PUSH32 0x8C379A000000000000000000000000000000000000000000000000000000000 DUP2 MSTORE PUSH1 0x4 ADD PUSH2 0x42F SWAP1 PUSH2 0x9C3 JUMP JUMPDEST PUSH1 0x40 MLOAD DUP1 SWAP2 SUB SWAP1 REVERT JUMPDEST PUSH0 CALLER PUSH20 0xFFFFFFFFFFFFFFFFFFFFFFFFFFFFFFFFFFFFFFFF AND PUSH2 0x8FC SELFBALANCE SWAP1 DUP2 ISZERO MUL SWAP1 PUSH1 0x40 MLOAD PUSH0 PUSH1 0x40 MLOAD DUP1 DUP4 SUB DUP2 DUP6 DUP9 DUP9 CALL SWAP4 POP POP POP POP SWAP1 POP DUP1 PUSH2 0x4AF JUMPI PUSH1 0x40 MLOAD PUSH32 0x8C379A000000000000000000000000000000000000000000000000000000000 DUP2 MSTORE PUSH1 0x4 ADD PUSH2 0x4A6 SWAP1 PUSH2 0x8F3 JUMP JUMPDEST PUSH1 0x40 MLOAD DUP1 SWAP2 SUB SWAP1 REVERT JUMPDEST POP JUMP JUMPDEST PUSH8 0xDE0B6B3A7640000 PUSH2 0x4C4 CALLVALUE PUSH2 0x5E4 JUMP JUMPDEST LT ISZERO PUSH2 0x505 JUMPI PUSH1 0x40 MLOAD PUSH32 0x8C379A000000000000000000000000000000000000000000000000000000000 DUP2 MSTORE PUSH1 0x4 ADD PUSH2 0x4FC SWAP1 PUSH2 0xA2B JUMP JUMPDEST PUSH1 0x40 MLOAD DUP1 SWAP2 SUB SWAP1 REVERT JUMPDEST CALLVALUE PUSH1 0x4 PUSH0 CALLER PUSH20 0xFFFFFFFFFFFFFFFFFFFFFFFFFFFFFFFFFFFFFFFF AND PUSH20 0xFFFFFFFFFFFFFFFFFFFFFFFFFFFFFFFFFFFFFFFF AND DUP2 MSTORE PUSH1 0x20 ADD SWAP1 DUP2 MSTORE PUSH1 0x20 ADD PUSH0 KECCAK256 DUP2 SWAP1 SSTORE POP JUMP JUMPDEST PUSH0 DUP1 PUSH0 DUP1 SLOAD SWAP1 PUSH2 0x100 EXP SWAP1 DIV PUSH20 0xFFFFFFFFFFFFFFFFFFFFFFFFFFFFFFFFFFFFFFFF AND PUSH20 0xFFFFFFFFFFFFFFFFFFFFFFFFFFFFFFFFFFFFFFFF AND PUSH4 0xFEAF968C PUSH1 0x40 MLOAD DUP2 PUSH4 0xFFFFFFFF AND PUSH1 0xE0 SHL DUP2 MSTORE PUSH1 0x4 ADD PUSH1 0xA0 PUSH1 0x40 MLOAD DUP1 DUP4 SUB DUP2 DUP7 GAS STATICCALL ISZERO DUP1 ISZERO PUSH2 0x5B3 JUMPI RETURNDATASIZE PUSH0 DUP1 RETURNDATACOPY RETURNDATASIZE PUSH0 REVERT JUMPDEST POP POP POP POP PUSH1 0x40 MLOAD RETURNDATASIZE PUSH1 0x1F NOT PUSH1 0x1F DUP3 ADD AND DUP3 ADD DUP1 PUSH1 0x40 MSTORE POP DUP2 ADD SWAP1 PUSH2 0x5D7 SWAP2 SWAP1 PUSH2 0xADC JUMP JUMPDEST POP POP POP SWAP2 POP POP DUP1 SWAP2 POP POP SWAP1 JUMP JUMPDEST PUSH0 DUP1 PUSH2 0x5EE PUSH2 0x549 JUMP JUMPDEST SWAP1 POP PUSH4 0x5F5E100 DUP2 PUSH2 0x600 SWAP2 SWAP1 PUSH2 0xB80 JUMP JUMPDEST SWAP1 POP DUP1 DUP4 PUSH2 0x60E SWAP2 SWAP1 PUSH2 0xBB0 JUMP JUMPDEST SWAP2 POP POP SWAP2 SWAP1 POP JUMP JUMPDEST PUSH0 DUP1 REVERT JUMPDEST PUSH0 PUSH20 0xFFFFFFFFFFFFFFFFFFFFFFFFFFFFFFFFFFFFFFFF DUP3 AND SWAP1 POP SWAP2 SWAP1 POP JUMP JUMPDEST PUSH0 PUSH2 0x643 DUP3 PUSH2 0x61A JUMP JUMPDEST SWAP1 POP SWAP2 SWAP1 POP JUMP JUMPDEST PUSH2 0x653 DUP2 PUSH2 0x639 JUMP JUMPDEST DUP2 EQ PUSH2 0x65D JUMPI PUSH0 DUP1 REVERT JUMPDEST POP JUMP JUMPDEST PUSH0 DUP2 CALLDATALOAD SWAP1 POP PUSH2 0x66E DUP2 PUSH2 0x64A JUMP JUMPDEST SWAP3 SWAP2 POP POP JUMP JUMPDEST PUSH0 PUSH1 0x20 DUP3 DUP5 SUB SLT ISZERO PUSH2 0x689 JUMPI PUSH2 0x688 PUSH2 0x616 JUMP JUMPDEST JUMPDEST PUSH0 PUSH2 0x696 DUP5 DUP3 DUP6 ADD PUSH2 0x660 JUMP JUMPDEST SWAP2 POP POP SWAP3 SWAP2 POP POP JUMP JUMPDEST PUSH0 DUP2 SWAP1 POP SWAP2 SWAP1 POP JUMP JUMPDEST PUSH2 0x6B1 DUP2 PUSH2 0x69F JUMP JUMPDEST DUP3 MSTORE POP POP JUMP JUMPDEST PUSH0 PUSH1 0x20 DUP3 ADD SWAP1 POP PUSH2 0x6CA PUSH0 DUP4 ADD DUP5 PUSH2 0x6A8 JUMP JUMPDEST SWAP3 SWAP2 POP POP JUMP JUMPDEST PUSH0 DUP2 SWAP1 POP SWAP2 SWAP1 POP JUMP JUMPDEST PUSH2 0x6E2 DUP2 PUSH2 0x6D0 JUMP JUMPDEST DUP3 MSTORE POP POP JUMP JUMPDEST PUSH0 PUSH1 0x20 DUP3 ADD SWAP1 POP PUSH2 0x6FB PUSH0 DUP4 ADD DUP5 PUSH2 0x6D9 JUMP JUMPDEST SWAP3 SWAP2 POP POP JUMP JUMPDEST PUSH32 0x4E487B7100000000000000000000000000000000000000000000000000000000 PUSH0 MSTORE PUSH1 0x11 PUSH1 0x4 MSTORE PUSH1 0x24 PUSH0 REVERT JUMPDEST PUSH0 PUSH2 0x738 DUP3 PUSH2 0x69F JUMP JUMPDEST SWAP2 POP PUSH2 0x743 DUP4 PUSH2 0x69F JUMP JUMPDEST SWAP3 POP DUP3 DUP3 ADD SWAP1 POP DUP1 DUP3 GT ISZERO PUSH2 0x75B JUMPI PUSH2 0x75A PUSH2 0x701 JUMP JUMPDEST JUMPDEST SWAP3 SWAP2 POP POP JUMP JUMPDEST PUSH0 DUP3 DUP3 MSTORE PUSH1 0x20 DUP3 ADD SWAP1 POP SWAP3 SWAP2 POP POP JUMP JUMPDEST PUSH32 0x54696D65206973206E6F7420436C6F7365202100000000000000000000000000 PUSH0 DUP3 ADD MSTORE POP JUMP JUMPDEST PUSH0 PUSH2 0x7A5 PUSH1 0x13 DUP4 PUSH2 0x761 JUMP JUMPDEST SWAP2 POP PUSH2 0x7B0 DUP3 PUSH2 0x771 JUMP JUMPDEST PUSH1 0x20 DUP3 ADD SWAP1 POP SWAP2 SWAP1 POP JUMP JUMPDEST PUSH0 PUSH1 0x20 DUP3 ADD SWAP1 POP DUP2 DUP2 SUB PUSH0 DUP4 ADD MSTORE PUSH2 0x7D2 DUP2 PUSH2 0x799 JUMP JUMPDEST SWAP1 POP SWAP2 SWAP1 POP JUMP JUMPDEST PUSH32 0x52454143482054415247455420414D4F554E5421200000000000000000000000 PUSH0 DUP3 ADD MSTORE POP JUMP JUMPDEST PUSH0 PUSH2 0x80D PUSH1 0x15 DUP4 PUSH2 0x761 JUMP JUMPDEST SWAP2 POP PUSH2 0x818 DUP3 PUSH2 0x7D9 JUMP JUMPDEST PUSH1 0x20 DUP3 ADD SWAP1 POP SWAP2 SWAP1 POP JUMP JUMPDEST PUSH0 PUSH1 0x20 DUP3 ADD SWAP1 POP DUP2 DUP2 SUB PUSH0 DUP4 ADD MSTORE PUSH2 0x83A DUP2 PUSH2 0x801 JUMP JUMPDEST SWAP1 POP SWAP2 SWAP1 POP JUMP JUMPDEST PUSH32 0x204E4F54204D4F4E455920524546554E4420464F5220594F5520210000000000 PUSH0 DUP3 ADD MSTORE POP JUMP JUMPDEST PUSH0 PUSH2 0x875 PUSH1 0x1B DUP4 PUSH2 0x761 JUMP JUMPDEST SWAP2 POP PUSH2 0x880 DUP3 PUSH2 0x841 JUMP JUMPDEST PUSH1 0x20 DUP3 ADD SWAP1 POP SWAP2 SWAP1 POP JUMP JUMPDEST PUSH0 PUSH1 0x20 DUP3 ADD SWAP1 POP DUP2 DUP2 SUB PUSH0 DUP4 ADD MSTORE PUSH2 0x8A2 DUP2 PUSH2 0x869 JUMP JUMPDEST SWAP1 POP SWAP2 SWAP1 POP JUMP JUMPDEST PUSH32 0x7478206661696C65642021000000000000000000000000000000000000000000 PUSH0 DUP3 ADD MSTORE POP JUMP JUMPDEST PUSH0 PUSH2 0x8DD PUSH1 0xB DUP4 PUSH2 0x761 JUMP JUMPDEST SWAP2 POP PUSH2 0x8E8 DUP3 PUSH2 0x8A9 JUMP JUMPDEST PUSH1 0x20 DUP3 ADD SWAP1 POP SWAP2 SWAP1 POP JUMP JUMPDEST PUSH0 PUSH1 0x20 DUP3 ADD SWAP1 POP DUP2 DUP2 SUB PUSH0 DUP4 ADD MSTORE PUSH2 0x90A DUP2 PUSH2 0x8D1 JUMP JUMPDEST SWAP1 POP SWAP2 SWAP1 POP JUMP JUMPDEST PUSH32 0x54686973204F70657261746F722063616E206265206F776E6572202100000000 PUSH0 DUP3 ADD MSTORE POP JUMP JUMPDEST PUSH0 PUSH2 0x945 PUSH1 0x1C DUP4 PUSH2 0x761 JUMP JUMPDEST SWAP2 POP PUSH2 0x950 DUP3 PUSH2 0x911 JUMP JUMPDEST PUSH1 0x20 DUP3 ADD SWAP1 POP SWAP2 SWAP1 POP JUMP JUMPDEST PUSH0 PUSH1 0x20 DUP3 ADD SWAP1 POP DUP2 DUP2 SUB PUSH0 DUP4 ADD MSTORE PUSH2 0x972 DUP2 PUSH2 0x939 JUMP JUMPDEST SWAP1 POP SWAP2 SWAP1 POP JUMP JUMPDEST PUSH32 0x4E4F542052454143482054415247455420414D4F554E54212000000000000000 PUSH0 DUP3 ADD MSTORE POP JUMP JUMPDEST PUSH0 PUSH2 0x9AD PUSH1 0x19 DUP4 PUSH2 0x761 JUMP JUMPDEST SWAP2 POP PUSH2 0x9B8 DUP3 PUSH2 0x979 JUMP JUMPDEST PUSH1 0x20 DUP3 ADD SWAP1 POP SWAP2 SWAP1 POP JUMP JUMPDEST PUSH0 PUSH1 0x20 DUP3 ADD SWAP1 POP DUP2 DUP2 SUB PUSH0 DUP4 ADD MSTORE PUSH2 0x9DA DUP2 PUSH2 0x9A1 JUMP JUMPDEST SWAP1 POP SWAP2 SWAP1 POP JUMP JUMPDEST PUSH32 0x53656E64206D6F72652045746820210000000000000000000000000000000000 PUSH0 DUP3 ADD MSTORE POP JUMP JUMPDEST PUSH0 PUSH2 0xA15 PUSH1 0xF DUP4 PUSH2 0x761 JUMP JUMPDEST SWAP2 POP PUSH2 0xA20 DUP3 PUSH2 0x9E1 JUMP JUMPDEST PUSH1 0x20 DUP3 ADD SWAP1 POP SWAP2 SWAP1 POP JUMP JUMPDEST PUSH0 PUSH1 0x20 DUP3 ADD SWAP1 POP DUP2 DUP2 SUB PUSH0 DUP4 ADD MSTORE PUSH2 0xA42 DUP2 PUSH2 0xA09 JUMP JUMPDEST SWAP1 POP SWAP2 SWAP1 POP JUMP JUMPDEST PUSH0 PUSH10 0xFFFFFFFFFFFFFFFFFFFF DUP3 AND SWAP1 POP SWAP2 SWAP1 POP JUMP JUMPDEST PUSH2 0xA67 DUP2 PUSH2 0xA49 JUMP JUMPDEST DUP2 EQ PUSH2 0xA71 JUMPI PUSH0 DUP1 REVERT JUMPDEST POP JUMP JUMPDEST PUSH0 DUP2 MLOAD SWAP1 POP PUSH2 0xA82 DUP2 PUSH2 0xA5E JUMP JUMPDEST SWAP3 SWAP2 POP POP JUMP JUMPDEST PUSH2 0xA91 DUP2 PUSH2 0x6D0 JUMP JUMPDEST DUP2 EQ PUSH2 0xA9B JUMPI PUSH0 DUP1 REVERT JUMPDEST POP JUMP JUMPDEST PUSH0 DUP2 MLOAD SWAP1 POP PUSH2 0xAAC DUP2 PUSH2 0xA88 JUMP JUMPDEST SWAP3 SWAP2 POP POP JUMP JUMPDEST PUSH2 0xABB DUP2 PUSH2 0x69F JUMP JUMPDEST DUP2 EQ PUSH2 0xAC5 JUMPI PUSH0 DUP1 REVERT JUMPDEST POP JUMP JUMPDEST PUSH0 DUP2 MLOAD SWAP1 POP PUSH2 0xAD6 DUP2 PUSH2 0xAB2 JUMP JUMPDEST SWAP3 SWAP2 POP POP JUMP JUMPDEST PUSH0 DUP1 PUSH0 DUP1 PUSH0 PUSH1 0xA0 DUP7 DUP9 SUB SLT ISZERO PUSH2 0xAF5 JUMPI PUSH2 0xAF4 PUSH2 0x616 JUMP JUMPDEST JUMPDEST PUSH0 PUSH2 0xB02 DUP9 DUP3 DUP10 ADD PUSH2 0xA74 JUMP JUMPDEST SWAP6 POP POP PUSH1 0x20 PUSH2 0xB13 DUP9 DUP3 DUP10 ADD PUSH2 0xA9E JUMP JUMPDEST SWAP5 POP POP PUSH1 0x40 PUSH2 0xB24 DUP9 DUP3 DUP10 ADD PUSH2 0xAC8 JUMP JUMPDEST SWAP4 POP POP PUSH1 0x60 PUSH2 0xB35 DUP9 DUP3 DUP10 ADD PUSH2 0xAC8 JUMP JUMPDEST SWAP3 POP POP PUSH1 0x80 PUSH2 0xB46 DUP9 DUP3 DUP10 ADD PUSH2 0xA74 JUMP JUMPDEST SWAP2 POP POP SWAP3 SWAP6 POP SWAP3 SWAP6 SWAP1 SWAP4 POP JUMP JUMPDEST PUSH32 0x4E487B7100000000000000000000000000000000000000000000000000000000 PUSH0 MSTORE PUSH1 0x12 PUSH1 0x4 MSTORE PUSH1 0x24 PUSH0 REVERT JUMPDEST PUSH0 PUSH2 0xB8A DUP3 PUSH2 0x69F JUMP JUMPDEST SWAP2 POP PUSH2 0xB95 DUP4 PUSH2 0x69F JUMP JUMPDEST SWAP3 POP DUP3 PUSH2 0xBA5 JUMPI PUSH2 0xBA4 PUSH2 0xB53 JUMP JUMPDEST JUMPDEST DUP3 DUP3 DIV SWAP1 POP SWAP3 SWAP2 POP POP JUMP JUMPDEST PUSH0 PUSH2 0xBBA DUP3 PUSH2 0x69F JUMP JUMPDEST SWAP2 POP PUSH2 0xBC5 DUP4 PUSH2 0x69F JUMP JUMPDEST SWAP3 POP DUP3 DUP3 MUL PUSH2 0xBD3 DUP2 PUSH2 0x69F JUMP JUMPDEST SWAP2 POP DUP3 DUP3 DIV DUP5 EQ DUP4 ISZERO OR PUSH2 0xBEA JUMPI PUSH2 0xBE9 PUSH2 0x701 JUMP JUMPDEST JUMPDEST POP SWAP3 SWAP2 POP POP JUMP INVALID LOG2 PUSH5 0x6970667358 0x22 SLT KECCAK256 0x2A PUSH18 0xCD689AFE30C92C54FEFFFC35A6A56765B416 0xEB INVALID BLOBBASEFEE 0xAF 0xF 0xBC 0xA7 PUSH21 0x9B079F2564736F6C634300081A0033000000000000 "
				},
				"gasEstimates": {
					"creation": {
						"codeDepositCost": "622200",
						"executionCost": "infinite",
						"totalCost": "infinite"
					},
					"external": {
						"fund()": "infinite",
						"fundToAmount(address)": "2780",
						"getChainlinkDataFeedLatestAnswer()": "infinite",
						"getFund()": "infinite",
						"refund()": "infinite",
						"transfrmOwnerShip(address)": "24737"
					},
					"internal": {
						"convertPrice(uint256)": "infinite"
					}
				},
				"methodIdentifiers": {
					"fund()": "b60d4288",
					"fundToAmount(address)": "1c79f12d",
					"getChainlinkDataFeedLatestAnswer()": "bea4dfb5",
					"getFund()": "8edd6eb6",
					"refund()": "590e1ae3",
					"transfrmOwnerShip(address)": "5e8472b6"
				}
			},
			"storageLayout": {
				"storage": [
					{
						"astId": 52,
						"contract": "lesson3/FundMe.sol:FundMe",
						"label": "dataFeed",
						"offset": 0,
						"slot": "0",
						"type": "t_contract(AggregatorV3Interface)45"
					},
					{
						"astId": 54,
						"contract": "lesson3/FundMe.sol:FundMe",
						"label": "owner",
						"offset": 0,
						"slot": "1",
						"type": "t_address"
					},
					{
						"astId": 56,
						"contract": "lesson3/FundMe.sol:FundMe",
						"label": "developTimeStamp",
						"offset": 0,
						"slot": "2",
						"type": "t_uint256"
					},
					{
						"astId": 58,
						"contract": "lesson3/FundMe.sol:FundMe",
						"label": "lockTime",
						"offset": 0,
						"slot": "3",
						"type": "t_uint256"
					},
					{
						"astId": 102,
						"contract": "lesson3/FundMe.sol:FundMe",
						"label": "fundToAmount",
						"offset": 0,
						"slot": "4",
						"type": "t_mapping(t_address,t_uint256)"
					}
				],
				"types": {
					"t_address": {
						"encoding": "inplace",
						"label": "address",
						"numberOfBytes": "20"
					},
					"t_contract(AggregatorV3Interface)45": {
						"encoding": "inplace",
						"label": "contract AggregatorV3Interface",
						"numberOfBytes": "20"
					},
					"t_mapping(t_address,t_uint256)": {
						"encoding": "mapping",
						"key": "t_address",
						"label": "mapping(address => uint256)",
						"numberOfBytes": "32",
						"value": "t_uint256"
					},
					"t_uint256": {
						"encoding": "inplace",
						"label": "uint256",
						"numberOfBytes": "32"
					}
				}
			},
			"userdoc": {
				"kind": "user",
				"methods": {
					"getChainlinkDataFeedLatestAnswer()": {
						"notice": "Returns the latest answer.   这儿返回的是267424938090  就很好的解释了为啥上面要除8"
					},
					"getFund()": {
						"notice": "获取众筹资金, 按usd计算"
					},
					"refund()": {
						"notice": "用户退款"
					}
				},
				"version": 1
			}
		}
	}
}