{
	"contracts/hello.sol": {
		"HelloWolrd": {
			"abi": [
				{
					"inputs": [],
					"name": "fund",
					"outputs": [
						{
							"internalType": "uint256",
							"name": "",
							"type": "uint256"
						}
					],
					"stateMutability": "payable",
					"type": "function"
				},
				{
					"inputs": [
						{
							"internalType": "uint256",
							"name": "_id",
							"type": "uint256"
						}
					],
					"name": "sayHello",
					"outputs": [
						{
							"internalType": "string",
							"name": "",
							"type": "string"
						}
					],
					"stateMutability": "view",
					"type": "function"
				},
				{
					"inputs": [
						{
							"internalType": "uint256",
							"name": "_id",
							"type": "uint256"
						},
						{
							"internalType": "string",
							"name": "_phrase",
							"type": "string"
						}
					],
					"name": "setHello",
					"outputs": [],
					"stateMutability": "nonpayable",
					"type": "function"
				}
			],
			"devdoc": {
				"kind": "dev",
				"methods": {},
				"version": 1
			},
			"evm": {
				"assembly": "    /* \"contracts/hello.sol\":70:1100  contract HelloWolrd {... */\n  mstore(0x40, 0x80)\n    /* \"contracts/hello.sol\":283:317  string varString = \"hello world !\" */\n  mload(0x40)\n  dup1\n  0x40\n  add\n  0x40\n  mstore\n  dup1\n  0x0d\n  dup2\n  mstore\n  0x20\n  add\n  0x68656c6c6f20776f726c64202100000000000000000000000000000000000000\n  dup2\n  mstore\n  pop\n  0x01\n  swap1\n  dup2\n  tag_1\n  swap2\n  swap1\n  tag_2\n  jump\t// in\ntag_1:\n  pop\n    /* \"contracts/hello.sol\":70:1100  contract HelloWolrd {... */\n  callvalue\n  dup1\n  iszero\n  tag_3\n  jumpi\n  0x00\n  dup1\n  revert\ntag_3:\n  pop\n  jump(tag_4)\n    /* \"#utility.yul\":7:106   */\ntag_5:\n    /* \"#utility.yul\":59:65   */\n  0x00\n    /* \"#utility.yul\":93:98   */\n  dup2\n    /* \"#utility.yul\":87:99   */\n  mload\n    /* \"#utility.yul\":77:99   */\n  swap1\n  pop\n    /* \"#utility.yul\":7:106   */\n  swap2\n  swap1\n  pop\n  jump\t// out\n    /* \"#utility.yul\":112:292   */\ntag_6:\n    /* \"#utility.yul\":160:237   */\n  0x4e487b7100000000000000000000000000000000000000000000000000000000\n    /* \"#utility.yul\":157:158   */\n  0x00\n    /* \"#utility.yul\":150:238   */\n  mstore\n    /* \"#utility.yul\":257:261   */\n  0x41\n    /* \"#utility.yul\":254:255   */\n  0x04\n    /* \"#utility.yul\":247:262   */\n  mstore\n    /* \"#utility.yul\":281:285   */\n  0x24\n    /* \"#utility.yul\":278:279   */\n  0x00\n    /* \"#utility.yul\":271:286   */\n  revert\n    /* \"#utility.yul\":298:478   */\ntag_7:\n    /* \"#utility.yul\":346:423   */\n  0x4e487b7100000000000000000000000000000000000000000000000000000000\n    /* \"#utility.yul\":343:344   */\n  0x00\n    /* \"#utility.yul\":336:424   */\n  mstore\n    /* \"#utility.yul\":443:447   */\n  0x22\n    /* \"#utility.yul\":440:441   */\n  0x04\n    /* \"#utility.yul\":433:448   */\n  mstore\n    /* \"#utility.yul\":467:471   */\n  0x24\n    /* \"#utility.yul\":464:465   */\n  0x00\n    /* \"#utility.yul\":457:472   */\n  revert\n    /* \"#utility.yul\":484:804   */\ntag_8:\n    /* \"#utility.yul\":528:534   */\n  0x00\n    /* \"#utility.yul\":565:566   */\n  0x02\n    /* \"#utility.yul\":559:563   */\n  dup3\n    /* \"#utility.yul\":555:567   */\n  div\n    /* \"#utility.yul\":545:567   */\n  swap1\n  pop\n    /* \"#utility.yul\":612:613   */\n  0x01\n    /* \"#utility.yul\":606:610   */\n  dup3\n    /* \"#utility.yul\":602:614   */\n  and\n    /* \"#utility.yul\":633:651   */\n  dup1\n    /* \"#utility.yul\":623:704   */\n  tag_30\n  jumpi\n    /* \"#utility.yul\":689:693   */\n  0x7f\n    /* \"#utility.yul\":681:687   */\n  dup3\n    /* \"#utility.yul\":677:694   */\n  and\n    /* \"#utility.yul\":667:694   */\n  swap2\n  pop\n    /* \"#utility.yul\":623:704   */\ntag_30:\n    /* \"#utility.yul\":751:753   */\n  0x20\n    /* \"#utility.yul\":743:749   */\n  dup3\n    /* \"#utility.yul\":740:754   */\n  lt\n    /* \"#utility.yul\":720:738   */\n  dup2\n    /* \"#utility.yul\":717:755   */\n  sub\n    /* \"#utility.yul\":714:798   */\n  tag_31\n  jumpi\n    /* \"#utility.yul\":770:788   */\n  tag_32\n  tag_7\n  jump\t// in\ntag_32:\n    /* \"#utility.yul\":714:798   */\ntag_31:\n    /* \"#utility.yul\":535:804   */\n  pop\n    /* \"#utility.yul\":484:804   */\n  swap2\n  swap1\n  pop\n  jump\t// out\n    /* \"#utility.yul\":810:951   */\ntag_9:\n    /* \"#utility.yul\":859:863   */\n  0x00\n    /* \"#utility.yul\":882:885   */\n  dup2\n    /* \"#utility.yul\":874:885   */\n  swap1\n  pop\n    /* \"#utility.yul\":905:908   */\n  dup2\n    /* \"#utility.yul\":902:903   */\n  0x00\n    /* \"#utility.yul\":895:909   */\n  mstore\n    /* \"#utility.yul\":939:943   */\n  0x20\n    /* \"#utility.yul\":936:937   */\n  0x00\n    /* \"#utility.yul\":926:944   */\n  keccak256\n    /* \"#utility.yul\":918:944   */\n  swap1\n  pop\n    /* \"#utility.yul\":810:951   */\n  swap2\n  swap1\n  pop\n  jump\t// out\n    /* \"#utility.yul\":957:1050   */\ntag_10:\n    /* \"#utility.yul\":994:1000   */\n  0x00\n    /* \"#utility.yul\":1041:1043   */\n  0x20\n    /* \"#utility.yul\":1036:1038   */\n  0x1f\n    /* \"#utility.yul\":1029:1034   */\n  dup4\n    /* \"#utility.yul\":1025:1039   */\n  add\n    /* \"#utility.yul\":1021:1044   */\n  div\n    /* \"#utility.yul\":1011:1044   */\n  swap1\n  pop\n    /* \"#utility.yul\":957:1050   */\n  swap2\n  swap1\n  pop\n  jump\t// out\n    /* \"#utility.yul\":1056:1163   */\ntag_11:\n    /* \"#utility.yul\":1100:1108   */\n  0x00\n    /* \"#utility.yul\":1150:1155   */\n  dup3\n    /* \"#utility.yul\":1144:1148   */\n  dup3\n    /* \"#utility.yul\":1140:1156   */\n  shl\n    /* \"#utility.yul\":1119:1156   */\n  swap1\n  pop\n    /* \"#utility.yul\":1056:1163   */\n  swap3\n  swap2\n  pop\n  pop\n  jump\t// out\n    /* \"#utility.yul\":1169:1562   */\ntag_12:\n    /* \"#utility.yul\":1238:1244   */\n  0x00\n    /* \"#utility.yul\":1288:1289   */\n  0x08\n    /* \"#utility.yul\":1276:1286   */\n  dup4\n    /* \"#utility.yul\":1272:1290   */\n  mul\n    /* \"#utility.yul\":1311:1408   */\n  tag_37\n    /* \"#utility.yul\":1341:1407   */\n  0xffffffffffffffffffffffffffffffffffffffffffffffffffffffffffffffff\n    /* \"#utility.yul\":1330:1339   */\n  dup3\n    /* \"#utility.yul\":1311:1408   */\n  tag_11\n  jump\t// in\ntag_37:\n    /* \"#utility.yul\":1429:1468   */\n  tag_38\n    /* \"#utility.yul\":1459:1467   */\n  dup7\n    /* \"#utility.yul\":1448:1457   */\n  dup4\n    /* \"#utility.yul\":1429:1468   */\n  tag_11\n  jump\t// in\ntag_38:\n    /* \"#utility.yul\":1417:1468   */\n  swap6\n  pop\n    /* \"#utility.yul\":1501:1505   */\n  dup1\n    /* \"#utility.yul\":1497:1506   */\n  not\n    /* \"#utility.yul\":1490:1495   */\n  dup5\n    /* \"#utility.yul\":1486:1507   */\n  and\n    /* \"#utility.yul\":1477:1507   */\n  swap4\n  pop\n    /* \"#utility.yul\":1550:1554   */\n  dup1\n    /* \"#utility.yul\":1540:1548   */\n  dup7\n    /* \"#utility.yul\":1536:1555   */\n  and\n    /* \"#utility.yul\":1529:1534   */\n  dup5\n    /* \"#utility.yul\":1526:1556   */\n  or\n    /* \"#utility.yul\":1516:1556   */\n  swap3\n  pop\n    /* \"#utility.yul\":1245:1562   */\n  pop\n  pop\n    /* \"#utility.yul\":1169:1562   */\n  swap4\n  swap3\n  pop\n  pop\n  pop\n  jump\t// out\n    /* \"#utility.yul\":1568:1645   */\ntag_13:\n    /* \"#utility.yul\":1605:1612   */\n  0x00\n    /* \"#utility.yul\":1634:1639   */\n  dup2\n    /* \"#utility.yul\":1623:1639   */\n  swap1\n  pop\n    /* \"#utility.yul\":1568:1645   */\n  swap2\n  swap1\n  pop\n  jump\t// out\n    /* \"#utility.yul\":1651:1711   */\ntag_14:\n    /* \"#utility.yul\":1679:1682   */\n  0x00\n    /* \"#utility.yul\":1700:1705   */\n  dup2\n    /* \"#utility.yul\":1693:1705   */\n  swap1\n  pop\n    /* \"#utility.yul\":1651:1711   */\n  swap2\n  swap1\n  pop\n  jump\t// out\n    /* \"#utility.yul\":1717:1859   */\ntag_15:\n    /* \"#utility.yul\":1767:1776   */\n  0x00\n    /* \"#utility.yul\":1800:1853   */\n  tag_42\n    /* \"#utility.yul\":1818:1852   */\n  tag_43\n    /* \"#utility.yul\":1827:1851   */\n  tag_44\n    /* \"#utility.yul\":1845:1850   */\n  dup5\n    /* \"#utility.yul\":1827:1851   */\n  tag_13\n  jump\t// in\ntag_44:\n    /* \"#utility.yul\":1818:1852   */\n  tag_14\n  jump\t// in\ntag_43:\n    /* \"#utility.yul\":1800:1853   */\n  tag_13\n  jump\t// in\ntag_42:\n    /* \"#utility.yul\":1787:1853   */\n  swap1\n  pop\n    /* \"#utility.yul\":1717:1859   */\n  swap2\n  swap1\n  pop\n  jump\t// out\n    /* \"#utility.yul\":1865:1940   */\ntag_16:\n    /* \"#utility.yul\":1908:1911   */\n  0x00\n    /* \"#utility.yul\":1929:1934   */\n  dup2\n    /* \"#utility.yul\":1922:1934   */\n  swap1\n  pop\n    /* \"#utility.yul\":1865:1940   */\n  swap2\n  swap1\n  pop\n  jump\t// out\n    /* \"#utility.yul\":1946:2215   */\ntag_17:\n    /* \"#utility.yul\":2056:2095   */\n  tag_47\n    /* \"#utility.yul\":2087:2094   */\n  dup4\n    /* \"#utility.yul\":2056:2095   */\n  tag_15\n  jump\t// in\ntag_47:\n    /* \"#utility.yul\":2117:2208   */\n  tag_48\n    /* \"#utility.yul\":2166:2207   */\n  tag_49\n    /* \"#utility.yul\":2190:2206   */\n  dup3\n    /* \"#utility.yul\":2166:2207   */\n  tag_16\n  jump\t// in\ntag_49:\n    /* \"#utility.yul\":2158:2164   */\n  dup5\n    /* \"#utility.yul\":2151:2155   */\n  dup5\n    /* \"#utility.yul\":2145:2156   */\n  sload\n    /* \"#utility.yul\":2117:2208   */\n  tag_12\n  jump\t// in\ntag_48:\n    /* \"#utility.yul\":2111:2115   */\n  dup3\n    /* \"#utility.yul\":2104:2209   */\n  sstore\n    /* \"#utility.yul\":2022:2215   */\n  pop\n    /* \"#utility.yul\":1946:2215   */\n  pop\n  pop\n  pop\n  jump\t// out\n    /* \"#utility.yul\":2221:2294   */\ntag_18:\n    /* \"#utility.yul\":2266:2269   */\n  0x00\n    /* \"#utility.yul\":2221:2294   */\n  swap1\n  jump\t// out\n    /* \"#utility.yul\":2300:2489   */\ntag_19:\n    /* \"#utility.yul\":2377:2409   */\n  tag_52\n  tag_18\n  jump\t// in\ntag_52:\n    /* \"#utility.yul\":2418:2483   */\n  tag_53\n    /* \"#utility.yul\":2476:2482   */\n  dup2\n    /* \"#utility.yul\":2468:2474   */\n  dup5\n    /* \"#utility.yul\":2462:2466   */\n  dup5\n    /* \"#utility.yul\":2418:2483   */\n  tag_17\n  jump\t// in\ntag_53:\n    /* \"#utility.yul\":2353:2489   */\n  pop\n    /* \"#utility.yul\":2300:2489   */\n  pop\n  pop\n  jump\t// out\n    /* \"#utility.yul\":2495:2681   */\ntag_20:\n    /* \"#utility.yul\":2555:2675   */\ntag_55:\n    /* \"#utility.yul\":2572:2575   */\n  dup2\n    /* \"#utility.yul\":2565:2570   */\n  dup2\n    /* \"#utility.yul\":2562:2576   */\n  lt\n    /* \"#utility.yul\":2555:2675   */\n  iszero\n  tag_57\n  jumpi\n    /* \"#utility.yul\":2626:2665   */\n  tag_58\n    /* \"#utility.yul\":2663:2664   */\n  0x00\n    /* \"#utility.yul\":2656:2661   */\n  dup3\n    /* \"#utility.yul\":2626:2665   */\n  tag_19\n  jump\t// in\ntag_58:\n    /* \"#utility.yul\":2599:2600   */\n  0x01\n    /* \"#utility.yul\":2592:2597   */\n  dup2\n    /* \"#utility.yul\":2588:2601   */\n  add\n    /* \"#utility.yul\":2579:2601   */\n  swap1\n  pop\n    /* \"#utility.yul\":2555:2675   */\n  jump(tag_55)\ntag_57:\n    /* \"#utility.yul\":2495:2681   */\n  pop\n  pop\n  jump\t// out\n    /* \"#utility.yul\":2687:3230   */\ntag_21:\n    /* \"#utility.yul\":2788:2790   */\n  0x1f\n    /* \"#utility.yul\":2783:2786   */\n  dup3\n    /* \"#utility.yul\":2780:2791   */\n  gt\n    /* \"#utility.yul\":2777:3223   */\n  iszero\n  tag_60\n  jumpi\n    /* \"#utility.yul\":2822:2860   */\n  tag_61\n    /* \"#utility.yul\":2854:2859   */\n  dup2\n    /* \"#utility.yul\":2822:2860   */\n  tag_9\n  jump\t// in\ntag_61:\n    /* \"#utility.yul\":2906:2935   */\n  tag_62\n    /* \"#utility.yul\":2924:2934   */\n  dup5\n    /* \"#utility.yul\":2906:2935   */\n  tag_10\n  jump\t// in\ntag_62:\n    /* \"#utility.yul\":2896:2904   */\n  dup2\n    /* \"#utility.yul\":2892:2936   */\n  add\n    /* \"#utility.yul\":3089:3091   */\n  0x20\n    /* \"#utility.yul\":3077:3087   */\n  dup6\n    /* \"#utility.yul\":3074:3092   */\n  lt\n    /* \"#utility.yul\":3071:3120   */\n  iszero\n  tag_63\n  jumpi\n    /* \"#utility.yul\":3110:3118   */\n  dup2\n    /* \"#utility.yul\":3095:3118   */\n  swap1\n  pop\n    /* \"#utility.yul\":3071:3120   */\ntag_63:\n    /* \"#utility.yul\":3133:3213   */\n  tag_64\n    /* \"#utility.yul\":3189:3211   */\n  tag_65\n    /* \"#utility.yul\":3207:3210   */\n  dup6\n    /* \"#utility.yul\":3189:3211   */\n  tag_10\n  jump\t// in\ntag_65:\n    /* \"#utility.yul\":3179:3187   */\n  dup4\n    /* \"#utility.yul\":3175:3212   */\n  add\n    /* \"#utility.yul\":3162:3173   */\n  dup3\n    /* \"#utility.yul\":3133:3213   */\n  tag_20\n  jump\t// in\ntag_64:\n    /* \"#utility.yul\":2792:3223   */\n  pop\n  pop\n    /* \"#utility.yul\":2777:3223   */\ntag_60:\n    /* \"#utility.yul\":2687:3230   */\n  pop\n  pop\n  pop\n  jump\t// out\n    /* \"#utility.yul\":3236:3353   */\ntag_22:\n    /* \"#utility.yul\":3290:3298   */\n  0x00\n    /* \"#utility.yul\":3340:3345   */\n  dup3\n    /* \"#utility.yul\":3334:3338   */\n  dup3\n    /* \"#utility.yul\":3330:3346   */\n  shr\n    /* \"#utility.yul\":3309:3346   */\n  swap1\n  pop\n    /* \"#utility.yul\":3236:3353   */\n  swap3\n  swap2\n  pop\n  pop\n  jump\t// out\n    /* \"#utility.yul\":3359:3528   */\ntag_23:\n    /* \"#utility.yul\":3403:3409   */\n  0x00\n    /* \"#utility.yul\":3436:3487   */\n  tag_68\n    /* \"#utility.yul\":3484:3485   */\n  0x00\n    /* \"#utility.yul\":3480:3486   */\n  not\n    /* \"#utility.yul\":3472:3477   */\n  dup5\n    /* \"#utility.yul\":3469:3470   */\n  0x08\n    /* \"#utility.yul\":3465:3478   */\n  mul\n    /* \"#utility.yul\":3436:3487   */\n  tag_22\n  jump\t// in\ntag_68:\n    /* \"#utility.yul\":3432:3488   */\n  not\n    /* \"#utility.yul\":3517:3521   */\n  dup1\n    /* \"#utility.yul\":3511:3515   */\n  dup4\n    /* \"#utility.yul\":3507:3522   */\n  and\n    /* \"#utility.yul\":3497:3522   */\n  swap2\n  pop\n    /* \"#utility.yul\":3410:3528   */\n  pop\n    /* \"#utility.yul\":3359:3528   */\n  swap3\n  swap2\n  pop\n  pop\n  jump\t// out\n    /* \"#utility.yul\":3533:3828   */\ntag_24:\n    /* \"#utility.yul\":3609:3613   */\n  0x00\n    /* \"#utility.yul\":3755:3784   */\n  tag_70\n    /* \"#utility.yul\":3780:3783   */\n  dup4\n    /* \"#utility.yul\":3774:3778   */\n  dup4\n    /* \"#utility.yul\":3755:3784   */\n  tag_23\n  jump\t// in\ntag_70:\n    /* \"#utility.yul\":3747:3784   */\n  swap2\n  pop\n    /* \"#utility.yul\":3817:3820   */\n  dup3\n    /* \"#utility.yul\":3814:3815   */\n  0x02\n    /* \"#utility.yul\":3810:3821   */\n  mul\n    /* \"#utility.yul\":3804:3808   */\n  dup3\n    /* \"#utility.yul\":3801:3822   */\n  or\n    /* \"#utility.yul\":3793:3822   */\n  swap1\n  pop\n    /* \"#utility.yul\":3533:3828   */\n  swap3\n  swap2\n  pop\n  pop\n  jump\t// out\n    /* \"#utility.yul\":3833:5228   */\ntag_2:\n    /* \"#utility.yul\":3950:3987   */\n  tag_72\n    /* \"#utility.yul\":3983:3986   */\n  dup3\n    /* \"#utility.yul\":3950:3987   */\n  tag_5\n  jump\t// in\ntag_72:\n    /* \"#utility.yul\":4052:4070   */\n  0xffffffffffffffff\n    /* \"#utility.yul\":4044:4050   */\n  dup2\n    /* \"#utility.yul\":4041:4071   */\n  gt\n    /* \"#utility.yul\":4038:4094   */\n  iszero\n  tag_73\n  jumpi\n    /* \"#utility.yul\":4074:4092   */\n  tag_74\n  tag_6\n  jump\t// in\ntag_74:\n    /* \"#utility.yul\":4038:4094   */\ntag_73:\n    /* \"#utility.yul\":4118:4156   */\n  tag_75\n    /* \"#utility.yul\":4150:4154   */\n  dup3\n    /* \"#utility.yul\":4144:4155   */\n  sload\n    /* \"#utility.yul\":4118:4156   */\n  tag_8\n  jump\t// in\ntag_75:\n    /* \"#utility.yul\":4203:4270   */\n  tag_76\n    /* \"#utility.yul\":4263:4269   */\n  dup3\n    /* \"#utility.yul\":4255:4261   */\n  dup3\n    /* \"#utility.yul\":4249:4253   */\n  dup6\n    /* \"#utility.yul\":4203:4270   */\n  tag_21\n  jump\t// in\ntag_76:\n    /* \"#utility.yul\":4297:4298   */\n  0x00\n    /* \"#utility.yul\":4321:4325   */\n  0x20\n    /* \"#utility.yul\":4308:4325   */\n  swap1\n  pop\n    /* \"#utility.yul\":4353:4355   */\n  0x1f\n    /* \"#utility.yul\":4345:4351   */\n  dup4\n    /* \"#utility.yul\":4342:4356   */\n  gt\n    /* \"#utility.yul\":4370:4371   */\n  0x01\n    /* \"#utility.yul\":4365:4983   */\n  dup2\n  eq\n  tag_78\n  jumpi\n    /* \"#utility.yul\":5027:5028   */\n  0x00\n    /* \"#utility.yul\":5044:5050   */\n  dup5\n    /* \"#utility.yul\":5041:5118   */\n  iszero\n  tag_79\n  jumpi\n    /* \"#utility.yul\":5093:5102   */\n  dup3\n    /* \"#utility.yul\":5088:5091   */\n  dup8\n    /* \"#utility.yul\":5084:5103   */\n  add\n    /* \"#utility.yul\":5078:5104   */\n  mload\n    /* \"#utility.yul\":5069:5104   */\n  swap1\n  pop\n    /* \"#utility.yul\":5041:5118   */\ntag_79:\n    /* \"#utility.yul\":5144:5211   */\n  tag_80\n    /* \"#utility.yul\":5204:5210   */\n  dup6\n    /* \"#utility.yul\":5197:5202   */\n  dup3\n    /* \"#utility.yul\":5144:5211   */\n  tag_24\n  jump\t// in\ntag_80:\n    /* \"#utility.yul\":5138:5142   */\n  dup7\n    /* \"#utility.yul\":5131:5212   */\n  sstore\n    /* \"#utility.yul\":5000:5222   */\n  pop\n    /* \"#utility.yul\":4335:5222   */\n  jump(tag_77)\n    /* \"#utility.yul\":4365:4983   */\ntag_78:\n    /* \"#utility.yul\":4417:4421   */\n  0x1f\n    /* \"#utility.yul\":4413:4422   */\n  not\n    /* \"#utility.yul\":4405:4411   */\n  dup5\n    /* \"#utility.yul\":4401:4423   */\n  and\n    /* \"#utility.yul\":4451:4488   */\n  tag_81\n    /* \"#utility.yul\":4483:4487   */\n  dup7\n    /* \"#utility.yul\":4451:4488   */\n  tag_9\n  jump\t// in\ntag_81:\n    /* \"#utility.yul\":4510:4511   */\n  0x00\n    /* \"#utility.yul\":4524:4732   */\ntag_82:\n    /* \"#utility.yul\":4538:4545   */\n  dup3\n    /* \"#utility.yul\":4535:4536   */\n  dup2\n    /* \"#utility.yul\":4532:4546   */\n  lt\n    /* \"#utility.yul\":4524:4732   */\n  iszero\n  tag_84\n  jumpi\n    /* \"#utility.yul\":4617:4626   */\n  dup5\n    /* \"#utility.yul\":4612:4615   */\n  dup10\n    /* \"#utility.yul\":4608:4627   */\n  add\n    /* \"#utility.yul\":4602:4628   */\n  mload\n    /* \"#utility.yul\":4594:4600   */\n  dup3\n    /* \"#utility.yul\":4587:4629   */\n  sstore\n    /* \"#utility.yul\":4668:4669   */\n  0x01\n    /* \"#utility.yul\":4660:4666   */\n  dup3\n    /* \"#utility.yul\":4656:4670   */\n  add\n    /* \"#utility.yul\":4646:4670   */\n  swap2\n  pop\n    /* \"#utility.yul\":4715:4717   */\n  0x20\n    /* \"#utility.yul\":4704:4713   */\n  dup6\n    /* \"#utility.yul\":4700:4718   */\n  add\n    /* \"#utility.yul\":4687:4718   */\n  swap5\n  pop\n    /* \"#utility.yul\":4561:4565   */\n  0x20\n    /* \"#utility.yul\":4558:4559   */\n  dup2\n    /* \"#utility.yul\":4554:4566   */\n  add\n    /* \"#utility.yul\":4549:4566   */\n  swap1\n  pop\n    /* \"#utility.yul\":4524:4732   */\n  jump(tag_82)\ntag_84:\n    /* \"#utility.yul\":4760:4766   */\n  dup7\n    /* \"#utility.yul\":4751:4758   */\n  dup4\n    /* \"#utility.yul\":4748:4767   */\n  lt\n    /* \"#utility.yul\":4745:4924   */\n  iszero\n  tag_85\n  jumpi\n    /* \"#utility.yul\":4818:4827   */\n  dup5\n    /* \"#utility.yul\":4813:4816   */\n  dup10\n    /* \"#utility.yul\":4809:4828   */\n  add\n    /* \"#utility.yul\":4803:4829   */\n  mload\n    /* \"#utility.yul\":4861:4909   */\n  tag_86\n    /* \"#utility.yul\":4903:4907   */\n  0x1f\n    /* \"#utility.yul\":4895:4901   */\n  dup10\n    /* \"#utility.yul\":4891:4908   */\n  and\n    /* \"#utility.yul\":4880:4889   */\n  dup3\n    /* \"#utility.yul\":4861:4909   */\n  tag_23\n  jump\t// in\ntag_86:\n    /* \"#utility.yul\":4853:4859   */\n  dup4\n    /* \"#utility.yul\":4846:4910   */\n  sstore\n    /* \"#utility.yul\":4768:4924   */\n  pop\n    /* \"#utility.yul\":4745:4924   */\ntag_85:\n    /* \"#utility.yul\":4970:4971   */\n  0x01\n    /* \"#utility.yul\":4966:4967   */\n  0x02\n    /* \"#utility.yul\":4958:4964   */\n  dup9\n    /* \"#utility.yul\":4954:4968   */\n  mul\n    /* \"#utility.yul\":4950:4972   */\n  add\n    /* \"#utility.yul\":4944:4948   */\n  dup9\n    /* \"#utility.yul\":4937:4973   */\n  sstore\n    /* \"#utility.yul\":4372:4983   */\n  pop\n  pop\n  pop\n    /* \"#utility.yul\":4335:5222   */\ntag_77:\n  pop\n    /* \"#utility.yul\":3925:5228   */\n  pop\n  pop\n  pop\n    /* \"#utility.yul\":3833:5228   */\n  pop\n  pop\n  jump\t// out\n    /* \"contracts/hello.sol\":70:1100  contract HelloWolrd {... */\ntag_4:\n  dataSize(sub_0)\n  dup1\n  dataOffset(sub_0)\n  0x00\n  codecopy\n  0x00\n  return\nstop\n\nsub_0: assembly {\n        /* \"contracts/hello.sol\":70:1100  contract HelloWolrd {... */\n      mstore(0x40, 0x80)\n      jumpi(tag_1, lt(calldatasize, 0x04))\n      shr(0xe0, calldataload(0x00))\n      dup1\n      0x42257b31\n      eq\n      tag_2\n      jumpi\n      dup1\n      0xb60d4288\n      eq\n      tag_3\n      jumpi\n      dup1\n      0xfc0574e4\n      eq\n      tag_4\n      jumpi\n    tag_1:\n      0x00\n      dup1\n      revert\n        /* \"contracts/hello.sol\":397:622  function sayHello(uint256 _id) public view returns (string memory) {... */\n    tag_2:\n      callvalue\n      dup1\n      iszero\n      tag_5\n      jumpi\n      0x00\n      dup1\n      revert\n    tag_5:\n      pop\n      tag_6\n      0x04\n      dup1\n      calldatasize\n      sub\n      dup2\n      add\n      swap1\n      tag_7\n      swap2\n      swap1\n      tag_8\n      jump\t// in\n    tag_7:\n      tag_9\n      jump\t// in\n    tag_6:\n      mload(0x40)\n      tag_10\n      swap2\n      swap1\n      tag_11\n      jump\t// in\n    tag_10:\n      mload(0x40)\n      dup1\n      swap2\n      sub\n      swap1\n      return\n        /* \"contracts/hello.sol\":1015:1098  function fund () payable public returns (uint256) {... */\n    tag_3:\n      tag_12\n      tag_13\n      jump\t// in\n    tag_12:\n      mload(0x40)\n      tag_14\n      swap2\n      swap1\n      tag_15\n      jump\t// in\n    tag_14:\n      mload(0x40)\n      dup1\n      swap2\n      sub\n      swap1\n      return\n        /* \"contracts/hello.sol\":628:788  function setHello(uint256 _id, string memory _phrase) public {... */\n    tag_4:\n      callvalue\n      dup1\n      iszero\n      tag_16\n      jumpi\n      0x00\n      dup1\n      revert\n    tag_16:\n      pop\n      tag_17\n      0x04\n      dup1\n      calldatasize\n      sub\n      dup2\n      add\n      swap1\n      tag_18\n      swap2\n      swap1\n      tag_19\n      jump\t// in\n    tag_18:\n      tag_20\n      jump\t// in\n    tag_17:\n      stop\n        /* \"contracts/hello.sol\":397:622  function sayHello(uint256 _id) public view returns (string memory) {... */\n    tag_9:\n        /* \"contracts/hello.sol\":449:462  string memory */\n      0x60\n        /* \"contracts/hello.sol\":511:514  0x0 */\n      0x00\n        /* \"contracts/hello.sol\":478:515  infoMapping[_id].addr == address(0x0) */\n      0xffffffffffffffffffffffffffffffffffffffff\n      and\n        /* \"contracts/hello.sol\":478:489  infoMapping */\n      0x00\n        /* \"contracts/hello.sol\":478:494  infoMapping[_id] */\n      dup1\n        /* \"contracts/hello.sol\":490:493  _id */\n      dup5\n        /* \"contracts/hello.sol\":478:494  infoMapping[_id] */\n      dup2\n      mstore\n      0x20\n      add\n      swap1\n      dup2\n      mstore\n      0x20\n      add\n      0x00\n      keccak256\n        /* \"contracts/hello.sol\":478:499  infoMapping[_id].addr */\n      0x02\n      add\n      0x00\n      swap1\n      sload\n      swap1\n      0x0100\n      exp\n      swap1\n      div\n      0xffffffffffffffffffffffffffffffffffffffff\n      and\n        /* \"contracts/hello.sol\":478:515  infoMapping[_id].addr == address(0x0) */\n      0xffffffffffffffffffffffffffffffffffffffff\n      and\n      sub\n        /* \"contracts/hello.sol\":474:567  if (infoMapping[_id].addr == address(0x0)) {... */\n      tag_22\n      jumpi\n        /* \"contracts/hello.sol\":538:556  addinfo(varString) */\n      tag_23\n        /* \"contracts/hello.sol\":546:555  varString */\n      0x01\n        /* \"contracts/hello.sol\":538:556  addinfo(varString) */\n      dup1\n      sload\n      tag_24\n      swap1\n      tag_25\n      jump\t// in\n    tag_24:\n      dup1\n      0x1f\n      add\n      0x20\n      dup1\n      swap2\n      div\n      mul\n      0x20\n      add\n      mload(0x40)\n      swap1\n      dup2\n      add\n      0x40\n      mstore\n      dup1\n      swap3\n      swap2\n      swap1\n      dup2\n      dup2\n      mstore\n      0x20\n      add\n      dup3\n      dup1\n      sload\n      tag_26\n      swap1\n      tag_25\n      jump\t// in\n    tag_26:\n      dup1\n      iszero\n      tag_27\n      jumpi\n      dup1\n      0x1f\n      lt\n      tag_28\n      jumpi\n      0x0100\n      dup1\n      dup4\n      sload\n      div\n      mul\n      dup4\n      mstore\n      swap2\n      0x20\n      add\n      swap2\n      jump(tag_27)\n    tag_28:\n      dup3\n      add\n      swap2\n      swap1\n      0x00\n      mstore\n      keccak256(0x00, 0x20)\n      swap1\n    tag_29:\n      dup2\n      sload\n      dup2\n      mstore\n      swap1\n      0x01\n      add\n      swap1\n      0x20\n      add\n      dup1\n      dup4\n      gt\n      tag_29\n      jumpi\n      dup3\n      swap1\n      sub\n      0x1f\n      and\n      dup3\n      add\n      swap2\n    tag_27:\n      pop\n      pop\n      pop\n      pop\n      pop\n        /* \"contracts/hello.sol\":538:545  addinfo */\n      tag_30\n        /* \"contracts/hello.sol\":538:556  addinfo(varString) */\n      jump\t// in\n    tag_23:\n        /* \"contracts/hello.sol\":531:556  return addinfo(varString) */\n      swap1\n      pop\n      jump(tag_21)\n        /* \"contracts/hello.sol\":474:567  if (infoMapping[_id].addr == address(0x0)) {... */\n    tag_22:\n        /* \"contracts/hello.sol\":583:615  addinfo(infoMapping[_id].phrase) */\n      tag_31\n        /* \"contracts/hello.sol\":591:602  infoMapping */\n      0x00\n        /* \"contracts/hello.sol\":591:607  infoMapping[_id] */\n      dup1\n        /* \"contracts/hello.sol\":603:606  _id */\n      dup5\n        /* \"contracts/hello.sol\":591:607  infoMapping[_id] */\n      dup2\n      mstore\n      0x20\n      add\n      swap1\n      dup2\n      mstore\n      0x20\n      add\n      0x00\n      keccak256\n        /* \"contracts/hello.sol\":591:614  infoMapping[_id].phrase */\n      0x01\n      add\n        /* \"contracts/hello.sol\":583:615  addinfo(infoMapping[_id].phrase) */\n      dup1\n      sload\n      tag_32\n      swap1\n      tag_25\n      jump\t// in\n    tag_32:\n      dup1\n      0x1f\n      add\n      0x20\n      dup1\n      swap2\n      div\n      mul\n      0x20\n      add\n      mload(0x40)\n      swap1\n      dup2\n      add\n      0x40\n      mstore\n      dup1\n      swap3\n      swap2\n      swap1\n      dup2\n      dup2\n      mstore\n      0x20\n      add\n      dup3\n      dup1\n      sload\n      tag_33\n      swap1\n      tag_25\n      jump\t// in\n    tag_33:\n      dup1\n      iszero\n      tag_34\n      jumpi\n      dup1\n      0x1f\n      lt\n      tag_35\n      jumpi\n      0x0100\n      dup1\n      dup4\n      sload\n      div\n      mul\n      dup4\n      mstore\n      swap2\n      0x20\n      add\n      swap2\n      jump(tag_34)\n    tag_35:\n      dup3\n      add\n      swap2\n      swap1\n      0x00\n      mstore\n      keccak256(0x00, 0x20)\n      swap1\n    tag_36:\n      dup2\n      sload\n      dup2\n      mstore\n      swap1\n      0x01\n      add\n      swap1\n      0x20\n      add\n      dup1\n      dup4\n      gt\n      tag_36\n      jumpi\n      dup3\n      swap1\n      sub\n      0x1f\n      and\n      dup3\n      add\n      swap2\n    tag_34:\n      pop\n      pop\n      pop\n      pop\n      pop\n        /* \"contracts/hello.sol\":583:590  addinfo */\n      tag_30\n        /* \"contracts/hello.sol\":583:615  addinfo(infoMapping[_id].phrase) */\n      jump\t// in\n    tag_31:\n        /* \"contracts/hello.sol\":576:615  return addinfo(infoMapping[_id].phrase) */\n      swap1\n      pop\n        /* \"contracts/hello.sol\":397:622  function sayHello(uint256 _id) public view returns (string memory) {... */\n    tag_21:\n      swap2\n      swap1\n      pop\n      jump\t// out\n        /* \"contracts/hello.sol\":1015:1098  function fund () payable public returns (uint256) {... */\n    tag_13:\n        /* \"contracts/hello.sol\":1056:1063  uint256 */\n      0x00\n        /* \"contracts/hello.sol\":1082:1091  msg.value */\n      callvalue\n        /* \"contracts/hello.sol\":1075:1091  return msg.value */\n      swap1\n      pop\n        /* \"contracts/hello.sol\":1015:1098  function fund () payable public returns (uint256) {... */\n      swap1\n      jump\t// out\n        /* \"contracts/hello.sol\":628:788  function setHello(uint256 _id, string memory _phrase) public {... */\n    tag_20:\n        /* \"contracts/hello.sol\":699:715  Info memory info */\n      0x00\n        /* \"contracts/hello.sol\":718:748  Info(_id, _phrase, msg.sender) */\n      mload(0x40)\n      dup1\n      0x60\n      add\n      0x40\n      mstore\n      dup1\n        /* \"contracts/hello.sol\":723:726  _id */\n      dup5\n        /* \"contracts/hello.sol\":718:748  Info(_id, _phrase, msg.sender) */\n      dup2\n      mstore\n      0x20\n      add\n        /* \"contracts/hello.sol\":728:735  _phrase */\n      dup4\n        /* \"contracts/hello.sol\":718:748  Info(_id, _phrase, msg.sender) */\n      dup2\n      mstore\n      0x20\n      add\n        /* \"contracts/hello.sol\":737:747  msg.sender */\n      caller\n        /* \"contracts/hello.sol\":718:748  Info(_id, _phrase, msg.sender) */\n      0xffffffffffffffffffffffffffffffffffffffff\n      and\n      dup2\n      mstore\n      pop\n        /* \"contracts/hello.sol\":699:748  Info memory info = Info(_id, _phrase, msg.sender) */\n      swap1\n      pop\n        /* \"contracts/hello.sol\":777:781  info */\n      dup1\n        /* \"contracts/hello.sol\":758:769  infoMapping */\n      0x00\n        /* \"contracts/hello.sol\":758:774  infoMapping[_id] */\n      dup1\n        /* \"contracts/hello.sol\":770:773  _id */\n      dup6\n        /* \"contracts/hello.sol\":758:774  infoMapping[_id] */\n      dup2\n      mstore\n      0x20\n      add\n      swap1\n      dup2\n      mstore\n      0x20\n      add\n      0x00\n      keccak256\n        /* \"contracts/hello.sol\":758:781  infoMapping[_id] = info */\n      0x00\n      dup3\n      add\n      mload\n      dup2\n      0x00\n      add\n      sstore\n      0x20\n      dup3\n      add\n      mload\n      dup2\n      0x01\n      add\n      swap1\n      dup2\n      tag_39\n      swap2\n      swap1\n      tag_40\n      jump\t// in\n    tag_39:\n      pop\n      0x40\n      dup3\n      add\n      mload\n      dup2\n      0x02\n      add\n      exp(0x0100, 0x00)\n      dup2\n      sload\n      dup2\n      0xffffffffffffffffffffffffffffffffffffffff\n      mul\n      not\n      and\n      swap1\n      dup4\n      0xffffffffffffffffffffffffffffffffffffffff\n      and\n      mul\n      or\n      swap1\n      sstore\n      pop\n      swap1\n      pop\n      pop\n        /* \"contracts/hello.sol\":689:788  {... */\n      pop\n        /* \"contracts/hello.sol\":628:788  function setHello(uint256 _id, string memory _phrase) public {... */\n      pop\n      pop\n      jump\t// out\n        /* \"contracts/hello.sol\":870:1009  function addinfo(string memory val) internal pure returns (string memory) {... */\n    tag_30:\n        /* \"contracts/hello.sol\":929:942  string memory */\n      0x60\n        /* \"contracts/hello.sol\":975:978  val */\n      dup2\n        /* \"contracts/hello.sol\":961:1002  string.concat(val, \": from Frank to Bob\") */\n      add(0x20, mload(0x40))\n      tag_42\n      swap2\n      swap1\n      tag_43\n      jump\t// in\n    tag_42:\n      mload(0x40)\n      0x20\n      dup2\n      dup4\n      sub\n      sub\n      dup2\n      mstore\n      swap1\n      0x40\n      mstore\n        /* \"contracts/hello.sol\":954:1002  return string.concat(val, \": from Frank to Bob\") */\n      swap1\n      pop\n        /* \"contracts/hello.sol\":870:1009  function addinfo(string memory val) internal pure returns (string memory) {... */\n      swap2\n      swap1\n      pop\n      jump\t// out\n        /* \"#utility.yul\":7:82   */\n    tag_44:\n        /* \"#utility.yul\":40:46   */\n      0x00\n        /* \"#utility.yul\":73:75   */\n      0x40\n        /* \"#utility.yul\":67:76   */\n      mload\n        /* \"#utility.yul\":57:76   */\n      swap1\n      pop\n        /* \"#utility.yul\":7:82   */\n      swap1\n      jump\t// out\n        /* \"#utility.yul\":88:205   */\n    tag_45:\n        /* \"#utility.yul\":197:198   */\n      0x00\n        /* \"#utility.yul\":194:195   */\n      dup1\n        /* \"#utility.yul\":187:199   */\n      revert\n        /* \"#utility.yul\":211:328   */\n    tag_46:\n        /* \"#utility.yul\":320:321   */\n      0x00\n        /* \"#utility.yul\":317:318   */\n      dup1\n        /* \"#utility.yul\":310:322   */\n      revert\n        /* \"#utility.yul\":334:411   */\n    tag_47:\n        /* \"#utility.yul\":371:378   */\n      0x00\n        /* \"#utility.yul\":400:405   */\n      dup2\n        /* \"#utility.yul\":389:405   */\n      swap1\n      pop\n        /* \"#utility.yul\":334:411   */\n      swap2\n      swap1\n      pop\n      jump\t// out\n        /* \"#utility.yul\":417:539   */\n    tag_48:\n        /* \"#utility.yul\":490:514   */\n      tag_90\n        /* \"#utility.yul\":508:513   */\n      dup2\n        /* \"#utility.yul\":490:514   */\n      tag_47\n      jump\t// in\n    tag_90:\n        /* \"#utility.yul\":483:488   */\n      dup2\n        /* \"#utility.yul\":480:515   */\n      eq\n        /* \"#utility.yul\":470:533   */\n      tag_91\n      jumpi\n        /* \"#utility.yul\":529:530   */\n      0x00\n        /* \"#utility.yul\":526:527   */\n      dup1\n        /* \"#utility.yul\":519:531   */\n      revert\n        /* \"#utility.yul\":470:533   */\n    tag_91:\n        /* \"#utility.yul\":417:539   */\n      pop\n      jump\t// out\n        /* \"#utility.yul\":545:684   */\n    tag_49:\n        /* \"#utility.yul\":591:596   */\n      0x00\n        /* \"#utility.yul\":629:635   */\n      dup2\n        /* \"#utility.yul\":616:636   */\n      calldataload\n        /* \"#utility.yul\":607:636   */\n      swap1\n      pop\n        /* \"#utility.yul\":645:678   */\n      tag_93\n        /* \"#utility.yul\":672:677   */\n      dup2\n        /* \"#utility.yul\":645:678   */\n      tag_48\n      jump\t// in\n    tag_93:\n        /* \"#utility.yul\":545:684   */\n      swap3\n      swap2\n      pop\n      pop\n      jump\t// out\n        /* \"#utility.yul\":690:1019   */\n    tag_8:\n        /* \"#utility.yul\":749:755   */\n      0x00\n        /* \"#utility.yul\":798:800   */\n      0x20\n        /* \"#utility.yul\":786:795   */\n      dup3\n        /* \"#utility.yul\":777:784   */\n      dup5\n        /* \"#utility.yul\":773:796   */\n      sub\n        /* \"#utility.yul\":769:801   */\n      slt\n        /* \"#utility.yul\":766:885   */\n      iszero\n      tag_95\n      jumpi\n        /* \"#utility.yul\":804:883   */\n      tag_96\n      tag_45\n      jump\t// in\n    tag_96:\n        /* \"#utility.yul\":766:885   */\n    tag_95:\n        /* \"#utility.yul\":924:925   */\n      0x00\n        /* \"#utility.yul\":949:1002   */\n      tag_97\n        /* \"#utility.yul\":994:1001   */\n      dup5\n        /* \"#utility.yul\":985:991   */\n      dup3\n        /* \"#utility.yul\":974:983   */\n      dup6\n        /* \"#utility.yul\":970:992   */\n      add\n        /* \"#utility.yul\":949:1002   */\n      tag_49\n      jump\t// in\n    tag_97:\n        /* \"#utility.yul\":939:1002   */\n      swap2\n      pop\n        /* \"#utility.yul\":895:1012   */\n      pop\n        /* \"#utility.yul\":690:1019   */\n      swap3\n      swap2\n      pop\n      pop\n      jump\t// out\n        /* \"#utility.yul\":1025:1124   */\n    tag_50:\n        /* \"#utility.yul\":1077:1083   */\n      0x00\n        /* \"#utility.yul\":1111:1116   */\n      dup2\n        /* \"#utility.yul\":1105:1117   */\n      mload\n        /* \"#utility.yul\":1095:1117   */\n      swap1\n      pop\n        /* \"#utility.yul\":1025:1124   */\n      swap2\n      swap1\n      pop\n      jump\t// out\n        /* \"#utility.yul\":1130:1299   */\n    tag_51:\n        /* \"#utility.yul\":1214:1225   */\n      0x00\n        /* \"#utility.yul\":1248:1254   */\n      dup3\n        /* \"#utility.yul\":1243:1246   */\n      dup3\n        /* \"#utility.yul\":1236:1255   */\n      mstore\n        /* \"#utility.yul\":1288:1292   */\n      0x20\n        /* \"#utility.yul\":1283:1286   */\n      dup3\n        /* \"#utility.yul\":1279:1293   */\n      add\n        /* \"#utility.yul\":1264:1293   */\n      swap1\n      pop\n        /* \"#utility.yul\":1130:1299   */\n      swap3\n      swap2\n      pop\n      pop\n      jump\t// out\n        /* \"#utility.yul\":1305:1444   */\n    tag_52:\n        /* \"#utility.yul\":1394:1400   */\n      dup3\n        /* \"#utility.yul\":1389:1392   */\n      dup2\n        /* \"#utility.yul\":1384:1387   */\n      dup4\n        /* \"#utility.yul\":1378:1401   */\n      mcopy\n        /* \"#utility.yul\":1435:1436   */\n      0x00\n        /* \"#utility.yul\":1426:1432   */\n      dup4\n        /* \"#utility.yul\":1421:1424   */\n      dup4\n        /* \"#utility.yul\":1417:1433   */\n      add\n        /* \"#utility.yul\":1410:1437   */\n      mstore\n        /* \"#utility.yul\":1305:1444   */\n      pop\n      pop\n      pop\n      jump\t// out\n        /* \"#utility.yul\":1450:1552   */\n    tag_53:\n        /* \"#utility.yul\":1491:1497   */\n      0x00\n        /* \"#utility.yul\":1542:1544   */\n      0x1f\n        /* \"#utility.yul\":1538:1545   */\n      not\n        /* \"#utility.yul\":1533:1535   */\n      0x1f\n        /* \"#utility.yul\":1526:1531   */\n      dup4\n        /* \"#utility.yul\":1522:1536   */\n      add\n        /* \"#utility.yul\":1518:1546   */\n      and\n        /* \"#utility.yul\":1508:1546   */\n      swap1\n      pop\n        /* \"#utility.yul\":1450:1552   */\n      swap2\n      swap1\n      pop\n      jump\t// out\n        /* \"#utility.yul\":1558:1935   */\n    tag_54:\n        /* \"#utility.yul\":1646:1649   */\n      0x00\n        /* \"#utility.yul\":1674:1713   */\n      tag_103\n        /* \"#utility.yul\":1707:1712   */\n      dup3\n        /* \"#utility.yul\":1674:1713   */\n      tag_50\n      jump\t// in\n    tag_103:\n        /* \"#utility.yul\":1729:1800   */\n      tag_104\n        /* \"#utility.yul\":1793:1799   */\n      dup2\n        /* \"#utility.yul\":1788:1791   */\n      dup6\n        /* \"#utility.yul\":1729:1800   */\n      tag_51\n      jump\t// in\n    tag_104:\n        /* \"#utility.yul\":1722:1800   */\n      swap4\n      pop\n        /* \"#utility.yul\":1809:1874   */\n      tag_105\n        /* \"#utility.yul\":1867:1873   */\n      dup2\n        /* \"#utility.yul\":1862:1865   */\n      dup6\n        /* \"#utility.yul\":1855:1859   */\n      0x20\n        /* \"#utility.yul\":1848:1853   */\n      dup7\n        /* \"#utility.yul\":1844:1860   */\n      add\n        /* \"#utility.yul\":1809:1874   */\n      tag_52\n      jump\t// in\n    tag_105:\n        /* \"#utility.yul\":1899:1928   */\n      tag_106\n        /* \"#utility.yul\":1921:1927   */\n      dup2\n        /* \"#utility.yul\":1899:1928   */\n      tag_53\n      jump\t// in\n    tag_106:\n        /* \"#utility.yul\":1894:1897   */\n      dup5\n        /* \"#utility.yul\":1890:1929   */\n      add\n        /* \"#utility.yul\":1883:1929   */\n      swap2\n      pop\n        /* \"#utility.yul\":1650:1935   */\n      pop\n        /* \"#utility.yul\":1558:1935   */\n      swap3\n      swap2\n      pop\n      pop\n      jump\t// out\n        /* \"#utility.yul\":1941:2254   */\n    tag_11:\n        /* \"#utility.yul\":2054:2058   */\n      0x00\n        /* \"#utility.yul\":2092:2094   */\n      0x20\n        /* \"#utility.yul\":2081:2090   */\n      dup3\n        /* \"#utility.yul\":2077:2095   */\n      add\n        /* \"#utility.yul\":2069:2095   */\n      swap1\n      pop\n        /* \"#utility.yul\":2141:2150   */\n      dup2\n        /* \"#utility.yul\":2135:2139   */\n      dup2\n        /* \"#utility.yul\":2131:2151   */\n      sub\n        /* \"#utility.yul\":2127:2128   */\n      0x00\n        /* \"#utility.yul\":2116:2125   */\n      dup4\n        /* \"#utility.yul\":2112:2129   */\n      add\n        /* \"#utility.yul\":2105:2152   */\n      mstore\n        /* \"#utility.yul\":2169:2247   */\n      tag_108\n        /* \"#utility.yul\":2242:2246   */\n      dup2\n        /* \"#utility.yul\":2233:2239   */\n      dup5\n        /* \"#utility.yul\":2169:2247   */\n      tag_54\n      jump\t// in\n    tag_108:\n        /* \"#utility.yul\":2161:2247   */\n      swap1\n      pop\n        /* \"#utility.yul\":1941:2254   */\n      swap3\n      swap2\n      pop\n      pop\n      jump\t// out\n        /* \"#utility.yul\":2260:2378   */\n    tag_55:\n        /* \"#utility.yul\":2347:2371   */\n      tag_110\n        /* \"#utility.yul\":2365:2370   */\n      dup2\n        /* \"#utility.yul\":2347:2371   */\n      tag_47\n      jump\t// in\n    tag_110:\n        /* \"#utility.yul\":2342:2345   */\n      dup3\n        /* \"#utility.yul\":2335:2372   */\n      mstore\n        /* \"#utility.yul\":2260:2378   */\n      pop\n      pop\n      jump\t// out\n        /* \"#utility.yul\":2384:2606   */\n    tag_15:\n        /* \"#utility.yul\":2477:2481   */\n      0x00\n        /* \"#utility.yul\":2515:2517   */\n      0x20\n        /* \"#utility.yul\":2504:2513   */\n      dup3\n        /* \"#utility.yul\":2500:2518   */\n      add\n        /* \"#utility.yul\":2492:2518   */\n      swap1\n      pop\n        /* \"#utility.yul\":2528:2599   */\n      tag_112\n        /* \"#utility.yul\":2596:2597   */\n      0x00\n        /* \"#utility.yul\":2585:2594   */\n      dup4\n        /* \"#utility.yul\":2581:2598   */\n      add\n        /* \"#utility.yul\":2572:2578   */\n      dup5\n        /* \"#utility.yul\":2528:2599   */\n      tag_55\n      jump\t// in\n    tag_112:\n        /* \"#utility.yul\":2384:2606   */\n      swap3\n      swap2\n      pop\n      pop\n      jump\t// out\n        /* \"#utility.yul\":2612:2729   */\n    tag_56:\n        /* \"#utility.yul\":2721:2722   */\n      0x00\n        /* \"#utility.yul\":2718:2719   */\n      dup1\n        /* \"#utility.yul\":2711:2723   */\n      revert\n        /* \"#utility.yul\":2735:2852   */\n    tag_57:\n        /* \"#utility.yul\":2844:2845   */\n      0x00\n        /* \"#utility.yul\":2841:2842   */\n      dup1\n        /* \"#utility.yul\":2834:2846   */\n      revert\n        /* \"#utility.yul\":2858:3038   */\n    tag_58:\n        /* \"#utility.yul\":2906:2983   */\n      0x4e487b7100000000000000000000000000000000000000000000000000000000\n        /* \"#utility.yul\":2903:2904   */\n      0x00\n        /* \"#utility.yul\":2896:2984   */\n      mstore\n        /* \"#utility.yul\":3003:3007   */\n      0x41\n        /* \"#utility.yul\":3000:3001   */\n      0x04\n        /* \"#utility.yul\":2993:3008   */\n      mstore\n        /* \"#utility.yul\":3027:3031   */\n      0x24\n        /* \"#utility.yul\":3024:3025   */\n      0x00\n        /* \"#utility.yul\":3017:3032   */\n      revert\n        /* \"#utility.yul\":3044:3325   */\n    tag_59:\n        /* \"#utility.yul\":3127:3154   */\n      tag_117\n        /* \"#utility.yul\":3149:3153   */\n      dup3\n        /* \"#utility.yul\":3127:3154   */\n      tag_53\n      jump\t// in\n    tag_117:\n        /* \"#utility.yul\":3119:3125   */\n      dup2\n        /* \"#utility.yul\":3115:3155   */\n      add\n        /* \"#utility.yul\":3257:3263   */\n      dup2\n        /* \"#utility.yul\":3245:3255   */\n      dup2\n        /* \"#utility.yul\":3242:3264   */\n      lt\n        /* \"#utility.yul\":3221:3239   */\n      0xffffffffffffffff\n        /* \"#utility.yul\":3209:3219   */\n      dup3\n        /* \"#utility.yul\":3206:3240   */\n      gt\n        /* \"#utility.yul\":3203:3265   */\n      or\n        /* \"#utility.yul\":3200:3288   */\n      iszero\n      tag_118\n      jumpi\n        /* \"#utility.yul\":3268:3286   */\n      tag_119\n      tag_58\n      jump\t// in\n    tag_119:\n        /* \"#utility.yul\":3200:3288   */\n    tag_118:\n        /* \"#utility.yul\":3308:3318   */\n      dup1\n        /* \"#utility.yul\":3304:3306   */\n      0x40\n        /* \"#utility.yul\":3297:3319   */\n      mstore\n        /* \"#utility.yul\":3087:3325   */\n      pop\n        /* \"#utility.yul\":3044:3325   */\n      pop\n      pop\n      jump\t// out\n        /* \"#utility.yul\":3331:3460   */\n    tag_60:\n        /* \"#utility.yul\":3365:3371   */\n      0x00\n        /* \"#utility.yul\":3392:3412   */\n      tag_121\n      tag_44\n      jump\t// in\n    tag_121:\n        /* \"#utility.yul\":3382:3412   */\n      swap1\n      pop\n        /* \"#utility.yul\":3421:3454   */\n      tag_122\n        /* \"#utility.yul\":3449:3453   */\n      dup3\n        /* \"#utility.yul\":3441:3447   */\n      dup3\n        /* \"#utility.yul\":3421:3454   */\n      tag_59\n      jump\t// in\n    tag_122:\n        /* \"#utility.yul\":3331:3460   */\n      swap2\n      swap1\n      pop\n      jump\t// out\n        /* \"#utility.yul\":3466:3774   */\n    tag_61:\n        /* \"#utility.yul\":3528:3532   */\n      0x00\n        /* \"#utility.yul\":3618:3636   */\n      0xffffffffffffffff\n        /* \"#utility.yul\":3610:3616   */\n      dup3\n        /* \"#utility.yul\":3607:3637   */\n      gt\n        /* \"#utility.yul\":3604:3660   */\n      iszero\n      tag_124\n      jumpi\n        /* \"#utility.yul\":3640:3658   */\n      tag_125\n      tag_58\n      jump\t// in\n    tag_125:\n        /* \"#utility.yul\":3604:3660   */\n    tag_124:\n        /* \"#utility.yul\":3678:3707   */\n      tag_126\n        /* \"#utility.yul\":3700:3706   */\n      dup3\n        /* \"#utility.yul\":3678:3707   */\n      tag_53\n      jump\t// in\n    tag_126:\n        /* \"#utility.yul\":3670:3707   */\n      swap1\n      pop\n        /* \"#utility.yul\":3762:3766   */\n      0x20\n        /* \"#utility.yul\":3756:3760   */\n      dup2\n        /* \"#utility.yul\":3752:3767   */\n      add\n        /* \"#utility.yul\":3744:3767   */\n      swap1\n      pop\n        /* \"#utility.yul\":3466:3774   */\n      swap2\n      swap1\n      pop\n      jump\t// out\n        /* \"#utility.yul\":3780:3928   */\n    tag_62:\n        /* \"#utility.yul\":3878:3884   */\n      dup3\n        /* \"#utility.yul\":3873:3876   */\n      dup2\n        /* \"#utility.yul\":3868:3871   */\n      dup4\n        /* \"#utility.yul\":3855:3885   */\n      calldatacopy\n        /* \"#utility.yul\":3919:3920   */\n      0x00\n        /* \"#utility.yul\":3910:3916   */\n      dup4\n        /* \"#utility.yul\":3905:3908   */\n      dup4\n        /* \"#utility.yul\":3901:3917   */\n      add\n        /* \"#utility.yul\":3894:3921   */\n      mstore\n        /* \"#utility.yul\":3780:3928   */\n      pop\n      pop\n      pop\n      jump\t// out\n        /* \"#utility.yul\":3934:4359   */\n    tag_63:\n        /* \"#utility.yul\":4012:4017   */\n      0x00\n        /* \"#utility.yul\":4037:4103   */\n      tag_129\n        /* \"#utility.yul\":4053:4102   */\n      tag_130\n        /* \"#utility.yul\":4095:4101   */\n      dup5\n        /* \"#utility.yul\":4053:4102   */\n      tag_61\n      jump\t// in\n    tag_130:\n        /* \"#utility.yul\":4037:4103   */\n      tag_60\n      jump\t// in\n    tag_129:\n        /* \"#utility.yul\":4028:4103   */\n      swap1\n      pop\n        /* \"#utility.yul\":4126:4132   */\n      dup3\n        /* \"#utility.yul\":4119:4124   */\n      dup2\n        /* \"#utility.yul\":4112:4133   */\n      mstore\n        /* \"#utility.yul\":4164:4168   */\n      0x20\n        /* \"#utility.yul\":4157:4162   */\n      dup2\n        /* \"#utility.yul\":4153:4169   */\n      add\n        /* \"#utility.yul\":4202:4205   */\n      dup5\n        /* \"#utility.yul\":4193:4199   */\n      dup5\n        /* \"#utility.yul\":4188:4191   */\n      dup5\n        /* \"#utility.yul\":4184:4200   */\n      add\n        /* \"#utility.yul\":4181:4206   */\n      gt\n        /* \"#utility.yul\":4178:4290   */\n      iszero\n      tag_131\n      jumpi\n        /* \"#utility.yul\":4209:4288   */\n      tag_132\n      tag_57\n      jump\t// in\n    tag_132:\n        /* \"#utility.yul\":4178:4290   */\n    tag_131:\n        /* \"#utility.yul\":4299:4353   */\n      tag_133\n        /* \"#utility.yul\":4346:4352   */\n      dup5\n        /* \"#utility.yul\":4341:4344   */\n      dup3\n        /* \"#utility.yul\":4336:4339   */\n      dup6\n        /* \"#utility.yul\":4299:4353   */\n      tag_62\n      jump\t// in\n    tag_133:\n        /* \"#utility.yul\":4018:4359   */\n      pop\n        /* \"#utility.yul\":3934:4359   */\n      swap4\n      swap3\n      pop\n      pop\n      pop\n      jump\t// out\n        /* \"#utility.yul\":4379:4719   */\n    tag_64:\n        /* \"#utility.yul\":4435:4440   */\n      0x00\n        /* \"#utility.yul\":4484:4487   */\n      dup3\n        /* \"#utility.yul\":4477:4481   */\n      0x1f\n        /* \"#utility.yul\":4469:4475   */\n      dup4\n        /* \"#utility.yul\":4465:4482   */\n      add\n        /* \"#utility.yul\":4461:4488   */\n      slt\n        /* \"#utility.yul\":4451:4573   */\n      tag_135\n      jumpi\n        /* \"#utility.yul\":4492:4571   */\n      tag_136\n      tag_56\n      jump\t// in\n    tag_136:\n        /* \"#utility.yul\":4451:4573   */\n    tag_135:\n        /* \"#utility.yul\":4609:4615   */\n      dup2\n        /* \"#utility.yul\":4596:4616   */\n      calldataload\n        /* \"#utility.yul\":4634:4713   */\n      tag_137\n        /* \"#utility.yul\":4709:4712   */\n      dup5\n        /* \"#utility.yul\":4701:4707   */\n      dup3\n        /* \"#utility.yul\":4694:4698   */\n      0x20\n        /* \"#utility.yul\":4686:4692   */\n      dup7\n        /* \"#utility.yul\":4682:4699   */\n      add\n        /* \"#utility.yul\":4634:4713   */\n      tag_63\n      jump\t// in\n    tag_137:\n        /* \"#utility.yul\":4625:4713   */\n      swap2\n      pop\n        /* \"#utility.yul\":4441:4719   */\n      pop\n        /* \"#utility.yul\":4379:4719   */\n      swap3\n      swap2\n      pop\n      pop\n      jump\t// out\n        /* \"#utility.yul\":4725:5379   */\n    tag_19:\n        /* \"#utility.yul\":4803:4809   */\n      0x00\n        /* \"#utility.yul\":4811:4817   */\n      dup1\n        /* \"#utility.yul\":4860:4862   */\n      0x40\n        /* \"#utility.yul\":4848:4857   */\n      dup4\n        /* \"#utility.yul\":4839:4846   */\n      dup6\n        /* \"#utility.yul\":4835:4858   */\n      sub\n        /* \"#utility.yul\":4831:4863   */\n      slt\n        /* \"#utility.yul\":4828:4947   */\n      iszero\n      tag_139\n      jumpi\n        /* \"#utility.yul\":4866:4945   */\n      tag_140\n      tag_45\n      jump\t// in\n    tag_140:\n        /* \"#utility.yul\":4828:4947   */\n    tag_139:\n        /* \"#utility.yul\":4986:4987   */\n      0x00\n        /* \"#utility.yul\":5011:5064   */\n      tag_141\n        /* \"#utility.yul\":5056:5063   */\n      dup6\n        /* \"#utility.yul\":5047:5053   */\n      dup3\n        /* \"#utility.yul\":5036:5045   */\n      dup7\n        /* \"#utility.yul\":5032:5054   */\n      add\n        /* \"#utility.yul\":5011:5064   */\n      tag_49\n      jump\t// in\n    tag_141:\n        /* \"#utility.yul\":5001:5064   */\n      swap3\n      pop\n        /* \"#utility.yul\":4957:5074   */\n      pop\n        /* \"#utility.yul\":5141:5143   */\n      0x20\n        /* \"#utility.yul\":5130:5139   */\n      dup4\n        /* \"#utility.yul\":5126:5144   */\n      add\n        /* \"#utility.yul\":5113:5145   */\n      calldataload\n        /* \"#utility.yul\":5172:5190   */\n      0xffffffffffffffff\n        /* \"#utility.yul\":5164:5170   */\n      dup2\n        /* \"#utility.yul\":5161:5191   */\n      gt\n        /* \"#utility.yul\":5158:5275   */\n      iszero\n      tag_142\n      jumpi\n        /* \"#utility.yul\":5194:5273   */\n      tag_143\n      tag_46\n      jump\t// in\n    tag_143:\n        /* \"#utility.yul\":5158:5275   */\n    tag_142:\n        /* \"#utility.yul\":5299:5362   */\n      tag_144\n        /* \"#utility.yul\":5354:5361   */\n      dup6\n        /* \"#utility.yul\":5345:5351   */\n      dup3\n        /* \"#utility.yul\":5334:5343   */\n      dup7\n        /* \"#utility.yul\":5330:5352   */\n      add\n        /* \"#utility.yul\":5299:5362   */\n      tag_64\n      jump\t// in\n    tag_144:\n        /* \"#utility.yul\":5289:5362   */\n      swap2\n      pop\n        /* \"#utility.yul\":5084:5372   */\n      pop\n        /* \"#utility.yul\":4725:5379   */\n      swap3\n      pop\n      swap3\n      swap1\n      pop\n      jump\t// out\n        /* \"#utility.yul\":5385:5565   */\n    tag_65:\n        /* \"#utility.yul\":5433:5510   */\n      0x4e487b7100000000000000000000000000000000000000000000000000000000\n        /* \"#utility.yul\":5430:5431   */\n      0x00\n        /* \"#utility.yul\":5423:5511   */\n      mstore\n        /* \"#utility.yul\":5530:5534   */\n      0x22\n        /* \"#utility.yul\":5527:5528   */\n      0x04\n        /* \"#utility.yul\":5520:5535   */\n      mstore\n        /* \"#utility.yul\":5554:5558   */\n      0x24\n        /* \"#utility.yul\":5551:5552   */\n      0x00\n        /* \"#utility.yul\":5544:5559   */\n      revert\n        /* \"#utility.yul\":5571:5891   */\n    tag_25:\n        /* \"#utility.yul\":5615:5621   */\n      0x00\n        /* \"#utility.yul\":5652:5653   */\n      0x02\n        /* \"#utility.yul\":5646:5650   */\n      dup3\n        /* \"#utility.yul\":5642:5654   */\n      div\n        /* \"#utility.yul\":5632:5654   */\n      swap1\n      pop\n        /* \"#utility.yul\":5699:5700   */\n      0x01\n        /* \"#utility.yul\":5693:5697   */\n      dup3\n        /* \"#utility.yul\":5689:5701   */\n      and\n        /* \"#utility.yul\":5720:5738   */\n      dup1\n        /* \"#utility.yul\":5710:5791   */\n      tag_147\n      jumpi\n        /* \"#utility.yul\":5776:5780   */\n      0x7f\n        /* \"#utility.yul\":5768:5774   */\n      dup3\n        /* \"#utility.yul\":5764:5781   */\n      and\n        /* \"#utility.yul\":5754:5781   */\n      swap2\n      pop\n        /* \"#utility.yul\":5710:5791   */\n    tag_147:\n        /* \"#utility.yul\":5838:5840   */\n      0x20\n        /* \"#utility.yul\":5830:5836   */\n      dup3\n        /* \"#utility.yul\":5827:5841   */\n      lt\n        /* \"#utility.yul\":5807:5825   */\n      dup2\n        /* \"#utility.yul\":5804:5842   */\n      sub\n        /* \"#utility.yul\":5801:5885   */\n      tag_148\n      jumpi\n        /* \"#utility.yul\":5857:5875   */\n      tag_149\n      tag_65\n      jump\t// in\n    tag_149:\n        /* \"#utility.yul\":5801:5885   */\n    tag_148:\n        /* \"#utility.yul\":5622:5891   */\n      pop\n        /* \"#utility.yul\":5571:5891   */\n      swap2\n      swap1\n      pop\n      jump\t// out\n        /* \"#utility.yul\":5897:6038   */\n    tag_66:\n        /* \"#utility.yul\":5946:5950   */\n      0x00\n        /* \"#utility.yul\":5969:5972   */\n      dup2\n        /* \"#utility.yul\":5961:5972   */\n      swap1\n      pop\n        /* \"#utility.yul\":5992:5995   */\n      dup2\n        /* \"#utility.yul\":5989:5990   */\n      0x00\n        /* \"#utility.yul\":5982:5996   */\n      mstore\n        /* \"#utility.yul\":6026:6030   */\n      0x20\n        /* \"#utility.yul\":6023:6024   */\n      0x00\n        /* \"#utility.yul\":6013:6031   */\n      keccak256\n        /* \"#utility.yul\":6005:6031   */\n      swap1\n      pop\n        /* \"#utility.yul\":5897:6038   */\n      swap2\n      swap1\n      pop\n      jump\t// out\n        /* \"#utility.yul\":6044:6137   */\n    tag_67:\n        /* \"#utility.yul\":6081:6087   */\n      0x00\n        /* \"#utility.yul\":6128:6130   */\n      0x20\n        /* \"#utility.yul\":6123:6125   */\n      0x1f\n        /* \"#utility.yul\":6116:6121   */\n      dup4\n        /* \"#utility.yul\":6112:6126   */\n      add\n        /* \"#utility.yul\":6108:6131   */\n      div\n        /* \"#utility.yul\":6098:6131   */\n      swap1\n      pop\n        /* \"#utility.yul\":6044:6137   */\n      swap2\n      swap1\n      pop\n      jump\t// out\n        /* \"#utility.yul\":6143:6250   */\n    tag_68:\n        /* \"#utility.yul\":6187:6195   */\n      0x00\n        /* \"#utility.yul\":6237:6242   */\n      dup3\n        /* \"#utility.yul\":6231:6235   */\n      dup3\n        /* \"#utility.yul\":6227:6243   */\n      shl\n        /* \"#utility.yul\":6206:6243   */\n      swap1\n      pop\n        /* \"#utility.yul\":6143:6250   */\n      swap3\n      swap2\n      pop\n      pop\n      jump\t// out\n        /* \"#utility.yul\":6256:6649   */\n    tag_69:\n        /* \"#utility.yul\":6325:6331   */\n      0x00\n        /* \"#utility.yul\":6375:6376   */\n      0x08\n        /* \"#utility.yul\":6363:6373   */\n      dup4\n        /* \"#utility.yul\":6359:6377   */\n      mul\n        /* \"#utility.yul\":6398:6495   */\n      tag_154\n        /* \"#utility.yul\":6428:6494   */\n      0xffffffffffffffffffffffffffffffffffffffffffffffffffffffffffffffff\n        /* \"#utility.yul\":6417:6426   */\n      dup3\n        /* \"#utility.yul\":6398:6495   */\n      tag_68\n      jump\t// in\n    tag_154:\n        /* \"#utility.yul\":6516:6555   */\n      tag_155\n        /* \"#utility.yul\":6546:6554   */\n      dup7\n        /* \"#utility.yul\":6535:6544   */\n      dup4\n        /* \"#utility.yul\":6516:6555   */\n      tag_68\n      jump\t// in\n    tag_155:\n        /* \"#utility.yul\":6504:6555   */\n      swap6\n      pop\n        /* \"#utility.yul\":6588:6592   */\n      dup1\n        /* \"#utility.yul\":6584:6593   */\n      not\n        /* \"#utility.yul\":6577:6582   */\n      dup5\n        /* \"#utility.yul\":6573:6594   */\n      and\n        /* \"#utility.yul\":6564:6594   */\n      swap4\n      pop\n        /* \"#utility.yul\":6637:6641   */\n      dup1\n        /* \"#utility.yul\":6627:6635   */\n      dup7\n        /* \"#utility.yul\":6623:6642   */\n      and\n        /* \"#utility.yul\":6616:6621   */\n      dup5\n        /* \"#utility.yul\":6613:6643   */\n      or\n        /* \"#utility.yul\":6603:6643   */\n      swap3\n      pop\n        /* \"#utility.yul\":6332:6649   */\n      pop\n      pop\n        /* \"#utility.yul\":6256:6649   */\n      swap4\n      swap3\n      pop\n      pop\n      pop\n      jump\t// out\n        /* \"#utility.yul\":6655:6715   */\n    tag_70:\n        /* \"#utility.yul\":6683:6686   */\n      0x00\n        /* \"#utility.yul\":6704:6709   */\n      dup2\n        /* \"#utility.yul\":6697:6709   */\n      swap1\n      pop\n        /* \"#utility.yul\":6655:6715   */\n      swap2\n      swap1\n      pop\n      jump\t// out\n        /* \"#utility.yul\":6721:6863   */\n    tag_71:\n        /* \"#utility.yul\":6771:6780   */\n      0x00\n        /* \"#utility.yul\":6804:6857   */\n      tag_158\n        /* \"#utility.yul\":6822:6856   */\n      tag_159\n        /* \"#utility.yul\":6831:6855   */\n      tag_160\n        /* \"#utility.yul\":6849:6854   */\n      dup5\n        /* \"#utility.yul\":6831:6855   */\n      tag_47\n      jump\t// in\n    tag_160:\n        /* \"#utility.yul\":6822:6856   */\n      tag_70\n      jump\t// in\n    tag_159:\n        /* \"#utility.yul\":6804:6857   */\n      tag_47\n      jump\t// in\n    tag_158:\n        /* \"#utility.yul\":6791:6857   */\n      swap1\n      pop\n        /* \"#utility.yul\":6721:6863   */\n      swap2\n      swap1\n      pop\n      jump\t// out\n        /* \"#utility.yul\":6869:6944   */\n    tag_72:\n        /* \"#utility.yul\":6912:6915   */\n      0x00\n        /* \"#utility.yul\":6933:6938   */\n      dup2\n        /* \"#utility.yul\":6926:6938   */\n      swap1\n      pop\n        /* \"#utility.yul\":6869:6944   */\n      swap2\n      swap1\n      pop\n      jump\t// out\n        /* \"#utility.yul\":6950:7219   */\n    tag_73:\n        /* \"#utility.yul\":7060:7099   */\n      tag_163\n        /* \"#utility.yul\":7091:7098   */\n      dup4\n        /* \"#utility.yul\":7060:7099   */\n      tag_71\n      jump\t// in\n    tag_163:\n        /* \"#utility.yul\":7121:7212   */\n      tag_164\n        /* \"#utility.yul\":7170:7211   */\n      tag_165\n        /* \"#utility.yul\":7194:7210   */\n      dup3\n        /* \"#utility.yul\":7170:7211   */\n      tag_72\n      jump\t// in\n    tag_165:\n        /* \"#utility.yul\":7162:7168   */\n      dup5\n        /* \"#utility.yul\":7155:7159   */\n      dup5\n        /* \"#utility.yul\":7149:7160   */\n      sload\n        /* \"#utility.yul\":7121:7212   */\n      tag_69\n      jump\t// in\n    tag_164:\n        /* \"#utility.yul\":7115:7119   */\n      dup3\n        /* \"#utility.yul\":7108:7213   */\n      sstore\n        /* \"#utility.yul\":7026:7219   */\n      pop\n        /* \"#utility.yul\":6950:7219   */\n      pop\n      pop\n      pop\n      jump\t// out\n        /* \"#utility.yul\":7225:7298   */\n    tag_74:\n        /* \"#utility.yul\":7270:7273   */\n      0x00\n        /* \"#utility.yul\":7225:7298   */\n      swap1\n      jump\t// out\n        /* \"#utility.yul\":7304:7493   */\n    tag_75:\n        /* \"#utility.yul\":7381:7413   */\n      tag_168\n      tag_74\n      jump\t// in\n    tag_168:\n        /* \"#utility.yul\":7422:7487   */\n      tag_169\n        /* \"#utility.yul\":7480:7486   */\n      dup2\n        /* \"#utility.yul\":7472:7478   */\n      dup5\n        /* \"#utility.yul\":7466:7470   */\n      dup5\n        /* \"#utility.yul\":7422:7487   */\n      tag_73\n      jump\t// in\n    tag_169:\n        /* \"#utility.yul\":7357:7493   */\n      pop\n        /* \"#utility.yul\":7304:7493   */\n      pop\n      pop\n      jump\t// out\n        /* \"#utility.yul\":7499:7685   */\n    tag_76:\n        /* \"#utility.yul\":7559:7679   */\n    tag_171:\n        /* \"#utility.yul\":7576:7579   */\n      dup2\n        /* \"#utility.yul\":7569:7574   */\n      dup2\n        /* \"#utility.yul\":7566:7580   */\n      lt\n        /* \"#utility.yul\":7559:7679   */\n      iszero\n      tag_173\n      jumpi\n        /* \"#utility.yul\":7630:7669   */\n      tag_174\n        /* \"#utility.yul\":7667:7668   */\n      0x00\n        /* \"#utility.yul\":7660:7665   */\n      dup3\n        /* \"#utility.yul\":7630:7669   */\n      tag_75\n      jump\t// in\n    tag_174:\n        /* \"#utility.yul\":7603:7604   */\n      0x01\n        /* \"#utility.yul\":7596:7601   */\n      dup2\n        /* \"#utility.yul\":7592:7605   */\n      add\n        /* \"#utility.yul\":7583:7605   */\n      swap1\n      pop\n        /* \"#utility.yul\":7559:7679   */\n      jump(tag_171)\n    tag_173:\n        /* \"#utility.yul\":7499:7685   */\n      pop\n      pop\n      jump\t// out\n        /* \"#utility.yul\":7691:8234   */\n    tag_77:\n        /* \"#utility.yul\":7792:7794   */\n      0x1f\n        /* \"#utility.yul\":7787:7790   */\n      dup3\n        /* \"#utility.yul\":7784:7795   */\n      gt\n        /* \"#utility.yul\":7781:8227   */\n      iszero\n      tag_176\n      jumpi\n        /* \"#utility.yul\":7826:7864   */\n      tag_177\n        /* \"#utility.yul\":7858:7863   */\n      dup2\n        /* \"#utility.yul\":7826:7864   */\n      tag_66\n      jump\t// in\n    tag_177:\n        /* \"#utility.yul\":7910:7939   */\n      tag_178\n        /* \"#utility.yul\":7928:7938   */\n      dup5\n        /* \"#utility.yul\":7910:7939   */\n      tag_67\n      jump\t// in\n    tag_178:\n        /* \"#utility.yul\":7900:7908   */\n      dup2\n        /* \"#utility.yul\":7896:7940   */\n      add\n        /* \"#utility.yul\":8093:8095   */\n      0x20\n        /* \"#utility.yul\":8081:8091   */\n      dup6\n        /* \"#utility.yul\":8078:8096   */\n      lt\n        /* \"#utility.yul\":8075:8124   */\n      iszero\n      tag_179\n      jumpi\n        /* \"#utility.yul\":8114:8122   */\n      dup2\n        /* \"#utility.yul\":8099:8122   */\n      swap1\n      pop\n        /* \"#utility.yul\":8075:8124   */\n    tag_179:\n        /* \"#utility.yul\":8137:8217   */\n      tag_180\n        /* \"#utility.yul\":8193:8215   */\n      tag_181\n        /* \"#utility.yul\":8211:8214   */\n      dup6\n        /* \"#utility.yul\":8193:8215   */\n      tag_67\n      jump\t// in\n    tag_181:\n        /* \"#utility.yul\":8183:8191   */\n      dup4\n        /* \"#utility.yul\":8179:8216   */\n      add\n        /* \"#utility.yul\":8166:8177   */\n      dup3\n        /* \"#utility.yul\":8137:8217   */\n      tag_76\n      jump\t// in\n    tag_180:\n        /* \"#utility.yul\":7796:8227   */\n      pop\n      pop\n        /* \"#utility.yul\":7781:8227   */\n    tag_176:\n        /* \"#utility.yul\":7691:8234   */\n      pop\n      pop\n      pop\n      jump\t// out\n        /* \"#utility.yul\":8240:8357   */\n    tag_78:\n        /* \"#utility.yul\":8294:8302   */\n      0x00\n        /* \"#utility.yul\":8344:8349   */\n      dup3\n        /* \"#utility.yul\":8338:8342   */\n      dup3\n        /* \"#utility.yul\":8334:8350   */\n      shr\n        /* \"#utility.yul\":8313:8350   */\n      swap1\n      pop\n        /* \"#utility.yul\":8240:8357   */\n      swap3\n      swap2\n      pop\n      pop\n      jump\t// out\n        /* \"#utility.yul\":8363:8532   */\n    tag_79:\n        /* \"#utility.yul\":8407:8413   */\n      0x00\n        /* \"#utility.yul\":8440:8491   */\n      tag_184\n        /* \"#utility.yul\":8488:8489   */\n      0x00\n        /* \"#utility.yul\":8484:8490   */\n      not\n        /* \"#utility.yul\":8476:8481   */\n      dup5\n        /* \"#utility.yul\":8473:8474   */\n      0x08\n        /* \"#utility.yul\":8469:8482   */\n      mul\n        /* \"#utility.yul\":8440:8491   */\n      tag_78\n      jump\t// in\n    tag_184:\n        /* \"#utility.yul\":8436:8492   */\n      not\n        /* \"#utility.yul\":8521:8525   */\n      dup1\n        /* \"#utility.yul\":8515:8519   */\n      dup4\n        /* \"#utility.yul\":8511:8526   */\n      and\n        /* \"#utility.yul\":8501:8526   */\n      swap2\n      pop\n        /* \"#utility.yul\":8414:8532   */\n      pop\n        /* \"#utility.yul\":8363:8532   */\n      swap3\n      swap2\n      pop\n      pop\n      jump\t// out\n        /* \"#utility.yul\":8537:8832   */\n    tag_80:\n        /* \"#utility.yul\":8613:8617   */\n      0x00\n        /* \"#utility.yul\":8759:8788   */\n      tag_186\n        /* \"#utility.yul\":8784:8787   */\n      dup4\n        /* \"#utility.yul\":8778:8782   */\n      dup4\n        /* \"#utility.yul\":8759:8788   */\n      tag_79\n      jump\t// in\n    tag_186:\n        /* \"#utility.yul\":8751:8788   */\n      swap2\n      pop\n        /* \"#utility.yul\":8821:8824   */\n      dup3\n        /* \"#utility.yul\":8818:8819   */\n      0x02\n        /* \"#utility.yul\":8814:8825   */\n      mul\n        /* \"#utility.yul\":8808:8812   */\n      dup3\n        /* \"#utility.yul\":8805:8826   */\n      or\n        /* \"#utility.yul\":8797:8826   */\n      swap1\n      pop\n        /* \"#utility.yul\":8537:8832   */\n      swap3\n      swap2\n      pop\n      pop\n      jump\t// out\n        /* \"#utility.yul\":8837:10232   */\n    tag_40:\n        /* \"#utility.yul\":8954:8991   */\n      tag_188\n        /* \"#utility.yul\":8987:8990   */\n      dup3\n        /* \"#utility.yul\":8954:8991   */\n      tag_50\n      jump\t// in\n    tag_188:\n        /* \"#utility.yul\":9056:9074   */\n      0xffffffffffffffff\n        /* \"#utility.yul\":9048:9054   */\n      dup2\n        /* \"#utility.yul\":9045:9075   */\n      gt\n        /* \"#utility.yul\":9042:9098   */\n      iszero\n      tag_189\n      jumpi\n        /* \"#utility.yul\":9078:9096   */\n      tag_190\n      tag_58\n      jump\t// in\n    tag_190:\n        /* \"#utility.yul\":9042:9098   */\n    tag_189:\n        /* \"#utility.yul\":9122:9160   */\n      tag_191\n        /* \"#utility.yul\":9154:9158   */\n      dup3\n        /* \"#utility.yul\":9148:9159   */\n      sload\n        /* \"#utility.yul\":9122:9160   */\n      tag_25\n      jump\t// in\n    tag_191:\n        /* \"#utility.yul\":9207:9274   */\n      tag_192\n        /* \"#utility.yul\":9267:9273   */\n      dup3\n        /* \"#utility.yul\":9259:9265   */\n      dup3\n        /* \"#utility.yul\":9253:9257   */\n      dup6\n        /* \"#utility.yul\":9207:9274   */\n      tag_77\n      jump\t// in\n    tag_192:\n        /* \"#utility.yul\":9301:9302   */\n      0x00\n        /* \"#utility.yul\":9325:9329   */\n      0x20\n        /* \"#utility.yul\":9312:9329   */\n      swap1\n      pop\n        /* \"#utility.yul\":9357:9359   */\n      0x1f\n        /* \"#utility.yul\":9349:9355   */\n      dup4\n        /* \"#utility.yul\":9346:9360   */\n      gt\n        /* \"#utility.yul\":9374:9375   */\n      0x01\n        /* \"#utility.yul\":9369:9987   */\n      dup2\n      eq\n      tag_194\n      jumpi\n        /* \"#utility.yul\":10031:10032   */\n      0x00\n        /* \"#utility.yul\":10048:10054   */\n      dup5\n        /* \"#utility.yul\":10045:10122   */\n      iszero\n      tag_195\n      jumpi\n        /* \"#utility.yul\":10097:10106   */\n      dup3\n        /* \"#utility.yul\":10092:10095   */\n      dup8\n        /* \"#utility.yul\":10088:10107   */\n      add\n        /* \"#utility.yul\":10082:10108   */\n      mload\n        /* \"#utility.yul\":10073:10108   */\n      swap1\n      pop\n        /* \"#utility.yul\":10045:10122   */\n    tag_195:\n        /* \"#utility.yul\":10148:10215   */\n      tag_196\n        /* \"#utility.yul\":10208:10214   */\n      dup6\n        /* \"#utility.yul\":10201:10206   */\n      dup3\n        /* \"#utility.yul\":10148:10215   */\n      tag_80\n      jump\t// in\n    tag_196:\n        /* \"#utility.yul\":10142:10146   */\n      dup7\n        /* \"#utility.yul\":10135:10216   */\n      sstore\n        /* \"#utility.yul\":10004:10226   */\n      pop\n        /* \"#utility.yul\":9339:10226   */\n      jump(tag_193)\n        /* \"#utility.yul\":9369:9987   */\n    tag_194:\n        /* \"#utility.yul\":9421:9425   */\n      0x1f\n        /* \"#utility.yul\":9417:9426   */\n      not\n        /* \"#utility.yul\":9409:9415   */\n      dup5\n        /* \"#utility.yul\":9405:9427   */\n      and\n        /* \"#utility.yul\":9455:9492   */\n      tag_197\n        /* \"#utility.yul\":9487:9491   */\n      dup7\n        /* \"#utility.yul\":9455:9492   */\n      tag_66\n      jump\t// in\n    tag_197:\n        /* \"#utility.yul\":9514:9515   */\n      0x00\n        /* \"#utility.yul\":9528:9736   */\n    tag_198:\n        /* \"#utility.yul\":9542:9549   */\n      dup3\n        /* \"#utility.yul\":9539:9540   */\n      dup2\n        /* \"#utility.yul\":9536:9550   */\n      lt\n        /* \"#utility.yul\":9528:9736   */\n      iszero\n      tag_200\n      jumpi\n        /* \"#utility.yul\":9621:9630   */\n      dup5\n        /* \"#utility.yul\":9616:9619   */\n      dup10\n        /* \"#utility.yul\":9612:9631   */\n      add\n        /* \"#utility.yul\":9606:9632   */\n      mload\n        /* \"#utility.yul\":9598:9604   */\n      dup3\n        /* \"#utility.yul\":9591:9633   */\n      sstore\n        /* \"#utility.yul\":9672:9673   */\n      0x01\n        /* \"#utility.yul\":9664:9670   */\n      dup3\n        /* \"#utility.yul\":9660:9674   */\n      add\n        /* \"#utility.yul\":9650:9674   */\n      swap2\n      pop\n        /* \"#utility.yul\":9719:9721   */\n      0x20\n        /* \"#utility.yul\":9708:9717   */\n      dup6\n        /* \"#utility.yul\":9704:9722   */\n      add\n        /* \"#utility.yul\":9691:9722   */\n      swap5\n      pop\n        /* \"#utility.yul\":9565:9569   */\n      0x20\n        /* \"#utility.yul\":9562:9563   */\n      dup2\n        /* \"#utility.yul\":9558:9570   */\n      add\n        /* \"#utility.yul\":9553:9570   */\n      swap1\n      pop\n        /* \"#utility.yul\":9528:9736   */\n      jump(tag_198)\n    tag_200:\n        /* \"#utility.yul\":9764:9770   */\n      dup7\n        /* \"#utility.yul\":9755:9762   */\n      dup4\n        /* \"#utility.yul\":9752:9771   */\n      lt\n        /* \"#utility.yul\":9749:9928   */\n      iszero\n      tag_201\n      jumpi\n        /* \"#utility.yul\":9822:9831   */\n      dup5\n        /* \"#utility.yul\":9817:9820   */\n      dup10\n        /* \"#utility.yul\":9813:9832   */\n      add\n        /* \"#utility.yul\":9807:9833   */\n      mload\n        /* \"#utility.yul\":9865:9913   */\n      tag_202\n        /* \"#utility.yul\":9907:9911   */\n      0x1f\n        /* \"#utility.yul\":9899:9905   */\n      dup10\n        /* \"#utility.yul\":9895:9912   */\n      and\n        /* \"#utility.yul\":9884:9893   */\n      dup3\n        /* \"#utility.yul\":9865:9913   */\n      tag_79\n      jump\t// in\n    tag_202:\n        /* \"#utility.yul\":9857:9863   */\n      dup4\n        /* \"#utility.yul\":9850:9914   */\n      sstore\n        /* \"#utility.yul\":9772:9928   */\n      pop\n        /* \"#utility.yul\":9749:9928   */\n    tag_201:\n        /* \"#utility.yul\":9974:9975   */\n      0x01\n        /* \"#utility.yul\":9970:9971   */\n      0x02\n        /* \"#utility.yul\":9962:9968   */\n      dup9\n        /* \"#utility.yul\":9958:9972   */\n      mul\n        /* \"#utility.yul\":9954:9976   */\n      add\n        /* \"#utility.yul\":9948:9952   */\n      dup9\n        /* \"#utility.yul\":9941:9977   */\n      sstore\n        /* \"#utility.yul\":9376:9987   */\n      pop\n      pop\n      pop\n        /* \"#utility.yul\":9339:10226   */\n    tag_193:\n      pop\n        /* \"#utility.yul\":8929:10232   */\n      pop\n      pop\n      pop\n        /* \"#utility.yul\":8837:10232   */\n      pop\n      pop\n      jump\t// out\n        /* \"#utility.yul\":10238:10386   */\n    tag_81:\n        /* \"#utility.yul\":10340:10351   */\n      0x00\n        /* \"#utility.yul\":10377:10380   */\n      dup2\n        /* \"#utility.yul\":10362:10380   */\n      swap1\n      pop\n        /* \"#utility.yul\":10238:10386   */\n      swap3\n      swap2\n      pop\n      pop\n      jump\t// out\n        /* \"#utility.yul\":10392:10782   */\n    tag_82:\n        /* \"#utility.yul\":10498:10501   */\n      0x00\n        /* \"#utility.yul\":10526:10565   */\n      tag_205\n        /* \"#utility.yul\":10559:10564   */\n      dup3\n        /* \"#utility.yul\":10526:10565   */\n      tag_50\n      jump\t// in\n    tag_205:\n        /* \"#utility.yul\":10581:10670   */\n      tag_206\n        /* \"#utility.yul\":10663:10669   */\n      dup2\n        /* \"#utility.yul\":10658:10661   */\n      dup6\n        /* \"#utility.yul\":10581:10670   */\n      tag_81\n      jump\t// in\n    tag_206:\n        /* \"#utility.yul\":10574:10670   */\n      swap4\n      pop\n        /* \"#utility.yul\":10679:10744   */\n      tag_207\n        /* \"#utility.yul\":10737:10743   */\n      dup2\n        /* \"#utility.yul\":10732:10735   */\n      dup6\n        /* \"#utility.yul\":10725:10729   */\n      0x20\n        /* \"#utility.yul\":10718:10723   */\n      dup7\n        /* \"#utility.yul\":10714:10730   */\n      add\n        /* \"#utility.yul\":10679:10744   */\n      tag_52\n      jump\t// in\n    tag_207:\n        /* \"#utility.yul\":10769:10775   */\n      dup1\n        /* \"#utility.yul\":10764:10767   */\n      dup5\n        /* \"#utility.yul\":10760:10776   */\n      add\n        /* \"#utility.yul\":10753:10776   */\n      swap2\n      pop\n        /* \"#utility.yul\":10502:10782   */\n      pop\n        /* \"#utility.yul\":10392:10782   */\n      swap3\n      swap2\n      pop\n      pop\n      jump\t// out\n        /* \"#utility.yul\":10788:10985   */\n    tag_83:\n        /* \"#utility.yul\":10957:10978   */\n      0x3a2066726f6d204672616e6b20746f20426f6200000000000000000000000000\n        /* \"#utility.yul\":10952:10955   */\n      dup2\n        /* \"#utility.yul\":10945:10979   */\n      mstore\n        /* \"#utility.yul\":10788:10985   */\n      pop\n      jump\t// out\n        /* \"#utility.yul\":10991:11533   */\n    tag_43:\n        /* \"#utility.yul\":11214:11217   */\n      0x00\n        /* \"#utility.yul\":11236:11331   */\n      tag_210\n        /* \"#utility.yul\":11327:11330   */\n      dup3\n        /* \"#utility.yul\":11318:11324   */\n      dup5\n        /* \"#utility.yul\":11236:11331   */\n      tag_82\n      jump\t// in\n    tag_210:\n        /* \"#utility.yul\":11229:11331   */\n      swap2\n      pop\n        /* \"#utility.yul\":11341:11479   */\n      tag_211\n        /* \"#utility.yul\":11475:11478   */\n      dup3\n        /* \"#utility.yul\":11341:11479   */\n      tag_83\n      jump\t// in\n    tag_211:\n        /* \"#utility.yul\":11504:11506   */\n      0x13\n        /* \"#utility.yul\":11499:11502   */\n      dup3\n        /* \"#utility.yul\":11495:11507   */\n      add\n        /* \"#utility.yul\":11488:11507   */\n      swap2\n      pop\n        /* \"#utility.yul\":11524:11527   */\n      dup2\n        /* \"#utility.yul\":11517:11527   */\n      swap1\n      pop\n        /* \"#utility.yul\":10991:11533   */\n      swap3\n      swap2\n      pop\n      pop\n      jump\t// out\n\n    auxdata: 0xa2646970667358221220920c2c221750d4395fc2ab53ea8b85e5f57040efa4060b2bc790d3049077e00964736f6c634300081a0033\n}\n",
				"bytecode": {
					"linkReferences": {},
					"object": "60806040526040518060400160405280600d81526020017f68656c6c6f20776f726c64202100000000000000000000000000000000000000815250600190816100489190610294565b50348015610054575f80fd5b50610363565b5f81519050919050565b7f4e487b71000000000000000000000000000000000000000000000000000000005f52604160045260245ffd5b7f4e487b71000000000000000000000000000000000000000000000000000000005f52602260045260245ffd5b5f60028204905060018216806100d557607f821691505b6020821081036100e8576100e7610091565b5b50919050565b5f819050815f5260205f209050919050565b5f6020601f8301049050919050565b5f82821b905092915050565b5f6008830261014a7fffffffffffffffffffffffffffffffffffffffffffffffffffffffffffffffff8261010f565b610154868361010f565b95508019841693508086168417925050509392505050565b5f819050919050565b5f819050919050565b5f61019861019361018e8461016c565b610175565b61016c565b9050919050565b5f819050919050565b6101b18361017e565b6101c56101bd8261019f565b84845461011b565b825550505050565b5f90565b6101d96101cd565b6101e48184846101a8565b505050565b5b81811015610207576101fc5f826101d1565b6001810190506101ea565b5050565b601f82111561024c5761021d816100ee565b61022684610100565b81016020851015610235578190505b61024961024185610100565b8301826101e9565b50505b505050565b5f82821c905092915050565b5f61026c5f1984600802610251565b1980831691505092915050565b5f610284838361025d565b9150826002028217905092915050565b61029d8261005a565b67ffffffffffffffff8111156102b6576102b5610064565b5b6102c082546100be565b6102cb82828561020b565b5f60209050601f8311600181146102fc575f84156102ea578287015190505b6102f48582610279565b86555061035b565b601f19841661030a866100ee565b5f5b828110156103315784890151825560018201915060208501945060208101905061030c565b8683101561034e578489015161034a601f89168261025d565b8355505b6001600288020188555050505b505050505050565b610974806103705f395ff3fe608060405260043610610033575f3560e01c806342257b3114610037578063b60d428814610073578063fc0574e414610091575b5f80fd5b348015610042575f80fd5b5061005d60048036038101906100589190610387565b6100b9565b60405161006a9190610422565b60405180910390f35b61007b610262565b6040516100889190610451565b60405180910390f35b34801561009c575f80fd5b506100b760048036038101906100b29190610596565b610269565b005b60605f73ffffffffffffffffffffffffffffffffffffffff165f808481526020019081526020015f206002015f9054906101000a900473ffffffffffffffffffffffffffffffffffffffff1673ffffffffffffffffffffffffffffffffffffffff16036101b8576101b1600180546101309061061d565b80601f016020809104026020016040519081016040528092919081815260200182805461015c9061061d565b80156101a75780601f1061017e576101008083540402835291602001916101a7565b820191905f5260205f20905b81548152906001019060200180831161018a57829003601f168201915b505050505061031a565b905061025d565b61025a5f808481526020019081526020015f2060010180546101d99061061d565b80601f01602080910402602001604051908101604052809291908181526020018280546102059061061d565b80156102505780601f1061022757610100808354040283529160200191610250565b820191905f5260205f20905b81548152906001019060200180831161023357829003601f168201915b505050505061031a565b90505b919050565b5f34905090565b5f60405180606001604052808481526020018381526020013373ffffffffffffffffffffffffffffffffffffffff168152509050805f808581526020019081526020015f205f820151815f015560208201518160010190816102cb91906107ea565b506040820151816002015f6101000a81548173ffffffffffffffffffffffffffffffffffffffff021916908373ffffffffffffffffffffffffffffffffffffffff160217905550905050505050565b60608160405160200161032d9190610919565b6040516020818303038152906040529050919050565b5f604051905090565b5f80fd5b5f80fd5b5f819050919050565b61036681610354565b8114610370575f80fd5b50565b5f813590506103818161035d565b92915050565b5f6020828403121561039c5761039b61034c565b5b5f6103a984828501610373565b91505092915050565b5f81519050919050565b5f82825260208201905092915050565b8281835e5f83830152505050565b5f601f19601f8301169050919050565b5f6103f4826103b2565b6103fe81856103bc565b935061040e8185602086016103cc565b610417816103da565b840191505092915050565b5f6020820190508181035f83015261043a81846103ea565b905092915050565b61044b81610354565b82525050565b5f6020820190506104645f830184610442565b92915050565b5f80fd5b5f80fd5b7f4e487b71000000000000000000000000000000000000000000000000000000005f52604160045260245ffd5b6104a8826103da565b810181811067ffffffffffffffff821117156104c7576104c6610472565b5b80604052505050565b5f6104d9610343565b90506104e5828261049f565b919050565b5f67ffffffffffffffff82111561050457610503610472565b5b61050d826103da565b9050602081019050919050565b828183375f83830152505050565b5f61053a610535846104ea565b6104d0565b9050828152602081018484840111156105565761055561046e565b5b61056184828561051a565b509392505050565b5f82601f83011261057d5761057c61046a565b5b813561058d848260208601610528565b91505092915050565b5f80604083850312156105ac576105ab61034c565b5b5f6105b985828601610373565b925050602083013567ffffffffffffffff8111156105da576105d9610350565b5b6105e685828601610569565b9150509250929050565b7f4e487b71000000000000000000000000000000000000000000000000000000005f52602260045260245ffd5b5f600282049050600182168061063457607f821691505b602082108103610647576106466105f0565b5b50919050565b5f819050815f5260205f209050919050565b5f6020601f8301049050919050565b5f82821b905092915050565b5f600883026106a97fffffffffffffffffffffffffffffffffffffffffffffffffffffffffffffffff8261066e565b6106b3868361066e565b95508019841693508086168417925050509392505050565b5f819050919050565b5f6106ee6106e96106e484610354565b6106cb565b610354565b9050919050565b5f819050919050565b610707836106d4565b61071b610713826106f5565b84845461067a565b825550505050565b5f90565b61072f610723565b61073a8184846106fe565b505050565b5b8181101561075d576107525f82610727565b600181019050610740565b5050565b601f8211156107a2576107738161064d565b61077c8461065f565b8101602085101561078b578190505b61079f6107978561065f565b83018261073f565b50505b505050565b5f82821c905092915050565b5f6107c25f19846008026107a7565b1980831691505092915050565b5f6107da83836107b3565b9150826002028217905092915050565b6107f3826103b2565b67ffffffffffffffff81111561080c5761080b610472565b5b610816825461061d565b610821828285610761565b5f60209050601f831160018114610852575f8415610840578287015190505b61084a85826107cf565b8655506108b1565b601f1984166108608661064d565b5f5b8281101561088757848901518255600182019150602085019450602081019050610862565b868310156108a457848901516108a0601f8916826107b3565b8355505b6001600288020188555050505b505050505050565b5f81905092915050565b5f6108cd826103b2565b6108d781856108b9565b93506108e78185602086016103cc565b80840191505092915050565b7f3a2066726f6d204672616e6b20746f20426f6200000000000000000000000000815250565b5f61092482846108c3565b915061092f826108f3565b6013820191508190509291505056fea2646970667358221220920c2c221750d4395fc2ab53ea8b85e5f57040efa4060b2bc790d3049077e00964736f6c634300081a0033",
					"opcodes": "PUSH1 0x80 PUSH1 0x40 MSTORE PUSH1 0x40 MLOAD DUP1 PUSH1 0x40 ADD PUSH1 0x40 MSTORE DUP1 PUSH1 0xD DUP2 MSTORE PUSH1 0x20 ADD PUSH32 0x68656C6C6F20776F726C64202100000000000000000000000000000000000000 DUP2 MSTORE POP PUSH1 0x1 SWAP1 DUP2 PUSH2 0x48 SWAP2 SWAP1 PUSH2 0x294 JUMP JUMPDEST POP CALLVALUE DUP1 ISZERO PUSH2 0x54 JUMPI PUSH0 DUP1 REVERT JUMPDEST POP PUSH2 0x363 JUMP JUMPDEST PUSH0 DUP2 MLOAD SWAP1 POP SWAP2 SWAP1 POP JUMP JUMPDEST PUSH32 0x4E487B7100000000000000000000000000000000000000000000000000000000 PUSH0 MSTORE PUSH1 0x41 PUSH1 0x4 MSTORE PUSH1 0x24 PUSH0 REVERT JUMPDEST PUSH32 0x4E487B7100000000000000000000000000000000000000000000000000000000 PUSH0 MSTORE PUSH1 0x22 PUSH1 0x4 MSTORE PUSH1 0x24 PUSH0 REVERT JUMPDEST PUSH0 PUSH1 0x2 DUP3 DIV SWAP1 POP PUSH1 0x1 DUP3 AND DUP1 PUSH2 0xD5 JUMPI PUSH1 0x7F DUP3 AND SWAP2 POP JUMPDEST PUSH1 0x20 DUP3 LT DUP2 SUB PUSH2 0xE8 JUMPI PUSH2 0xE7 PUSH2 0x91 JUMP JUMPDEST JUMPDEST POP SWAP2 SWAP1 POP JUMP JUMPDEST PUSH0 DUP2 SWAP1 POP DUP2 PUSH0 MSTORE PUSH1 0x20 PUSH0 KECCAK256 SWAP1 POP SWAP2 SWAP1 POP JUMP JUMPDEST PUSH0 PUSH1 0x20 PUSH1 0x1F DUP4 ADD DIV SWAP1 POP SWAP2 SWAP1 POP JUMP JUMPDEST PUSH0 DUP3 DUP3 SHL SWAP1 POP SWAP3 SWAP2 POP POP JUMP JUMPDEST PUSH0 PUSH1 0x8 DUP4 MUL PUSH2 0x14A PUSH32 0xFFFFFFFFFFFFFFFFFFFFFFFFFFFFFFFFFFFFFFFFFFFFFFFFFFFFFFFFFFFFFFFF DUP3 PUSH2 0x10F JUMP JUMPDEST PUSH2 0x154 DUP7 DUP4 PUSH2 0x10F JUMP JUMPDEST SWAP6 POP DUP1 NOT DUP5 AND SWAP4 POP DUP1 DUP7 AND DUP5 OR SWAP3 POP POP POP SWAP4 SWAP3 POP POP POP JUMP JUMPDEST PUSH0 DUP2 SWAP1 POP SWAP2 SWAP1 POP JUMP JUMPDEST PUSH0 DUP2 SWAP1 POP SWAP2 SWAP1 POP JUMP JUMPDEST PUSH0 PUSH2 0x198 PUSH2 0x193 PUSH2 0x18E DUP5 PUSH2 0x16C JUMP JUMPDEST PUSH2 0x175 JUMP JUMPDEST PUSH2 0x16C JUMP JUMPDEST SWAP1 POP SWAP2 SWAP1 POP JUMP JUMPDEST PUSH0 DUP2 SWAP1 POP SWAP2 SWAP1 POP JUMP JUMPDEST PUSH2 0x1B1 DUP4 PUSH2 0x17E JUMP JUMPDEST PUSH2 0x1C5 PUSH2 0x1BD DUP3 PUSH2 0x19F JUMP JUMPDEST DUP5 DUP5 SLOAD PUSH2 0x11B JUMP JUMPDEST DUP3 SSTORE POP POP POP POP JUMP JUMPDEST PUSH0 SWAP1 JUMP JUMPDEST PUSH2 0x1D9 PUSH2 0x1CD JUMP JUMPDEST PUSH2 0x1E4 DUP2 DUP5 DUP5 PUSH2 0x1A8 JUMP JUMPDEST POP POP POP JUMP JUMPDEST JUMPDEST DUP2 DUP2 LT ISZERO PUSH2 0x207 JUMPI PUSH2 0x1FC PUSH0 DUP3 PUSH2 0x1D1 JUMP JUMPDEST PUSH1 0x1 DUP2 ADD SWAP1 POP PUSH2 0x1EA JUMP JUMPDEST POP POP JUMP JUMPDEST PUSH1 0x1F DUP3 GT ISZERO PUSH2 0x24C JUMPI PUSH2 0x21D DUP2 PUSH2 0xEE JUMP JUMPDEST PUSH2 0x226 DUP5 PUSH2 0x100 JUMP JUMPDEST DUP2 ADD PUSH1 0x20 DUP6 LT ISZERO PUSH2 0x235 JUMPI DUP2 SWAP1 POP JUMPDEST PUSH2 0x249 PUSH2 0x241 DUP6 PUSH2 0x100 JUMP JUMPDEST DUP4 ADD DUP3 PUSH2 0x1E9 JUMP JUMPDEST POP POP JUMPDEST POP POP POP JUMP JUMPDEST PUSH0 DUP3 DUP3 SHR SWAP1 POP SWAP3 SWAP2 POP POP JUMP JUMPDEST PUSH0 PUSH2 0x26C PUSH0 NOT DUP5 PUSH1 0x8 MUL PUSH2 0x251 JUMP JUMPDEST NOT DUP1 DUP4 AND SWAP2 POP POP SWAP3 SWAP2 POP POP JUMP JUMPDEST PUSH0 PUSH2 0x284 DUP4 DUP4 PUSH2 0x25D JUMP JUMPDEST SWAP2 POP DUP3 PUSH1 0x2 MUL DUP3 OR SWAP1 POP SWAP3 SWAP2 POP POP JUMP JUMPDEST PUSH2 0x29D DUP3 PUSH2 0x5A JUMP JUMPDEST PUSH8 0xFFFFFFFFFFFFFFFF DUP2 GT ISZERO PUSH2 0x2B6 JUMPI PUSH2 0x2B5 PUSH2 0x64 JUMP JUMPDEST JUMPDEST PUSH2 0x2C0 DUP3 SLOAD PUSH2 0xBE JUMP JUMPDEST PUSH2 0x2CB DUP3 DUP3 DUP6 PUSH2 0x20B JUMP JUMPDEST PUSH0 PUSH1 0x20 SWAP1 POP PUSH1 0x1F DUP4 GT PUSH1 0x1 DUP2 EQ PUSH2 0x2FC JUMPI PUSH0 DUP5 ISZERO PUSH2 0x2EA JUMPI DUP3 DUP8 ADD MLOAD SWAP1 POP JUMPDEST PUSH2 0x2F4 DUP6 DUP3 PUSH2 0x279 JUMP JUMPDEST DUP7 SSTORE POP PUSH2 0x35B JUMP JUMPDEST PUSH1 0x1F NOT DUP5 AND PUSH2 0x30A DUP7 PUSH2 0xEE JUMP JUMPDEST PUSH0 JUMPDEST DUP3 DUP2 LT ISZERO PUSH2 0x331 JUMPI DUP5 DUP10 ADD MLOAD DUP3 SSTORE PUSH1 0x1 DUP3 ADD SWAP2 POP PUSH1 0x20 DUP6 ADD SWAP5 POP PUSH1 0x20 DUP2 ADD SWAP1 POP PUSH2 0x30C JUMP JUMPDEST DUP7 DUP4 LT ISZERO PUSH2 0x34E JUMPI DUP5 DUP10 ADD MLOAD PUSH2 0x34A PUSH1 0x1F DUP10 AND DUP3 PUSH2 0x25D JUMP JUMPDEST DUP4 SSTORE POP JUMPDEST PUSH1 0x1 PUSH1 0x2 DUP9 MUL ADD DUP9 SSTORE POP POP POP JUMPDEST POP POP POP POP POP POP JUMP JUMPDEST PUSH2 0x974 DUP1 PUSH2 0x370 PUSH0 CODECOPY PUSH0 RETURN INVALID PUSH1 0x80 PUSH1 0x40 MSTORE PUSH1 0x4 CALLDATASIZE LT PUSH2 0x33 JUMPI PUSH0 CALLDATALOAD PUSH1 0xE0 SHR DUP1 PUSH4 0x42257B31 EQ PUSH2 0x37 JUMPI DUP1 PUSH4 0xB60D4288 EQ PUSH2 0x73 JUMPI DUP1 PUSH4 0xFC0574E4 EQ PUSH2 0x91 JUMPI JUMPDEST PUSH0 DUP1 REVERT JUMPDEST CALLVALUE DUP1 ISZERO PUSH2 0x42 JUMPI PUSH0 DUP1 REVERT JUMPDEST POP PUSH2 0x5D PUSH1 0x4 DUP1 CALLDATASIZE SUB DUP2 ADD SWAP1 PUSH2 0x58 SWAP2 SWAP1 PUSH2 0x387 JUMP JUMPDEST PUSH2 0xB9 JUMP JUMPDEST PUSH1 0x40 MLOAD PUSH2 0x6A SWAP2 SWAP1 PUSH2 0x422 JUMP JUMPDEST PUSH1 0x40 MLOAD DUP1 SWAP2 SUB SWAP1 RETURN JUMPDEST PUSH2 0x7B PUSH2 0x262 JUMP JUMPDEST PUSH1 0x40 MLOAD PUSH2 0x88 SWAP2 SWAP1 PUSH2 0x451 JUMP JUMPDEST PUSH1 0x40 MLOAD DUP1 SWAP2 SUB SWAP1 RETURN JUMPDEST CALLVALUE DUP1 ISZERO PUSH2 0x9C JUMPI PUSH0 DUP1 REVERT JUMPDEST POP PUSH2 0xB7 PUSH1 0x4 DUP1 CALLDATASIZE SUB DUP2 ADD SWAP1 PUSH2 0xB2 SWAP2 SWAP1 PUSH2 0x596 JUMP JUMPDEST PUSH2 0x269 JUMP JUMPDEST STOP JUMPDEST PUSH1 0x60 PUSH0 PUSH20 0xFFFFFFFFFFFFFFFFFFFFFFFFFFFFFFFFFFFFFFFF AND PUSH0 DUP1 DUP5 DUP2 MSTORE PUSH1 0x20 ADD SWAP1 DUP2 MSTORE PUSH1 0x20 ADD PUSH0 KECCAK256 PUSH1 0x2 ADD PUSH0 SWAP1 SLOAD SWAP1 PUSH2 0x100 EXP SWAP1 DIV PUSH20 0xFFFFFFFFFFFFFFFFFFFFFFFFFFFFFFFFFFFFFFFF AND PUSH20 0xFFFFFFFFFFFFFFFFFFFFFFFFFFFFFFFFFFFFFFFF AND SUB PUSH2 0x1B8 JUMPI PUSH2 0x1B1 PUSH1 0x1 DUP1 SLOAD PUSH2 0x130 SWAP1 PUSH2 0x61D JUMP JUMPDEST DUP1 PUSH1 0x1F ADD PUSH1 0x20 DUP1 SWAP2 DIV MUL PUSH1 0x20 ADD PUSH1 0x40 MLOAD SWAP1 DUP2 ADD PUSH1 0x40 MSTORE DUP1 SWAP3 SWAP2 SWAP1 DUP2 DUP2 MSTORE PUSH1 0x20 ADD DUP3 DUP1 SLOAD PUSH2 0x15C SWAP1 PUSH2 0x61D JUMP JUMPDEST DUP1 ISZERO PUSH2 0x1A7 JUMPI DUP1 PUSH1 0x1F LT PUSH2 0x17E JUMPI PUSH2 0x100 DUP1 DUP4 SLOAD DIV MUL DUP4 MSTORE SWAP2 PUSH1 0x20 ADD SWAP2 PUSH2 0x1A7 JUMP JUMPDEST DUP3 ADD SWAP2 SWAP1 PUSH0 MSTORE PUSH1 0x20 PUSH0 KECCAK256 SWAP1 JUMPDEST DUP2 SLOAD DUP2 MSTORE SWAP1 PUSH1 0x1 ADD SWAP1 PUSH1 0x20 ADD DUP1 DUP4 GT PUSH2 0x18A JUMPI DUP3 SWAP1 SUB PUSH1 0x1F AND DUP3 ADD SWAP2 JUMPDEST POP POP POP POP POP PUSH2 0x31A JUMP JUMPDEST SWAP1 POP PUSH2 0x25D JUMP JUMPDEST PUSH2 0x25A PUSH0 DUP1 DUP5 DUP2 MSTORE PUSH1 0x20 ADD SWAP1 DUP2 MSTORE PUSH1 0x20 ADD PUSH0 KECCAK256 PUSH1 0x1 ADD DUP1 SLOAD PUSH2 0x1D9 SWAP1 PUSH2 0x61D JUMP JUMPDEST DUP1 PUSH1 0x1F ADD PUSH1 0x20 DUP1 SWAP2 DIV MUL PUSH1 0x20 ADD PUSH1 0x40 MLOAD SWAP1 DUP2 ADD PUSH1 0x40 MSTORE DUP1 SWAP3 SWAP2 SWAP1 DUP2 DUP2 MSTORE PUSH1 0x20 ADD DUP3 DUP1 SLOAD PUSH2 0x205 SWAP1 PUSH2 0x61D JUMP JUMPDEST DUP1 ISZERO PUSH2 0x250 JUMPI DUP1 PUSH1 0x1F LT PUSH2 0x227 JUMPI PUSH2 0x100 DUP1 DUP4 SLOAD DIV MUL DUP4 MSTORE SWAP2 PUSH1 0x20 ADD SWAP2 PUSH2 0x250 JUMP JUMPDEST DUP3 ADD SWAP2 SWAP1 PUSH0 MSTORE PUSH1 0x20 PUSH0 KECCAK256 SWAP1 JUMPDEST DUP2 SLOAD DUP2 MSTORE SWAP1 PUSH1 0x1 ADD SWAP1 PUSH1 0x20 ADD DUP1 DUP4 GT PUSH2 0x233 JUMPI DUP3 SWAP1 SUB PUSH1 0x1F AND DUP3 ADD SWAP2 JUMPDEST POP POP POP POP POP PUSH2 0x31A JUMP JUMPDEST SWAP1 POP JUMPDEST SWAP2 SWAP1 POP JUMP JUMPDEST PUSH0 CALLVALUE SWAP1 POP SWAP1 JUMP JUMPDEST PUSH0 PUSH1 0x40 MLOAD DUP1 PUSH1 0x60 ADD PUSH1 0x40 MSTORE DUP1 DUP5 DUP2 MSTORE PUSH1 0x20 ADD DUP4 DUP2 MSTORE PUSH1 0x20 ADD CALLER PUSH20 0xFFFFFFFFFFFFFFFFFFFFFFFFFFFFFFFFFFFFFFFF AND DUP2 MSTORE POP SWAP1 POP DUP1 PUSH0 DUP1 DUP6 DUP2 MSTORE PUSH1 0x20 ADD SWAP1 DUP2 MSTORE PUSH1 0x20 ADD PUSH0 KECCAK256 PUSH0 DUP3 ADD MLOAD DUP2 PUSH0 ADD SSTORE PUSH1 0x20 DUP3 ADD MLOAD DUP2 PUSH1 0x1 ADD SWAP1 DUP2 PUSH2 0x2CB SWAP2 SWAP1 PUSH2 0x7EA JUMP JUMPDEST POP PUSH1 0x40 DUP3 ADD MLOAD DUP2 PUSH1 0x2 ADD PUSH0 PUSH2 0x100 EXP DUP2 SLOAD DUP2 PUSH20 0xFFFFFFFFFFFFFFFFFFFFFFFFFFFFFFFFFFFFFFFF MUL NOT AND SWAP1 DUP4 PUSH20 0xFFFFFFFFFFFFFFFFFFFFFFFFFFFFFFFFFFFFFFFF AND MUL OR SWAP1 SSTORE POP SWAP1 POP POP POP POP POP JUMP JUMPDEST PUSH1 0x60 DUP2 PUSH1 0x40 MLOAD PUSH1 0x20 ADD PUSH2 0x32D SWAP2 SWAP1 PUSH2 0x919 JUMP JUMPDEST PUSH1 0x40 MLOAD PUSH1 0x20 DUP2 DUP4 SUB SUB DUP2 MSTORE SWAP1 PUSH1 0x40 MSTORE SWAP1 POP SWAP2 SWAP1 POP JUMP JUMPDEST PUSH0 PUSH1 0x40 MLOAD SWAP1 POP SWAP1 JUMP JUMPDEST PUSH0 DUP1 REVERT JUMPDEST PUSH0 DUP1 REVERT JUMPDEST PUSH0 DUP2 SWAP1 POP SWAP2 SWAP1 POP JUMP JUMPDEST PUSH2 0x366 DUP2 PUSH2 0x354 JUMP JUMPDEST DUP2 EQ PUSH2 0x370 JUMPI PUSH0 DUP1 REVERT JUMPDEST POP JUMP JUMPDEST PUSH0 DUP2 CALLDATALOAD SWAP1 POP PUSH2 0x381 DUP2 PUSH2 0x35D JUMP JUMPDEST SWAP3 SWAP2 POP POP JUMP JUMPDEST PUSH0 PUSH1 0x20 DUP3 DUP5 SUB SLT ISZERO PUSH2 0x39C JUMPI PUSH2 0x39B PUSH2 0x34C JUMP JUMPDEST JUMPDEST PUSH0 PUSH2 0x3A9 DUP5 DUP3 DUP6 ADD PUSH2 0x373 JUMP JUMPDEST SWAP2 POP POP SWAP3 SWAP2 POP POP JUMP JUMPDEST PUSH0 DUP2 MLOAD SWAP1 POP SWAP2 SWAP1 POP JUMP JUMPDEST PUSH0 DUP3 DUP3 MSTORE PUSH1 0x20 DUP3 ADD SWAP1 POP SWAP3 SWAP2 POP POP JUMP JUMPDEST DUP3 DUP2 DUP4 MCOPY PUSH0 DUP4 DUP4 ADD MSTORE POP POP POP JUMP JUMPDEST PUSH0 PUSH1 0x1F NOT PUSH1 0x1F DUP4 ADD AND SWAP1 POP SWAP2 SWAP1 POP JUMP JUMPDEST PUSH0 PUSH2 0x3F4 DUP3 PUSH2 0x3B2 JUMP JUMPDEST PUSH2 0x3FE DUP2 DUP6 PUSH2 0x3BC JUMP JUMPDEST SWAP4 POP PUSH2 0x40E DUP2 DUP6 PUSH1 0x20 DUP7 ADD PUSH2 0x3CC JUMP JUMPDEST PUSH2 0x417 DUP2 PUSH2 0x3DA JUMP JUMPDEST DUP5 ADD SWAP2 POP POP SWAP3 SWAP2 POP POP JUMP JUMPDEST PUSH0 PUSH1 0x20 DUP3 ADD SWAP1 POP DUP2 DUP2 SUB PUSH0 DUP4 ADD MSTORE PUSH2 0x43A DUP2 DUP5 PUSH2 0x3EA JUMP JUMPDEST SWAP1 POP SWAP3 SWAP2 POP POP JUMP JUMPDEST PUSH2 0x44B DUP2 PUSH2 0x354 JUMP JUMPDEST DUP3 MSTORE POP POP JUMP JUMPDEST PUSH0 PUSH1 0x20 DUP3 ADD SWAP1 POP PUSH2 0x464 PUSH0 DUP4 ADD DUP5 PUSH2 0x442 JUMP JUMPDEST SWAP3 SWAP2 POP POP JUMP JUMPDEST PUSH0 DUP1 REVERT JUMPDEST PUSH0 DUP1 REVERT JUMPDEST PUSH32 0x4E487B7100000000000000000000000000000000000000000000000000000000 PUSH0 MSTORE PUSH1 0x41 PUSH1 0x4 MSTORE PUSH1 0x24 PUSH0 REVERT JUMPDEST PUSH2 0x4A8 DUP3 PUSH2 0x3DA JUMP JUMPDEST DUP2 ADD DUP2 DUP2 LT PUSH8 0xFFFFFFFFFFFFFFFF DUP3 GT OR ISZERO PUSH2 0x4C7 JUMPI PUSH2 0x4C6 PUSH2 0x472 JUMP JUMPDEST JUMPDEST DUP1 PUSH1 0x40 MSTORE POP POP POP JUMP JUMPDEST PUSH0 PUSH2 0x4D9 PUSH2 0x343 JUMP JUMPDEST SWAP1 POP PUSH2 0x4E5 DUP3 DUP3 PUSH2 0x49F JUMP JUMPDEST SWAP2 SWAP1 POP JUMP JUMPDEST PUSH0 PUSH8 0xFFFFFFFFFFFFFFFF DUP3 GT ISZERO PUSH2 0x504 JUMPI PUSH2 0x503 PUSH2 0x472 JUMP JUMPDEST JUMPDEST PUSH2 0x50D DUP3 PUSH2 0x3DA JUMP JUMPDEST SWAP1 POP PUSH1 0x20 DUP2 ADD SWAP1 POP SWAP2 SWAP1 POP JUMP JUMPDEST DUP3 DUP2 DUP4 CALLDATACOPY PUSH0 DUP4 DUP4 ADD MSTORE POP POP POP JUMP JUMPDEST PUSH0 PUSH2 0x53A PUSH2 0x535 DUP5 PUSH2 0x4EA JUMP JUMPDEST PUSH2 0x4D0 JUMP JUMPDEST SWAP1 POP DUP3 DUP2 MSTORE PUSH1 0x20 DUP2 ADD DUP5 DUP5 DUP5 ADD GT ISZERO PUSH2 0x556 JUMPI PUSH2 0x555 PUSH2 0x46E JUMP JUMPDEST JUMPDEST PUSH2 0x561 DUP5 DUP3 DUP6 PUSH2 0x51A JUMP JUMPDEST POP SWAP4 SWAP3 POP POP POP JUMP JUMPDEST PUSH0 DUP3 PUSH1 0x1F DUP4 ADD SLT PUSH2 0x57D JUMPI PUSH2 0x57C PUSH2 0x46A JUMP JUMPDEST JUMPDEST DUP2 CALLDATALOAD PUSH2 0x58D DUP5 DUP3 PUSH1 0x20 DUP7 ADD PUSH2 0x528 JUMP JUMPDEST SWAP2 POP POP SWAP3 SWAP2 POP POP JUMP JUMPDEST PUSH0 DUP1 PUSH1 0x40 DUP4 DUP6 SUB SLT ISZERO PUSH2 0x5AC JUMPI PUSH2 0x5AB PUSH2 0x34C JUMP JUMPDEST JUMPDEST PUSH0 PUSH2 0x5B9 DUP6 DUP3 DUP7 ADD PUSH2 0x373 JUMP JUMPDEST SWAP3 POP POP PUSH1 0x20 DUP4 ADD CALLDATALOAD PUSH8 0xFFFFFFFFFFFFFFFF DUP2 GT ISZERO PUSH2 0x5DA JUMPI PUSH2 0x5D9 PUSH2 0x350 JUMP JUMPDEST JUMPDEST PUSH2 0x5E6 DUP6 DUP3 DUP7 ADD PUSH2 0x569 JUMP JUMPDEST SWAP2 POP POP SWAP3 POP SWAP3 SWAP1 POP JUMP JUMPDEST PUSH32 0x4E487B7100000000000000000000000000000000000000000000000000000000 PUSH0 MSTORE PUSH1 0x22 PUSH1 0x4 MSTORE PUSH1 0x24 PUSH0 REVERT JUMPDEST PUSH0 PUSH1 0x2 DUP3 DIV SWAP1 POP PUSH1 0x1 DUP3 AND DUP1 PUSH2 0x634 JUMPI PUSH1 0x7F DUP3 AND SWAP2 POP JUMPDEST PUSH1 0x20 DUP3 LT DUP2 SUB PUSH2 0x647 JUMPI PUSH2 0x646 PUSH2 0x5F0 JUMP JUMPDEST JUMPDEST POP SWAP2 SWAP1 POP JUMP JUMPDEST PUSH0 DUP2 SWAP1 POP DUP2 PUSH0 MSTORE PUSH1 0x20 PUSH0 KECCAK256 SWAP1 POP SWAP2 SWAP1 POP JUMP JUMPDEST PUSH0 PUSH1 0x20 PUSH1 0x1F DUP4 ADD DIV SWAP1 POP SWAP2 SWAP1 POP JUMP JUMPDEST PUSH0 DUP3 DUP3 SHL SWAP1 POP SWAP3 SWAP2 POP POP JUMP JUMPDEST PUSH0 PUSH1 0x8 DUP4 MUL PUSH2 0x6A9 PUSH32 0xFFFFFFFFFFFFFFFFFFFFFFFFFFFFFFFFFFFFFFFFFFFFFFFFFFFFFFFFFFFFFFFF DUP3 PUSH2 0x66E JUMP JUMPDEST PUSH2 0x6B3 DUP7 DUP4 PUSH2 0x66E JUMP JUMPDEST SWAP6 POP DUP1 NOT DUP5 AND SWAP4 POP DUP1 DUP7 AND DUP5 OR SWAP3 POP POP POP SWAP4 SWAP3 POP POP POP JUMP JUMPDEST PUSH0 DUP2 SWAP1 POP SWAP2 SWAP1 POP JUMP JUMPDEST PUSH0 PUSH2 0x6EE PUSH2 0x6E9 PUSH2 0x6E4 DUP5 PUSH2 0x354 JUMP JUMPDEST PUSH2 0x6CB JUMP JUMPDEST PUSH2 0x354 JUMP JUMPDEST SWAP1 POP SWAP2 SWAP1 POP JUMP JUMPDEST PUSH0 DUP2 SWAP1 POP SWAP2 SWAP1 POP JUMP JUMPDEST PUSH2 0x707 DUP4 PUSH2 0x6D4 JUMP JUMPDEST PUSH2 0x71B PUSH2 0x713 DUP3 PUSH2 0x6F5 JUMP JUMPDEST DUP5 DUP5 SLOAD PUSH2 0x67A JUMP JUMPDEST DUP3 SSTORE POP POP POP POP JUMP JUMPDEST PUSH0 SWAP1 JUMP JUMPDEST PUSH2 0x72F PUSH2 0x723 JUMP JUMPDEST PUSH2 0x73A DUP2 DUP5 DUP5 PUSH2 0x6FE JUMP JUMPDEST POP POP POP JUMP JUMPDEST JUMPDEST DUP2 DUP2 LT ISZERO PUSH2 0x75D JUMPI PUSH2 0x752 PUSH0 DUP3 PUSH2 0x727 JUMP JUMPDEST PUSH1 0x1 DUP2 ADD SWAP1 POP PUSH2 0x740 JUMP JUMPDEST POP POP JUMP JUMPDEST PUSH1 0x1F DUP3 GT ISZERO PUSH2 0x7A2 JUMPI PUSH2 0x773 DUP2 PUSH2 0x64D JUMP JUMPDEST PUSH2 0x77C DUP5 PUSH2 0x65F JUMP JUMPDEST DUP2 ADD PUSH1 0x20 DUP6 LT ISZERO PUSH2 0x78B JUMPI DUP2 SWAP1 POP JUMPDEST PUSH2 0x79F PUSH2 0x797 DUP6 PUSH2 0x65F JUMP JUMPDEST DUP4 ADD DUP3 PUSH2 0x73F JUMP JUMPDEST POP POP JUMPDEST POP POP POP JUMP JUMPDEST PUSH0 DUP3 DUP3 SHR SWAP1 POP SWAP3 SWAP2 POP POP JUMP JUMPDEST PUSH0 PUSH2 0x7C2 PUSH0 NOT DUP5 PUSH1 0x8 MUL PUSH2 0x7A7 JUMP JUMPDEST NOT DUP1 DUP4 AND SWAP2 POP POP SWAP3 SWAP2 POP POP JUMP JUMPDEST PUSH0 PUSH2 0x7DA DUP4 DUP4 PUSH2 0x7B3 JUMP JUMPDEST SWAP2 POP DUP3 PUSH1 0x2 MUL DUP3 OR SWAP1 POP SWAP3 SWAP2 POP POP JUMP JUMPDEST PUSH2 0x7F3 DUP3 PUSH2 0x3B2 JUMP JUMPDEST PUSH8 0xFFFFFFFFFFFFFFFF DUP2 GT ISZERO PUSH2 0x80C JUMPI PUSH2 0x80B PUSH2 0x472 JUMP JUMPDEST JUMPDEST PUSH2 0x816 DUP3 SLOAD PUSH2 0x61D JUMP JUMPDEST PUSH2 0x821 DUP3 DUP3 DUP6 PUSH2 0x761 JUMP JUMPDEST PUSH0 PUSH1 0x20 SWAP1 POP PUSH1 0x1F DUP4 GT PUSH1 0x1 DUP2 EQ PUSH2 0x852 JUMPI PUSH0 DUP5 ISZERO PUSH2 0x840 JUMPI DUP3 DUP8 ADD MLOAD SWAP1 POP JUMPDEST PUSH2 0x84A DUP6 DUP3 PUSH2 0x7CF JUMP JUMPDEST DUP7 SSTORE POP PUSH2 0x8B1 JUMP JUMPDEST PUSH1 0x1F NOT DUP5 AND PUSH2 0x860 DUP7 PUSH2 0x64D JUMP JUMPDEST PUSH0 JUMPDEST DUP3 DUP2 LT ISZERO PUSH2 0x887 JUMPI DUP5 DUP10 ADD MLOAD DUP3 SSTORE PUSH1 0x1 DUP3 ADD SWAP2 POP PUSH1 0x20 DUP6 ADD SWAP5 POP PUSH1 0x20 DUP2 ADD SWAP1 POP PUSH2 0x862 JUMP JUMPDEST DUP7 DUP4 LT ISZERO PUSH2 0x8A4 JUMPI DUP5 DUP10 ADD MLOAD PUSH2 0x8A0 PUSH1 0x1F DUP10 AND DUP3 PUSH2 0x7B3 JUMP JUMPDEST DUP4 SSTORE POP JUMPDEST PUSH1 0x1 PUSH1 0x2 DUP9 MUL ADD DUP9 SSTORE POP POP POP JUMPDEST POP POP POP POP POP POP JUMP JUMPDEST PUSH0 DUP2 SWAP1 POP SWAP3 SWAP2 POP POP JUMP JUMPDEST PUSH0 PUSH2 0x8CD DUP3 PUSH2 0x3B2 JUMP JUMPDEST PUSH2 0x8D7 DUP2 DUP6 PUSH2 0x8B9 JUMP JUMPDEST SWAP4 POP PUSH2 0x8E7 DUP2 DUP6 PUSH1 0x20 DUP7 ADD PUSH2 0x3CC JUMP JUMPDEST DUP1 DUP5 ADD SWAP2 POP POP SWAP3 SWAP2 POP POP JUMP JUMPDEST PUSH32 0x3A2066726F6D204672616E6B20746F20426F6200000000000000000000000000 DUP2 MSTORE POP JUMP JUMPDEST PUSH0 PUSH2 0x924 DUP3 DUP5 PUSH2 0x8C3 JUMP JUMPDEST SWAP2 POP PUSH2 0x92F DUP3 PUSH2 0x8F3 JUMP JUMPDEST PUSH1 0x13 DUP3 ADD SWAP2 POP DUP2 SWAP1 POP SWAP3 SWAP2 POP POP JUMP INVALID LOG2 PUSH5 0x6970667358 0x22 SLT KECCAK256 SWAP3 0xC 0x2C 0x22 OR POP 0xD4 CODECOPY PUSH0 0xC2 0xAB MSTORE8 0xEA DUP12 DUP6 0xE5 CREATE2 PUSH17 0x40EFA4060B2BC790D3049077E00964736F PUSH13 0x634300081A0033000000000000 "
				},
				"gasEstimates": {
					"creation": {
						"codeDepositCost": "484000",
						"executionCost": "infinite",
						"totalCost": "infinite"
					},
					"external": {
						"fund()": "307",
						"sayHello(uint256)": "infinite",
						"setHello(uint256,string)": "infinite"
					},
					"internal": {
						"addinfo(string memory)": "infinite"
					}
				},
				"methodIdentifiers": {
					"fund()": "b60d4288",
					"sayHello(uint256)": "42257b31",
					"setHello(uint256,string)": "fc0574e4"
				}
			},
			"storageLayout": {
				"storage": [
					{
						"astId": 13,
						"contract": "contracts/hello.sol:HelloWolrd",
						"label": "infoMapping",
						"offset": 0,
						"slot": "0",
						"type": "t_mapping(t_uint256,t_struct(Info)8_storage)"
					},
					{
						"astId": 16,
						"contract": "contracts/hello.sol:HelloWolrd",
						"label": "varString",
						"offset": 0,
						"slot": "1",
						"type": "t_string_storage"
					}
				],
				"types": {
					"t_address": {
						"encoding": "inplace",
						"label": "address",
						"numberOfBytes": "20"
					},
					"t_mapping(t_uint256,t_struct(Info)8_storage)": {
						"encoding": "mapping",
						"key": "t_uint256",
						"label": "mapping(uint256 => struct HelloWolrd.Info)",
						"numberOfBytes": "32",
						"value": "t_struct(Info)8_storage"
					},
					"t_string_storage": {
						"encoding": "bytes",
						"label": "string",
						"numberOfBytes": "32"
					},
					"t_struct(Info)8_storage": {
						"encoding": "inplace",
						"label": "struct HelloWolrd.Info",
						"members": [
							{
								"astId": 3,
								"contract": "contracts/hello.sol:HelloWolrd",
								"label": "id",
								"offset": 0,
								"slot": "0",
								"type": "t_uint256"
							},
							{
								"astId": 5,
								"contract": "contracts/hello.sol:HelloWolrd",
								"label": "phrase",
								"offset": 0,
								"slot": "1",
								"type": "t_string_storage"
							},
							{
								"astId": 7,
								"contract": "contracts/hello.sol:HelloWolrd",
								"label": "addr",
								"offset": 0,
								"slot": "2",
								"type": "t_address"
							}
						],
						"numberOfBytes": "96"
					},
					"t_uint256": {
						"encoding": "inplace",
						"label": "uint256",
						"numberOfBytes": "32"
					}
				}
			},
			"userdoc": {
				"kind": "user",
				"methods": {},
				"version": 1
			}
		}
	}
}